:100000008031062815130800803109008B31C12B7F
:1000100020004203031D0D280E28222840081F3906
:100020000038031D142815282228DC174108033A3C
:10003000031D1B281C2820282200D601D60A2228AE
:100040002200D60120004208031D2728282817294E
:1000500040081F39023A031D2E282F28172944086B
:100060000F39003A031935283628172944080F3963
:10007000FA0002307A0203183E283F281729530855
:10008000203A031D442845281729DC17C41B49289A
:100090004A285B2844080F39533E86000130870008
:1000A0000108E80044080F394F3E86000130870000
:1000B0000108E7006A2844080F39503E860087018E
:1000C0000108E80044080F394D3E860001308700E2
:1000D0000108E70067186D286E28702868117128DC
:1000E0006815C41B742875287E2844080F39533EB0
:1000F00086000130870068088100852844080F3990
:10010000503E86008701680881004108033A031DBC
:100110008A288B28AE28680886008701811F9128CD
:100120009228A528C41B952896289E2844080F3994
:100130004F3E8600013087008114A52844080F39FE
:100140004D3E8600013087008114680886008701D3
:100150000115680886008701811717290430E80611
:10016000680886008701811FB628B728CB28680851
:100170008600870181136808860087010117053012
:10018000E000E1016808E200E301E30AE4018C31E8
:10019000B3248031CF286808860087010117043016
:1001A0002000E806E718D528D628DD28680886004C
:1001B0008701811FDC28DD280129C41BE028E128F4
:1001C000E92844080F394F3E86000130870081102E
:1001D000F02844080F394D3E860001308700811019
:1001E0006808860087013B3081050530E000E101A9
:1001F0006808E200E301E30AE4018C31B3248031B2
:1002000006296808860087013B30810520004408E4
:100210000F39983EFA00FB010E30FB3D7A08E500ED
:100220007B08E60065088600660887000110080064
:100230003C302000EE00EF016F30E1006E30853180
:10024000992581312000ED006D08031D282987299B
:100250002300A001A101A201A3010F30A0052008E5
:10026000F0390938A0009030A10020006E0823006A
:10027000A20020006F082300A30020006E082100C8
:10028000E70020006F082100E8006808F100670817
:100290008C317C24813120005308203A03195129E4
:1002A000522957293D008E1C56295729872920009D
:1002B0005408031D5C296529540886008701010D37
:1002C000010D0139E700E8016729E701E801680845
:1002D0006704031D6C296D297929F001A030F10014
:1002E0000030F2004030F30001308D31352581318E
:1002F000D400F001F00AA030F1000130F200043027
:10030000F30001308D31352581312100E6002100D7
:10031000EA08031D8C298D29162A2200DB08031DFB
:1003200092299329162A21006608031D9829A229DB
:10033000660886008701010D010D01392000E900E2
:10034000EA01A5292000E901EA016A086904031D00
:10035000AA29AB29162A64302100EA002300A00153
:10036000A101A201A3010F30A0052008F03908382F
:10037000A0009030A100200058082300A200200017
:10038000D80A2300A301200058082100E700E80153
:1003900020005808493A031DCE29CF29D1293C30E5
:1003A000D800F101210067088C317C2481312200C2
:1003B000DB01DB0A20005308203A0319E029E12978
:1003C000E6293D008E1CE529E629162A200054085E
:1003D000031DEB29F429540886008701010D010D46
:1003E0000139EB00EC01F629EB01EC016C086B0420
:1003F000031DFB29FC29082AF001A030F100003080
:10040000F2004030F30001308D3135258131D400C8
:10041000F001F00AA030F1000130F2000430F300E6
:1004200001308D31352581312100E600080050086A
:10043000860087010030011B0130F3000430D00634
:100440005308083A031D252A262A352A42087F39EF
:100450003D0096001608031D2E2A322A1030200077
:10046000D300352A04302000D3005503031D392A58
:100470003A2A762A4830F1000030F2005008023E55
:10048000860087017108C03F7208C13F8E317D260A
:10049000823121006C08023A031D4F2A502A5B2A40
:1004A0002000500886008701043081005008860033
:1004B00087018117852AF308031D5F2A602A6B2AAA
:1004C00020005008860087014830810050088600CF
:1004D00087018117852A200050088600870108308F
:1004E00081005008860087018117852A2200C91FD4
:1004F0007A2A7B2A832A4C08031D7F2A822A4C08E9
:100500008231812AC9132000D5010800200040084B
:10051000803A031D8C2A8D2AF12AC030DC00E62A9D
:10052000E330DA008330DB001230DD00DE01F12A37
:100530004208031D9C2A9D2AC72A4208F000F101A7
:10054000F035F10D2E30700784008330713D850049
:10055000003FDA00013FDB005B08F1005A08F000C1
:1005600002307007840071080318710A85000008C2
:10057000DD005B08F1005A08F000033070078400CA
:1005800071080318710A85000008DE00F12ADC01F9
:10059000F12A033042020318CE2ACF2AC72A420882
:1005A000F000F101F035F10D283070078400833040
:1005B000713D8500003FDA00013FDB005A088400EE
:1005C0005B0885000008DD00DE01F12A4308013ADE
:1005D0000319902A033A0319982A013A0319C92AE0
:1005E000C72A0800F0002400110895137008910034
:1005F000141CFB2AFC2AF82A11080800951308008D
:1006000000343F341834183418341834473418344C
:100610001834183418341834183418344434453421
:10062000463431343234183418343034413442349E
:100630004334183418343634383434343B343D348D
:10064000403433343534373439343A343C343E343E
:10065000F534833495348334C9348334303483346B
:100660000934023465340034023401340034C034B7
:100670003234093404340034003400340134013499
:100680000034003409342434013400340134093492
:1006900000340134013409340434013400340234A8
:1006A000013403340034003407342434013400347A
:1006B000013441340034063424340234013401342A
:1006C0000034063424340234023402340034093451
:1006D000243403340134033401340234013400344B
:1006E0000934243403340234043401340134013431
:1006F0000034093405340134023440340034003409
:100700000034003405342534013401340134093413
:100710000534813402344034003400340034003471
:1007200005342534013401340334343403344D3476
:1007300000346934003463340034723400346F346C
:100740000034633400346834003469340034703465
:1007500000342034003454340034653400346334BD
:100760000034683400346E3400346F3400346C3438
:1007700000346F340034673400347934003420346A
:100780000034493400346E340034633400342E3481
:1007900000341A3403344D340034493400344434C2
:1007A0000034493400342034003445340034783483
:1007B0000034613400346D340034703400346C34EF
:1007C000003465340034123401340034023400340F
:1007D000003400340834D83404345934003402343A
:1007E0000034013402340034013404340334093455
:1007F000043400342000D308031DFF2B002C122CDE
:100800003D008E019201163091009F3097007B30A1
:1008100092000B2C8E158E1D0E2C0F2C0A2C2000F6
:10082000D301D30A5303031D162C172C232C3D0090
:100830008E1A1B2C1C2C232C9001920112141216C0
:1008400002302000D3003D00101D272C282C302C16
:10085000121D2B2C2C2C302C10118A31D3228331D9
:100860003D008E1C342C352C382C20001211EE2C1F
:10087000101C3B2C3C2C472C121C3F2C402C472C92
:100880008631CC2683310430D3003D001010101E79
:100890004A2C4B2C522C121E4E2C4F2C522C8A318F
:1008A000692283313D00101F562C572C792C121FC2
:1008B0005A2C5B2C662C73302000E000E101E20131
:1008C000E301E30AE4018C31B32483313D001013CA
:1008D0008A314922833121006508031D702C712C57
:1008E000E503E508031D752C762C792C8F313C2708
:1008F00083313D00901E7D2C7E2C852C921E812CF8
:10090000822C852C8B3176238331901C882C892C6A
:100910009B2C921C8C2C8D2C9B2CFF302000E000FB
:100920007F30E100E201E301E30AE4018C31B3240A
:1009300083313D0093010430200053020318A12CA1
:10094000A22CA32C352C3D00921DA72CA82C352CB5
:100950002000ED013D00901DAE2CAF2C352C0F0872
:100960002000DF005F0CEC00EC0C6C0C0F39210058
:10097000E9003D00901120005F19BF2CC02CC92C4C
:10098000210069084F3E8600013087000130810652
:10099000D12C210069084D3E8600013087000130CE
:1009A0008106E908031DD52CD62CDA2C8F319E2721
:1009B0008331E52C72302000E000E1015F30E2007D
:1009C000E301E4018C31B32483312000ED0A0430CB
:1009D0006D02031CEC2CED2CAA2C352C0800FC001D
:1009E0000B307202003003180130F400F5012200D0
:1009F000D101D201750874040319FF2C002D0D2DAF
:100A00007C08A43E86000130870081017C08473EB7
:100A1000860002308700810A192D7C08473E860037
:100A20000230870081017C08A43E860001308700E7
:100A3000810A7C08473E86000230870007300102A9
:100A4000003003180130FA007C08A43E8600013013
:100A5000870005300102003003180130F600F7016D
:100A6000F70AFA08031D352D362D4B2DFA08031D04
:100A70003A2D3B2D4A2DF608031D3F2D402D4A2DC2
:100A80007C08203E8600013087008108031D492D27
:100A90004A2D4B2DF7017708FB007B08003A03191C
:100AA000522D542D0130552D0030F3007C08203E8E
:100AB0008600013087000108003A0319602D622D7D
:100AC0000130632D003073060319672D682D912DB9
:100AD0007C08013E840083300318013E8500000835
:100AE000D100FB08031D752D762D792DF801F90134
:100AF000822D7208F800F901F835F90D0530F80774
:100B00000318F90A7808D2007B08031D882D8D2D63
:100B100001308A31A7228431912D01308A3191220E
:100B200084317C08203E8600013087007B088100EC
:100B30000800E6002200D201D101200061088600F1
:100B40008701810166088600870181012200DA0899
:100B5000031DAB2DAC2DAF2D8B311E2385318A317A
:100B60003A228531003A0319B62DB72D1D2E0030DB
:100B7000392EF001F00A00308B3104238531DD017C
:100B8000DD0A8A3130228531272EF001F00A00304B
:100B90008B31042385310230DD008A3130228531EA
:100BA000272E8931F8218531F00001308B31042363
:100BB00085310330DD008A3130228531272EF00166
:100BC00000308B31042385318A3122228531043073
:100BD0002200DD008A3130228531272E8931FD2126
:100BE00085310038031DF52DF62DFB2D0430200036
:100BF000E200E301FF2D05302000E200E30162087E
:100C00002200DD00272E8A3158228531FD008931EE
:100C1000F22185318731D72785310038031D112E08
:100C2000122E162E0230E400E501192EE401E40A2A
:100C3000E50164082200DD00272E5D0884000630EF
:100C400004020318272E883104351A3E8200200042
:100C50006608860087012200510881002000610893
:100C6000860087012200520881000030D108031D50
:100C700001300800560886008701413FF5007508DD
:100C8000F200F301730822004B02031D492E720883
:100C90004A0203184C2E4D2E4F2E4A08F5007508B7
:100CA000CA02031CCB03F401602E470886008701AB
:100CB0007408483E8400850100088100C70AF40AD0
:100CC00075087402031C652E662E552E0330473EB0
:100CD000860001308700160001040319702E712E62
:100CE0009E2E2000570A8600870108308100483078
:100CF000F2000030F3005708023E860087017208B8
:100D0000C03F7308C13F560886008701011B892E2A
:100D10008A2E942E57088600870148308100570894
:100D2000860087018117CB2E57088600870108307F
:100D300081005708860087018117CB2E2000570AB3
:100D400086008701083081004030F2000030F30057
:100D50005708023E860087017208C03F7308C13FF2
:100D600057088600870104308100570886008701F4
:100D7000811722004C08031DBE2EC12E4C0886315F
:100D8000C02EC9132000D208031DC72EC82ECB2E9B
:100D90008F313C2786310800210012113D0093015C
:100DA000900198010E30F3009930F200F4017208BE
:100DB0008600730887008101F20A0319F30AF40A16
:100DC0007408031DE42ED72E16303D0091009F308D
:100DD00097007B309200F501750809070907203E4E
:100DE000860087010030C03F0030C13FC23FC33F93
:100DF000F50A08307502031CFE2EFF2EEC2E3D0076
:100E00000E1796010E120E1390112000DC01220025
:100E1000C901CA01CB013D0090190F2F102F042FDB
:100E200001302100E3000130E400E2012200D8019A
:100E3000D701F5017508503E8600870181017508CC
:100E4000533E860001308700810175084D3E8600C3
:100E500001308700810175084F3E86000130870010
:100E60008101F50A02307502031C372F382F1A2F23
:100E700028302000D00016303D0098004030F000AF
:100E80000030F10070082000A2007108A3000830B3
:100E9000A1000430A000A0172100EE012200D9011A
:100EA0002000D30108003D000E122000DC1B592F4A
:100EB0005A2F942F2200C91F5E2F5F2F6F2F0230F1
:100EC0002000D5002200D808031D672F682F6B2F44
:100ED0008D31832587312100E401E301D62F2000E5
:100EE000570A86008701083081004030F300003047
:100EF000F4005708023E860087017308C03F74085B
:100F0000C13F5708860087010C30810057088600D2
:100F1000870181175008860087010430810050083E
:100F2000860087018117D62FC01F972F982FB02FCB
:100F3000D501D50A2100E208031D9F2FA02FA32F62
:100F40008D31832587312100E401E3012000D2089F
:100F5000031DAB2FAC2FD62F8F313C278731D62FD7
:100F60000230D500570A86008701083081004030E2
:100F7000F3000030F4005708023E86008701730832
:100F8000C03F7408C13F57088600870104308100C4
:100F900057088600870181172100E401E301200042
:100FA000D208031DD42FD52FD62FAC2F0800200038
:100FB000E0005908203E8600023087000108F10059
:100FC0006008F20059088431EF2487312000590865
:100FD000203E86000230870060088100D90A273051
:100FE00059020318F42FF52FF92F7D08031DF92F4F
:100FF000FA2FD9015908003A0030031901300800CE
:101000008D310A2D8D310E2D8D31342D8D310E2DDA
:101010008D31342D8C31F52C8C31F92C8D31202DE6
:101020008D31012D8C31FD2C8D31122D8D31182DEE
:101030008D31342D8531B92D8531C52D8531D12D99
:101040008531DF2D8531EE2D8631032E8A31BC2A84
:101050008A31A92A8A31AC2A8A31A92A8A31AF2A4F
:101060008A31A62A8A31932A8A31962A8A31932A8A
:101070008A31992A8A31902A8A317D2A8A31802AB6
:081080008A317D2A8A31832A9E
:1013E4001C080800150D150D0139080022000E0E09
:1013F400890C01390800003021009D1C01300800CF
:101404002400940135309500970108002400150E3E
:10141400890C890C01390800640080010131890BB1
:101424000F2A003421000D168D160D178D138E13FF
:1014340008008A3114228A318A3102228A31080052
:1014440021001D0883391C389D009D1408002100CB
:101454006A08031D2E2A2F2AEA030800DC01DC0A8D
:101464002100951295158B120B112000950108008F
:10147400F00122005C08031D402A462A0B19432A66
:10148400442A462AF001F00A7008DC000800220011
:10149400D708031D4E2A4F2A572AD90AD908031DF3
:1014A400542A552A572AFF30D90008002730210032
:1014B400ED0A6D02003003180130F00027306D0290
:1014C400031C652A662A672AED01700808001215B4
:1014D40010128E142200D701D70AD90175302000CA
:1014E400E000E101E201E301E4018C31B3248A313B
:1014F4000800F000862A21000E11902A21008E1087
:10150400902A21008E11902A70088400053004026C
:101514000318902A883104353A3E82000800F0000E
:101524009C2A22000E11A62A22008E10A62A22002E
:101534008E11A62A70088400053004020318A62A16
:1015440088310435303E82000800F000B22A2200BF
:101554000E15BC2A22008E14BC2A22008E15BC2A29
:1015640070088400053004020318BC2A883104354D
:10157400263E82000800F4007408F500C72A7508A6
:101584008600870170088100F50A0130F2020030FC
:10159400F33B720A0319730A031DD12AD22AC12A02
:1015A40008002200D70174302000E000E101E201CC
:1015B400E301E4018C31B3248A313D008E10121111
:1015C400E42A10111019E72AE82AE32A2200D90193
:1015D4000800F100F82AFC3021009900903027001F
:1015E4009B0001308A317B228A31032B7108003A37
:1015F4000319ED2A013A0319032B033A0319032BA8
:10160400032B0800F2000030F208031D0130F10042
:10161400F10E22000E087106EF3971068E000030BB
:10162400F008031D0130F100F10EF10D0E087106F2
:10163400DF3971068E000800DA01DA0A21008E15FE
:101644000E128E1223008C018E1522000E128E12A1
:1016540023000C1221000C1611131D149E131E08D6
:101664008F3960389E00FC309E058F309F0508003E
:1016740000308A31EB228B318631CC268B318A3192
:101684001B228B316400813118218B318331FA2381
:101694008B31203053020318502B512B522B442BE7
:1016A4003D000E08442B803106282100E60120006D
:1016B400D4013C30D8002200DB01DB0A2100EA011E
:1016C4001E30F40001308B319A238B31F001A030AD
:1016D400F1000030F2004030F30001308D31352547
:1016E4008B312000D4000800181C792B7A2B982BFE
:1016F40020005608860087010108803A031D832BC9
:10170400842B962B5008860087010108843A031D18
:101714008C2B8D2B962B5608860087010C3081006C
:1017240056088600870181173D00181090120800A2
:10173400F900741D9E2B9F2BA42BF00179088B318B
:10174400EC238B31F41CA72BA82BAE2BF001F00A51
:1017540079088B31EC238B317908983EF500F6013A
:101764000E30F63D7508F7007608F8007408F500A9
:1017740077088600780887007508810008005030D3
:1017840084000030850010308A310E228B31E03025
:1017940084000030850010308A310E228B312030D5
:1017A4008400013085003E308A310E228B31A43012
:1017B40084000130850027308A310E228B3120309D
:1017C4008400023085004E308A310E228B31200095
:1017D4008B313A2BF2002030F3007008F100F13520
:1017E400720809070907710709070907F30773084E
:1017F400860087018113F008031D012C022C0A2C9A
:101804007208533E86000130870073088100102C53
:101814007208503E860087017308810073088600B1
:10182400870101137308043E86008701011708002D
:101834005508023A031D1F2C202C242C86313A26ED
:101844008C31482CD5012200D508031D2A2C2B2CC1
:10185400472C2000570A8600870108308100403059
:10186400F6000030F7005708023E8600870176082C
:10187400C03F7708C13F5708860087010C308100BC
:101884005708860087018117482CD50108002100DC
:10189400EC012000D2012100E2012200D801D5018F
:1018A4002000D50150088600870181130430D0063A
:1018B40050088600870181130430D006570886003B
:1018C40087018113DC01DD01DE012200C901CA01A7
:1018D400CB018C31EB248C3103302000E000E1019A
:1018E400E201E301E4018C31B3248C3187315327C5
:1018F4008C310800F2000A30F3008A3108228C315E
:10190400003A0319862C872C8A2C803102208C31D2
:101914008931F4218C31003A0319912C922C952CA5
:101924008231FE228C3122008D178D1320008D1EF2
:101934009C2C9D2CA22CF308031DA12CA22C982CCA
:101944008D1AA52CA62CB22C72088231F2228C316D
:1019540071088231F2228C31AA308231F2228C3128
:101964000800C32C8E3121268C318A3129228C31F6
:10197400EA2C8E3121268C31EA2C8B3157238C3181
:10198400EA2C6108003A0319CB2C7F3A0319E52CA1
:10199400EA2C6008013A0319BF2C033A0319EA2C14
:1019A400013A0319EA2C063A0319EA2C773A031987
:1019B400EA2C013A0319B42C073A0319BB2C013A57
:1019C4000319BB2CEA2C6008FF3A0319EA2CEA2C11
:1019D40008002000400E890C0339003A0319F32C47
:1019E400F42C2A2D342DDC170830D300342D823109
:1019F40086228C31342D8E31DB268C31342DEE3021
:101A0400DA000030DB005C14DD01DD0ADC17342D64
:101A14008D31D1258C31342D803108208C31342DF9
:101A24004408EF3EDA000030DB00052DDC174408E3
:101A3400EF3E8600870142088100342D0230E00029
:101A4400E101E201E301E4018C31B3248C31342D52
:101A5400410884000D3004020318342D8831043504
:101A6400003E82000800F6007008031D3A2D412D47
:101A74007608503E860087010108F700482D760855
:101A8400533E8600013087000108F700F708031D64
:101A94004C2D4D2D4F2D0030822DFF307105F4005B
:101AA4007F307205F5007708023E860087017408CE
:101AB400C03F7508C13F770A86008701730881001B
:101AC4007708860087014030810577088600870102
:101AD400811577088600870181177008031D732D0F
:101AE4007A2D7608503E8600870104308106812DC8
:101AF4007608533E8600013087000430810677085B
:101B040008002100E2012200D80120005508023A11
:101B1400031D8D2D8E2DA92D570A860087010830AF
:101B240081004830F1000030F2005708023E860080
:101B340087017108C03F7208C13F570886008701BA
:101B4400483081005708860087018117D02D5E0830
:101B54004702031DAF2D5D0846020318B22DB32DB5
:101B6400B72D4708DE004608DD008E317D268D3115
:101B74004830F1000030F20020005008023E860098
:101B840087017108C03F7208C13F50088600870171
:101B94004830810050088600870181170800200022
:101BA400C8010030C900082EDC1722005603031DAB
:101BB400DC2DDD2D142E2000C814142EDC17142E59
:101BC400DC17C41BE62DE72DF02D44080F39533ED6
:101BD4008600013087000108F000F72D44080F3912
:101BE400503E860087010108F000700886008701D6
:101BF400811FFD2DFE2D142E700886008701011D06
:101C0400042E052E142E0130C800142E40081F394E
:101C1400003A0319D62D013A0319E02D033A0319AA
:101C2400E22D142E2000DC1F182E192E202E4830F1
:101C3400DA000030DB005C140230DD0008003D00F7
:101C44008E1C252E262E722E01308A3191228E3141
:101C54007C2E210060036104031D312E322E372EA9
:101C640001308A31A7228E31782E60084B3A610404
:101C7400031D3D2E3E2E432E01308A3191228E319A
:101C8400782E00306102973003196002031C4B2E3A
:101C94004C2E4F2EE001E101782E782E21006003B6
:101CA4006104031D562E572E5C2E01308A31A72263
:101CB4008E31782E6008323A6104031D622E632E41
:101CC400682E01308A3191228E31782E03306102E0
:101CD400B73003196002031C702E712E782E4C2E1F
:101CE40020005308203A03192B2E502E2100E00A1D
:101CF4000319E10A08000830F00000305E020830E1
:101D040003195D020318872E882E9A2E5D08F000B1
:101D14002100EC08031D8F2E902E932EEC01EC0A6B
:101D24009A2E6C03031D972E982E9A2E0230EC00E7
:101D340070082000DD02031CDE03500A86008701C0
:101D44007008810048302100EB0020005C18AB2EA5
:101D5400AC2ED52EBE2E21006B08860087012000F4
:101D64005A0884005B08850000088100DA0A031918
:101D7400DB0A2100EB0AF003F008031DC22EC32E78
:101D8400AD2EDA2E21006B088600870120005A0848
:101D940084005B08850000088100DA0A0319DB0A65
:101DA4002100EB0AF003F008031DD92EDA2EC42E0D
:101DB40008002000DC170E30FB009930FA00FC010B
:101DC4007A0886007B0887008101FA0A0319FB0A56
:101DD400FC0A7C08031DEF2EE22EF001F1012030F5
:101DE400F200F30120308A31BD228E313D000E17FE
:101DF400FD017D084D3E86000130870081017D088C
:101E04004F3E8600013087008101FD0A02307D02C9
:101E1400031C0D2F0E2FFB2EF001F101F201F20A2B
:101E2400F301EF308A31BD228E313D000E1328308C
:101E34002000D0002030D6005608D70042082100E8
:101E4400EE00EE08031D272F282F2C2F1030200022
:101E5400D3003B2F2000E001E00AE101EE30E20074
:101E6400E301E30AE4018C31B3248E3120302000F5
:101E7400D30008002100E308031D412F422F9D2FAA
:101E84000130E300E408031D482F492F9D2F013042
:101E9400E40020005508023A031D512F522F602FF1
:101EA400500A860087018101500886008701483066
:101EB400810050088600870181179D2F5503031D5B
:101EC400642F652F9D2F2200D5012000560A86001D
:101ED4008701083081004030F0000030F1005608DE
:101EE400023E860087017008C03F7108C13F560852
:101EF4008600870104308100560886008701811717
:101F04002200D501D50A2000570A8600870108302F
:101F140081004030F0000030F1005708023E860096
:101F240087017008C03F7108C13F570886008701C8
:101F3400803081009D2F08002D30E50020005F08CF
:101F4400FD39031DA62FA72FF32F5F363F3909074D
:101F54000907203ED6005608D7000430D706560895
:101F640086008701010C890C0F390D3A031DBB2F24
:101F7400BC2FEF2FEB016B08403E8600870156080B
:101F8400023E84008501003FE900013FEA00690840
:101F940084006A088500000881005608023E860015
:101FA40087010130810741310318810AEB0A0830A7
:101FB4006B02031CDE2FDF2FBD2F4030E900003001
:101FC400EA005608023E860087016908C03F6A0895
:101FD400C13F8C3149248F31FF2F8C311A248F312A
:101FE400FF2FFD305F05E9006908043A031DFB2F4C
:0C1FF400FC2FFF2F823117228F310800D4
:020000040001F9
:04000E00FCCFCFDF75
:00000001FF
