:04000000803106281D
:1000080080310900803148283D008E1C3D28013090
:10001800722B50035104031D1528013088238031A9
:10002800432850084B3A5104031D1E2801307223FF
:100038008031432800305102973003195002031CC5
:100048004328D001D101432850035104031D30280F
:1000580001308823803143285008323A5104031D67
:100068003928013072238031432803305102B730D8
:10007800212820005508203A03190D282828200097
:10008800D00A0319D10A08005030840000308500D6
:1000980011308D3185258031E030840000308500B5
:1000A80010308D3185258031203084000130850065
:1000B8003B308D3185258031A430840001308500A6
:1000C80027308D318525803120308400023085002D
:1000D8004E308D31852580312000722800308420F3
:1000E800803143258031982080319B2080317124D4
:1000F800803120305502031C79283D000E087928EC
:10010800F100003A03198F28013A03199728033A96
:10011800031997289728FC30210099009030270070
:100128009B0001309E2B080063218031B42B3C30AA
:100138002000EE006F30EF01E2006E306A2180315E
:10014800003A0319D72823008127803120006E0840
:100158002300A20020006F082300A30020005508F8
:10016800203A0319BA283D008E1CD72820005608CB
:100178000319C3285608B0278031E800C428E801CD
:10018800E90169086804A030031DD128F001AB27F4
:1001980080312A218031D600A030952780312A214C
:1001A80080312100E5002100E708031D0800EA0866
:1001B800031D080065080319E7286508B027803182
:1001C8002000EA00E9282000EA01EB016B086A0434
:1001D800031D080064302100E700230081278031D7
:1001E800210069082300A2002100E90A2300A301D5
:1001F80021006908493A031D03293C30E900EA0156
:10020800EA0A20005508203A03190D293D008E1CE2
:10021800080020005608031916295608B02780310F
:10022800EC001729EC01ED016D086C04A030031DEA
:100238002429F001AB2780312A218031D600A03053
:10024800952780312A212100E5000800F600700872
:10025800031933297608523E860087013629760825
:10026800C32780310108F700F70803190034710823
:10027800F4007F307205F5007708023E860087019A
:100288007408C03F7508C13F770A8600730881006B
:100298007708860040308105770886008115770841
:1002A80086008117700803195D297608523E86007A
:1002B8005F297608C32704308106770808002100E3
:1002C8000D168D160D178D138E130800E7002200EA
:1002D800D201D101200062088600870181016708E8
:1002E800860081012200D908031D7C29562380310C
:1002F800F00121006C08031D82298B2980310B191C
:100308000C288031892980310C28F001F00A700806
:10031800EC00003A031D0034392B0030F001F00ADC
:10032800F2000030F208031D0130F100F10E220046
:100338000E087106EF3971068E000030F008031DB3
:100348000130F100F10EF10D0E087106DF3971066A
:100358008E00DA01DA0A2100EC01EC0A95129515F3
:100368008B120B1120009501442B0030F001F00A8C
:10037800F2000030F208031D0130F100F10E2200F6
:100388000E087106EF3971068E000030F008031D63
:100398000130F100F10EF10D0E087106DF3971061A
:1003A8008E000230DA002100EC01EC0A9512951556
:1003B8008B120B1120009501442B22000E0E890C84
:1003C8000139F0000130F2000030F208031D01305D
:1003D800F100F10E22000E087106EF3971068E0049
:1003E8000030F008031D0130F100F10EF10D0E0888
:1003F8007106DF3971068E000330DA002100EC0146
:10040800EC0A951295158B120B1120009501442BBF
:100418000030F001F2000030F208031D0130F10055
:10042800F10E22000E087106EF3971068E000030B9
:10043800F008031D0130F100F10EF10D0E087106F0
:10044800DF3971068E0021001D0883391C389D0094
:100458009D1404302200DA002100EC01EC0A951208
:1004680095158B120B1120009501442B00302100AB
:100478009D1C01300038031D432A0430442A0530EE
:100488002000E300E401362B27302100ED0A6D023D
:10049800003003180130F00027306D02031C572A82
:1004A800562A572AED017008FD001C082000E100BB
:1004B8005A08203E8600023087000108F1006108D2
:1004C800F2005A08FC000B307202003003180130A9
:1004D800F400F5012200D101D20175087404031952
:1004E800842A772A842A7C08A43E86000130870063
:1004F80081017C08473E860002308700810A902AE5
:100508007C08473E86000230870081017C08A43EB3
:10051800860001308700810A7C08473E8600023049
:10052800870007300102003003180130FA007C0808
:10053800A43E860001308700053001020030031810
:100548000130F600F701F70AFA08031DC82AAD2A98
:10055800C82AFA08031DC72AB22AC72AF608803112
:10056800031D5B288031BA2A80315B287C08203E35
:1005780086000130870081088031031D5C288031A6
:10058800C72A80315C28F7017708FB007B08003A0E
:100598000319CF2AD12A0130D22A0030F3007C086F
:1005A800203E8600013087000108003A0319DD2A41
:1005B800DF2A0130E02A0030730603190C2BE52AE4
:1005C8000C2B7C08013E840090300318013E850006
:1005D8000008D100FB08031DF62AF32AF62AF801C1
:1005E800F901FF2A7208F800F901F835F90D05300C
:1005F800F8070318F90A7808D2007B08031D052BB1
:10060800092B013088238031A128013072238031E1
:100618007C08203E8600013087007B08810020008E
:100628005A08203E86000230870061088100DA0AF5
:1006380027305A020318262B222B262B7D08031D50
:10064800262B272BDA015A08003A0030031901300B
:100658000038031D322B0230E500342BE501E50A92
:10066800E60165082200DA00442B22005A088400BB
:10067800063004020318442B87310435F33E820008
:1006880020006708860087012200510881002000A9
:10069800620886002200520881000030D108031D3C
:1006A80001300800D901D90A21008E150E128E12C8
:1006B80023008C018E1522000E128E1223000C12BC
:1006C80021000C1611131D149E131E088F39603853
:1006D8009E00FC309E058F309F050800F0007D2BA2
:1006E80022000E11080022008E10080022008E1130
:1006F80008007008840005300402031808008831D7
:1007080004350A3E82000800F000932B22000E15E3
:10071800080022008E14080022008E1508007008B8
:100728008400053004020318080088310435003EAF
:1007380082000800F000A92B21000E1108002100FA
:100748008E10080021008E11080070088400053002
:1007580004020318080088310435143E820008009A
:100768002400940135309500970108002000420BC1
:10077800CC2B40081F39031DCC2BDD174108033A49
:10078800031DCA2B2200D601D60ACC2B2200D60183
:1007980020004208031D080040081F39023A031DC3
:1007A800080044080F390319080044080F39FA00F3
:1007B80002307A02031808005508203A031D080081
:1007C800DD17C41BF12B4408A52780310108E90077
:1007D80044080F394F3E8600FB2BB62780310108AD
:1007E800E90044080F394D3E8600013087000108B2
:1007F800E8006818012C6911022C6915C41B082C23
:100808004408A52780310A2CB62780316908810061
:100818004108033A031D2A2C690886008701811FB5
:10082800222CC41B1B2C44080F394F3E1E2C440895
:100838000F394D3E86000130870081146908860013
:100848008701011569088600811708000430E90648
:100858006908860087016908811F3C2C860081137E
:100868008600053001179D278031162580313F2CE1
:1008780086008701011704302000E906E818492C92
:10088800690886008701811F5E2CC41B4F2C440811
:100898000F394F3E522C44080F394D3E8600013027
:1008A80087008110CE27803105309D27803116259D
:1008B80080315F2CCE27200044080F39983EFA007B
:1008C8000E30FB01FB3D7A08E6007B08E70066086E
:1008D800860067088700011008002000D508031D5E
:1008E800822C3D008E0192011630C82780318E1966
:1008F8007F2C8E157B2C2000D501D50A5503031DAE
:100908008F2C3D008E1A8F2C900192011214121612
:1009180002302000D5003D001019121D962C101130
:10092800B72580313D008E1C9C2C20001211080038
:100938001018121CA52C432580310430D5003D0029
:100948001010101A121EAA2CC82580313D00101F45
:10095800C42C121FB72C73302000E100E201D42709
:100968008031162580313D001013D32580312100B8
:100978006408031DE403E408031DC42CF625803134
:100988003D00901A921ECA2CDB2580319018921CCB
:10099800D82CFF302000E1007F30E200D4278031DE
:1009A800162580313D009301043020005502031CB8
:1009B800992C3D00921D992C2000EE013D00901DC0
:1009C800992C0F082000E000600CED00ED0C6D0C78
:1009D8000F392100E6003D00901120006019F82C25
:1009E800210066084F3EFB2C210066084D3E86001C
:1009F800013087008106E608031D052D3726803162
:100A08000F2D72302000E1006030E201E300E401C4
:100A1800E5011625803120000430EE0A6E02031825
:100A2800992CE22C6208003A0319232D7F3A031906
:100A38003D2D422D08208031862E08288B2E6108F6
:100A4800013A0319222D033A0319422D013A0319D9
:100A5800422D063A0319422D773A0319422D013ADD
:100A680003191E2D073A0319212D013A0319212DC7
:100A7800422D6108FF3A0319422D422D080021003A
:100A880012113D009301900198010E30F300993046
:100A9800F200F40172088600730887008101F20AE7
:100AA8000319F30AF40A03194E2D16303D00C8271E
:100AB8008031F501750809070907203E86000030D6
:100AC8008701C03FC13FC23FC33F0830F50A7502E6
:100AD800031C5E2D3D000E1796010E120E13901189
:100AE8002000DD012200C901CA01CB013D00901997
:100AF800732D01302100E200E300E001E101220052
:100B0800D701F5017508523E8600870181017508F5
:100B1800533E860001308700810175084D3E8600EE
:100B2800810175084F3E860002308101F50A750281
:100B3800031C862D28302000D20016303D00980076
:100B48004030F000F1012000A2007108A300083035
:100B5800A1000430A000A0172100EE012200D80156
:100B68002000D501080022007430D7018E2780317B
:100B7800162580313D008E101211101DC52D101143
:100B8800C12D2200D8010800121510128E1422005F
:100B98007530D701D70AD8018E278031162D22004B
:100BA800D7080319D80F0800FF30D8000800181C10
:100BB800F42D20005808860087010108803A031D9B
:100BC800F22D520886000108843A031DF22D5808B8
:100BD80086000C3081005808860081173D001810E7
:100BE800901208002100E208031D08000130E2000D
:100BF800E308031D0800E30020005708023A031D1C
:100C08000E2E520A8600870181015208860048305C
:100C18008F316C2F570B08002200D5012000580A8D
:100C280086000830870181004030F000F101580843
:100C3800BC27803158088600043081005808860097
:100C480081172200D501D50A2000590A86000830EC
:100C580081004030F000F1015908BC27590886008E
:100C68008030810008002D30E40020006008FD3944
:100C7800031D7E2E60363F3909070907203ED8003C
:100C8800D9000430D906580886008701010C890C60
:100C98000F390D3A031D7C2EEC016C08403E86008E
:100CA80087015808023E84008501003FEA00013FA1
:100CB800EB006A0884006B0885000008810058086A
:100CC800023E86000130810741310318810A08304D
:100CD800EC0A6C02031C512E4030EA00EB01580864
:100CE800023E860087016A08C03F6B08C13FE82EB4
:100CF8008F31712FFD306005EA00043A031D0800AA
:100D08008E31502E21006708031DE70308002100DB
:100D1800E50120003C30D6012100E9001E30EA013F
:100D2800EA0AE701F4000130A2268031A030F00180
:100D3800AB2780312A212000D6000800F900741D55
:100D4800A82EF001C1268031F41CAE2EF001F00A65
:100D58007908C1267908983EF5000E30F601F63D6F
:100D68007508F7007608F8007408F500770886001B
:100D780078088700750881000800F2002030F30029
:100D88007008F100F13572080907090771070907AA
:100D98000907F3077308860087018113F008031D0C
:100DA800D92E7208C3278031DD2E7208523E860084
:100DB800870173088100730886008701011373088F
:100DC800043E8600011708002100EB012000D40131
:100DD8002100E001E1012200D5012000D7015208DD
:100DE8008600043087018113D20652088600043039
:100DF8008113D206590886008113DD01DE01DF0167
:100E08002200C901CA01CB011027803103308E2787
:100E1800803116258E319F2E2000400E890C033913
:100E2800031D0800410884000D300402031808005F
:100E380087310435D93E820008000830DD17D50017
:100E480008008D318B2D8D31EA2DEE30DB0000301E
:100E5800DC005D14DE01DE0ADD170800492FBA2B1D
:100E68004408EF3EDB000030DC012D2FDD1744087D
:100E7800EF3E860087014208810008000230E10049
:100E8800E201E301E401E501162D2000C801C901D2
:100E98006C2FDD172200560B772F2000C814772FF0
:100EA800DD17772FDD17C41B5D2F4408A527803178
:100EB8005F2FB62780310108F00086008701811F67
:100EC800772F70088600011D772F0130C800772F13
:100ED80040081F3903194D2F013A0319542F033ABB
:100EE8000319562F772F2000DD1F08004830DB003C
:100EF8000230DC015D14DE0008000F30A001A10102
:100F0800A201A301A0052008F0390938A0009030FB
:100F1800A10008002000E100E201E301E401E5018D
:100F28000800F001F00AF1000130F2000430F3008B
:100F38000134E100E2016908E300E401E40AE501A3
:100F480008000F39533E8600013087000800F10081
:100F58004030F201F300013486008701010D010DD4
:100F68000139080044080F39523E860087010800FD
:100F7800023E86007008C03F7108C13F0800533E1A
:100F8800860001308700080091009F3097007B3071
:100F980092000800690886003B3087018105080037
:100FA800E301E401E40AE50108008731322F8731C3
:100FB800332F8731202F8731332F8731202F8731E7
:100FC800212F8731252F8731422F8731292F8731CC
:100FD800272F8731342F87313A2F8731202F8131BE
:100FE80091298131B9298131E12982310C2A823153
:060FF8003A2A8231482A6A
:1010000083319D2B83318A2B83318D2B83318A2B26
:101010008331902B8331872B8331742B8331772B52
:101020008331742B83317A2B8331B32B8331A02B03
:0C1030008331A32B8331A02B8331A62B2E
:101B0A00640080010131890B862D003420004008D1
:101B1A00803A031D0800C030DD00CA2DE330DB0027
:101B2A009030DC001230DE00DF0108004208031D9D
:101B3A00B52D4208F0002E30E4258D319030D6259F
:101B4A008D31F1005B08F000023EDD258D31DE00AB
:101B5A005C08F1005B08F000033EDD25DF000800A9
:101B6A00DD010800033042020318B52D4208F000D7
:101B7A002830E4258D319030D6255B0884005C0836
:101B8A0085000008DE00DF0108004308013A031956
:101B9A00932D033A03199B2D013A0319B72DB52D3D
:101BAA000800713D8500003FDB00013FDC000800B2
:101BBA00840071080318710A850000080800F10101
:101BCA00F035F10D70078400080020000E30DD1793
:101BDA00FB009930FA00FC017A0886007B0887002E
:101BEA008101FA0A0319FB0AFC0A0319F12D2030B4
:101BFA00F001F101F200F3013E268D313D000E178E
:101C0A00FD017D084D3E86000130870081017D0877
:101C1A004F3E860002308101FD0A7D02031C062E1A
:101C2A00EF30F001F101F201F20AF3013E268D31A3
:101C3A003D000E1328302000D2002030D800D900F1
:101C4A0042082100EE00EE08031D2F2E103020005E
:101C5A00D50008002000EE30E101E10AE201E300CC
:101C6A00E401E40AE5018531162520302000D5007B
:101C7A000800F400F5000130F2020030F33B720A6A
:101C8A000319730A0319080075088600870170088A
:101C9A008100F50A402E5208860000308701011B98
:101CAA000130F3000430D2065508083A031D692EA4
:101CBA0042087F393D00960016080319662E103037
:101CCA00672E04302000D500570B922E4830F100C1
:101CDA00F2015208023E860087017108C03F72086D
:101CEA00C13F16278E3121006B08023A031D832E4D
:101CFA00200052088600043087016C2FF308031D68
:101D0A008C2E200052088600483087016C2F200054
:101D1A0052088600083087016C2F2200C91F9C2EAA
:101D2A004C0803199B2E4C088E319A2EC913200099
:101D3A00D70108003D000E122000DD1BC02E220034
:101D4A00C91FB32E02302000D7002100E108031D6D
:101D5A00AF2EDE262100E301E20108002000590A25
:101D6A005B278E310C308100590886008117520892
:101D7A00860004306C2FC01FD32ED701D70A21004A
:101D8A00E008031DCA2EDE268E312100E301E2019E
:101D9A002000D408031D08008531F62D0230D70033
:101DAA00590A5B278E310430810059088600811751
:101DBA00CA2EE001E10120005708023A031DF82E5D
:101DCA00590A86000830870181004830F100F20183
:101DDA005908023E86007108C03F7208C13F59087F
:101DEA0086004830FB2F5F084702031DFE2E5E085F
:101DFA0046020318042F4708DF004608DE001627AC
:101E0A008E314830F100F20120005208023E86006D
:101E1A0087017108C03F7208C13F520886004830E6
:101E2A006C2F0830F00000305F02083003195E02A0
:101E3A0003182C2F5E08F0002100EB08031D282F41
:101E4A00EB01EB0A2C2F6B0B2C2F0230EB007008E6
:101E5A002000DE02031CDF03520A86008701700895
:101E6A00810048302100E80020005D1C3F2F452FEB
:101E7A0049278E31F008031908003D2F49278E3172
:101E8A00F00803190800432F21006808860087011B
:101E9A0020005B0884005C08850000088100DB0ADA
:101EAA000319DC0A2100E80AF0030800860008305A
:101EBA00870181004030F300F4015908023E860090
:101ECA007308C03F7408C13F5908860008008100A2
:101EDA0052088600811708005708023A031D762F18
:101EEA008E2FD7012200D508031D8C2F2000EB2747
:101EFA008E314030F600F7015908023E8600760816
:101F0A00C03F7708C13F590886000C30FB2FD50126
:101F1A000800580886008701413FF500F200F301E6
:101F2A00730822004B02031D9C2F72084A020318F1
:101F3A00A02F4A08F5007508CA02031CCB03F40156
:101F4A00750874020318B52F4708860087017408BC
:101F5A00483E8400850100088100C70AF40AA52FBB
:101F6A000330473E8600013087001600010403193A
:101F7A00D02F2000EB278E314830F1278E315808B8
:101F8A0086005908011BCC2F86004830FB2F86009B
:101F9A0008308701FB2F2000EB278E314030F127D4
:101FAA008E3159088600043081005908860081174D
:101FBA0022004C080319E42F4C088F31E32FC91370
:101FCA002000D408031D08008531F62D590A860021
:101FDA000830870181000800F200F3015908023E27
:101FEA0086007208C03F7308C13F08008100590883
:101FFA0086008117080000343F3418341834183426
:10200A001834473418341834183418341834183437
:10201A00183444344534463431343234183418349C
:10202A003034413442344334183418343634383472
:10203A0034343B343D344034333435343734393432
:10204A003A343C343E34F534903495349034C934BF
:10205A009034303490340934023465340034023414
:10206A0001340034C03432340934043400340034C6
:10207A000034013401340034003409342434013486
:10208A00003401340934003401340134093404348D
:10209A000134003402340134033400340034073488
:1020AA0024340134003401344134003406342434F5
:1020BA000234013401340034063424340234023444
:1020CA00023400340934243403340134033401342F
:1020DA00023401340034093424340334023404341D
:1020EA000134013401340034093405340134023432
:1020FA0040340034003400340034053425340134CB
:10210A000134013409340534813402344034003452
:10211A0000340034003405342534013401340334E6
:10212A00343403344D3400346934003463340034B5
:10213A00723400346F340034633400346834003449
:10214A006934003470340034203400345434003498
:10215A006534003463340034683400346E34003437
:10216A006F3400346C3400346F3400346734003414
:10217A007934003420340034493400346E34003465
:10218A00633400342E3400341A3403344D340034AA
:10219A00493400344434003449340034203400349F
:1021AA004534003478340034613400346D340034FA
:1021BA00703400346C340034653400341234013421
:1021CA00003402340034003400340834D83404347F
:1021DA0059340034023400340134023400340134F6
:0A21EA0004340334093404340034D3
:020000040001F9
:04000E00E4CFCFDF8D
:00000001FF
