:0400000080310D2816
:100008007E14803120007F08F0007008FF007E1009
:10001800090080310F28FC01EB01EC01ED01EE0134
:10002800EF01E03084000030850010308931032171
:10003800803120308400013085004B308931032124
:100048008031A430840001308500273089310321B4
:10005800803120308400023085004E308931032100
:100068007E10200089317A29203020006D02031C7F
:1000780008003D008E18080022005F080319522866
:100088005F0886008701010D010D01392000E1009C
:10009800E2016108E3006208E40055282000E3015A
:1000A800E40163086404031D6B28F101A030F20029
:1000B8000030F3004030E1006108F40001308C3179
:1000C8005B2480312000E20062082200DF003C301F
:1000D8002000E1006108E900EA016A30E1006108F6
:1000E800DB006930853152258031003A0319B12887
:1000F80000302300A3000030A2000030A10000302F
:10010800A0000F30A0052008F0390938A000903071
:100118002000E10061082300A10020006908E10037
:1001280061082300A20020006A08E100610823009A
:10013800A300F101F10AA030F2000130F30004300D
:100148002000E1006108F40001308C315B2480312B
:100158002000E20062082100E800013089315021C6
:100168008031003A0319162921006A08031D080086
:100178002200670803190800210068080319D2281B
:10018800680886008701010D010D01392000E10092
:10019800E2016108E5006208E600D5282000E501D3
:1001A800E60165086604031D08006430E100610883
:1001B8002100EA0000302300A3000030A200003034
:1001C800A1000030A0000F30A0052008F039093840
:1001D800A00090302000E10061082300A100210068
:1001E8006B082000E10061082300A2007F30200096
:1001F800E10061082300A300F101F10AA030F20038
:100208000130F30004302000E1006108F4000130FF
:100218008C315B242000E20062082100E800220003
:10022800E701080021006A08031D0800220067088A
:10023800031D080021006808031930296808860092
:100248008701010D010D01392000E100E20161087B
:10025800E7006208E80033292000E701E8016708A1
:100268006804031D08006430E10061082100EA0009
:1002780000302300A3000030A2000030A1000030AD
:10028800A0000F30A0052008F0390938A0009030F0
:100298002000E10061082300A10021006B08200074
:1002A800E10061082300A20001302000E10061089C
:1002B8002100EB072300A301493021006B06031D31
:1002C8006B293C302000E10061082100EB00F101BE
:1002D800F10AA030F2000130F30004302000E10000
:1002E8006108F40001308C315B242000E2006208D0
:1002F8002100E8002200E701E70A08002000420385
:10030800031D982940081F39003A031D9829210028
:10031800E217033020004106031D96292200DB0165
:10032800DB0A98292200DB0120004208031D08008F
:1003380040081F39023A031D080044080F39003AE3
:100348000319080044080F39DA0002305A0203186A
:10035800080020306D06031D08002100E217200068
:10036800C41BC42944080F39583E86000130870051
:100378000108DA005A08DF0044080F39543ED02932
:1003880044080F396B3E860087010108DA005A08D5
:10039800DF0044080F39523E86000130870001080B
:1003A800DA005A08DE005E18DE29FB30DA005A0847
:1003B800DF05DF295F15C41BEA295F08DA00440856
:1003C8000F39583E860001308700F1295F08DA00AE
:1003D80044080F396B3E860087015A0881000330B4
:1003E8004106031D122A5F0886008701811F092A1A
:1003F800C41B022A44080F39543E052A44080F3901
:10040800523E86000130870081145F08860087010C
:1004180001155F0886008701811708000430DA009B
:100428005A08DF065F0886008701811F362A7F3059
:10043800DA005F08860087015A0881055F08860090
:10044800870101170030D6000530D5005F08DA00B3
:100458005A08D7000130D8000030D9008B31492321
:1004680081313B2A20005F0886008701011704308C
:100478002000DA005A08DF06DE18472A5F088600DF
:100488008701811F6B2AC41B4D2A44080F39543E2B
:10049800502A44080F39523E8600013087008110E7
:1004A8003B30DA005F08860087015A088105003072
:1004B800D6000530D5005F08DA005A08D7000130A9
:1004C800D8000030D9008B3149238131732A3B3061
:1004D8002000DA005F08860087015A08810520009D
:1004E80044080F39983EDA00DB010E30DB3D5A082C
:1004F800DC005B08DD00FE30DA005C0886005D0881
:1005080087005A08810508003F3418341834183415
:100518001834473418341834183418341834183444
:1005280018344434453446343134323418341834A9
:10053800303441344234433418341834363438347F
:1005480034343B343D34403433343534373439343F
:100558003A343C343E348034833420348334543445
:100568008334BB3482340A34053407340034093404
:10057800023465340034023401340034C034323477
:1005880009340434003400340034013401340034B4
:10059800003409342434013400340134093400347B
:1005A8000134013409340434013400340234013490
:1005B8000334003400340734243401340034013463
:1005C8004134003406342434023401340134003414
:1005D8000634243402340234023400340934243416
:1005E800033401340334013402340134003409344F
:1005F8002434033402340434013401340134003423
:1006080009340534013402344034003400340034F1
:1006180000340534253401340134013409340534F7
:10062800813402344034003400340034003405345A
:100638002534013401340334343403344D34003464
:100648006934003463340034723400346F34003455
:10065800633400346834003469340034703400344E
:1006680020340034543400346534003463340034A6
:10067800683400346E3400346F3400346C34003421
:100688006F34003467340034793400342034003453
:10069800493400346E340034633400342E3400346A
:1006A8001A3403344D3400344934003444340034AB
:1006B800493400342034003445340034783400346C
:1006C800613400346D340034703400346C340034D8
:1006D80065340034123401340034023400340034F8
:1006E80000340834D8340434593400340234003423
:1006F800013402340034013404340334093404343A
:1007080020006D08031D982B3D008E0192011630C4
:1007180091009F3097007B3092008E19952B8E1593
:10072800912B2000ED01ED0A6D03031DA72B3D0061
:100738008E1AA72B90019201121412160230200073
:10074800E6006608ED003D001019121DB42BFB30C1
:100758002000E60066083D0090058A312422833196
:100768003D008E1CBA2B2000121108001018121C14
:10077800CA2B8531FF25833104302000E600660846
:10078800ED00FE30E60066083D009005101A121EC6
:10079800D02B8931902183313D00101FF72B121F78
:1007A800E22B73302000D5000030D600D70101308D
:1007B800D8000030D9008B3149238331BF30200065
:1007C800E60066083D0090058931A72183312200A3
:1007D80062080319F12B0130E2026208031DF72BAE
:1007E8008D31BB2583313D00901A921EFE2B8A3134
:1007F8009B2283313D009018921C112CFF30200061
:10080800D5007F30D600D7010130D8000030D9009C
:100818008B31492383313D009301043020006D0260
:100828000318182C121108003D00921D702C20008E
:10083800E801043068020318702C3D00901D702CEC
:100848000F082000E6006608EF006F0CE600E60CD3
:10085800660C0F39E70067082200E400F730200033
:10086800E60066083D00900520006F193F2C220025
:100878006408543E422C22006408523E860001302F
:100888008700010801392000E6000130E60601086A
:100898006606FE396606810022006408031D582C8E
:1008A8008E3192268331672C72302000D5000030BB
:1008B800D6006F30E6006608D7000030D800D900AF
:1008C8008B314923833101302000E6006608E807B0
:1008D80004306802031C212C20001211080020009B
:1008E800DA00B7308400823085000008F40072080E
:1008F80074020318812C0130822C0030F500F601B7
:100908007508D0007608D100B730840082308500A1
:100918000008F400730874020318942C0130952C15
:100928000030F500F6017508D2007608D3002200E1
:10093800D601D7012000520853040319B02C5A08D5
:10094800A43E86000130870081010130F4005A0876
:10095800473E86000230BC2C5A08473E86000230CB
:10096800870081010130F4005A08A43E8600013056
:100978008700740881075A08473E860002308700BE
:10098800B93084008230850000080102031CCE2C97
:100998000130CF2C0030F4007408D8005A08A43E67
:1009A800860001308700B830840082308500000856
:1009B8000102031CE12C0130E22C0030F400740821
:1009C800D600D701D70A5808031DF82C5808031D6C
:1009D800F72C5608031DF72C5A08203E86000130D4
:1009E800870001080319D7015708F4007408D900D3
:1009F8005908031D012D0130022D0030F4005A085A
:100A0800203E8600013087000108031D0D2D0130AE
:100A18000E2D003074060319472DBA308400823039
:100A280085000008F4005A08883E840082300318C4
:100A3800013E850000087407F50075082200D600FD
:100A480020005908031D2B2DD401D501362D73081C
:100A5800F400F501F435F50D7408053ED4000030B6
:100A6800753DD5005408F40074082200D700200012
:100A780059080319442D01308931D8218431472D73
:100A880001308931BF2120005908F4005A08203E5E
:100A98008600013087007408810008002000E0000B
:100AA8002200D701D60120005B088600870181015A
:100AB800600886008701810122006508031D672DF3
:100AC8008A315B228531893133218531003A031916
:100AD800DA2D00300800F101F10A003089313E2199
:100AE80085312200EA01EA0A893128218531E52D7C
:100AF800F101F10A003089313E2185310230FB00D5
:100B08007B082200EA00893128218531E52D8831CA
:100B1800FE208531FB007B08F100013089313E2140
:100B280085310330FB007B082200EA008931282147
:100B38008531E52DF101003089313E21853189313A
:100B4800102185310430FB007B082200EA0089313E
:100B580028218531E52D893109218531003A031D88
:100B6800B72D0430B82D05302000DC000030DD0042
:100B78005C08D52D893165218531FB007B08F7009C
:100B88008831FB2085318B3119238531003A031DCB
:100B9800CF2D0230D02D01302000DE000030DF00E4
:100BA8005E08FB007B082200EA00E52D22006A08A7
:100BB8008400063004020318E52D883104351A3EF6
:100BC800820022005608FB0020006008860087018A
:100BD8007B08810022005708FB0020005B08860084
:100BE80087017B088100220056080319FD2D01307A
:100BF800080000300800210012113D009301900107
:100C080098010E30F3009930F200F4017408031DC6
:100C18001D2E720886007308870081010130F207D3
:100C28000030F33D0130F1007108F407740803192E
:100C38000D2E16303D0091009F3097007B309200BA
:100C4800F501083075020318422E7508F1000130CD
:100C5800F135FF3E031D2C2E7135203E860087019D
:100C68000030C03F0030C13FC23FC33F0130F100F8
:100C78007108F50708307502031C292E3D000E1770
:100C880096010E120E13F730F1007108900521003D
:100C9800E2012200C901CA01CB013D009019472E8B
:100CA8000130F10071082200E0000130F100710804
:100CB800E100DD01DE01DC01F501023075020318F7
:100CC800842E75086B3E8600870181017508583EA1
:100CD80086000130870081017508523E8600013088
:100CE800870081017508543E860001308700810124
:100CF8000130F1007108F50702307502031C652EFA
:100D08002830F10071082000EB0016303D009800F3
:100D180000302000A3004030A2000830A1000430B9
:100D2800F1007108A000A0172100EE010030220098
:100D3800D1000030D0000030CF000030CE00E301F9
:100D48002000ED01080020006E0886008701413F61
:100D5800F6007608F300F401740822004B02031D24
:100D6800B72E73084A020318BD2E4A08F300730809
:100D7800F6007608F300F4017308CA027408CB3B46
:100D8800F501760875020318DD2E7508483E8600C1
:100D980087010108F300470886008701730881006E
:100DA8000130F3007308C7070130F3007308F50733
:100DB800C52E4A084B040319122F0830F3007C0A89
:100DC80086008701730881004830F3000030F40082
:100DD8007C08023E860087017308C03F7408C13F43
:100DE80020006E0886008701011B062F4830F3009B
:100DF8007C0886008701730881007C0886008701CB
:100E0800811708000830F3007C0886008701730802
:100E180081007C0886008701811708000830F300EC
:100E28007C0A86008701730881004030F300003097
:100E3800F4007C08023E860087017308C03F7408EE
:100E4800C13F0430F3007C088600870173088100E5
:100E58007C088600870181172200C91321006708D2
:100E6800031D08008D31BB2508003D000E1221002E
:100E7800E21B7B2F2200C91F502F0230F600760894
:100E88002100E90022005E08031D4C2F8C31AB24A1
:100E98002200E101E00108000830F6007C0A860023
:100EA8008701760881004030F6000030F7007C08A2
:100EB800023E860087017608C03F7708C13F0C30A4
:100EC800F6007C0886008701760881007C08860089
:100ED800870181170430F60020006B08860087011F
:100EE800760881006B0886008701811708002000BA
:100EF800C01F922F2100E901E90A22005D08031DA5
:100F0800882F8C31AB2487312200E101E0012100D8
:100F18006708031D08008D31BB2508000230F60064
:100F280076082100E9000830F6007C0A860087016F
:100F3800760881004030F6000030F7007C08023E59
:100F4800860087017608C03F7708C13F0430F60065
:100F58007C0886008701760881007C088600870166
:100F680081172200E101E00121006708031D080044
:100F78008D31BB2508002100EC01E7012200DD01CD
:100F8800DE01DA012100E9017F302000E1006B0871
:100F980086008701610881050430E1006108EB06DD
:100FA8007F30E1006B088600870161088105043005
:100FB800E1006108EB067F30E1007C0886008701CC
:100FC800610881052100E201E301E4012200C90171
:100FD800CA01CB018C31FF24873100302000D600B4
:100FE8000330D500D7010030D800D9008B31492310
:100FF80087318731392708008D311F2D8D31222DFA
:101008008D31532D8D31222D8D31532D8D31072D5D
:101018008D310F2D8D313D2D8D31152D8D31122DA9
:101028008D31252D8D31312D8D31532D85316F2DFC
:1010380085317C2D85318B2D85319E2D8531AF2DC8
:101048008531BE2D8A31092A8931F3298931F6295A
:101058008931F9298931FC298931F0298931DA293D
:101068008931DD298931E0298931E3298931D72975
:101078008931C1298931C4298931C7298931CA29C6
:1011F60021001C08080022000E0E890C0139080087
:10120600640080010131890B042900340310210098
:101216009D1C03140030093D080021001D08833978
:101226001C389D009D14080021006A080319080057
:101236000130EA020800F1007108003A0319272973
:10124600013A03192729272908002200E801E80A9C
:101256002100951295158B120B112000950108009F
:10126600F10122006808031D0B193B29F101F10A5F
:101276007108E8000800F2007208031945292200E7
:101286000E16472922000E12710803194D29220055
:101296008E16080022008E120800F1005B2903104A
:1012A60020008C1D03140030093D080000300800A2
:1012B6007108003A03195929013A03195229632979
:1012C600003008000130F10071082200E9072730DC
:1012D6006902031C7029013071290030F20072087E
:1012E600F300273069020318E9017308080000308B
:1012F6008A313F2289318531FF2589318331842323
:101306008931203020006D02031C81293D008E1892
:10131600812980313820893181293D001215EF302D
:10132600FB007B0890058E142200DC01DC0AE30139
:1013360075302000D5000030D600D7010030D80027
:10134600D9008B314923080001302200CE07003036
:10135600CF3D0030D03D0030D13D5C08031D080074
:101366000130F1007108E3076308031D0800FF3030
:10137600F1007108E3000800F100CD2922000E11EA
:10138600080022008E10080022000E11080022001C
:101396008E11080071088400053004020318080045
:1013A600883104353A3E82000800F100E629220021
:1013B6000E15080022008E14080022000E150800E3
:1013C60022008E15080071088400053004020318F7
:1013D600080088310435303E82000800F100FF29FC
:1013E60021000E11080021008E10080021000E11A8
:1013F600080021008E1108007108840005300402DF
:101406000318080088310435263E82000800F700DC
:101416007708F5007508F6000130F3020030F43B5A
:10142600730A0319740A031908007108F50076088F
:1014360086008701750881000130F5007508F607FA
:101446000F2A2200DC0174302000D5000030D600BF
:10145600D7010030D800D9008B3149238A313D00AD
:101466008E101211101D3C2AFB30FB007B089005E4
:10147600352A2200E3010800F2004F2AFC30210041
:101486009900903027009B0001308931F1218A3183
:10149600013089311E2108007208003A0319412AD9
:1014A600013A03195A2A033A03195A2A5A2A0800F2
:1014B6002200E501E50A21008E150E128E12230088
:1014C6008C018E1522000E128E1223000C122100A2
:1014D6000C1611131D149E131E088F3960389E00BA
:1014E600FC309E058F309F0508002000D200781D35
:1014F600812AF10152088B3182238A31F81C892A0C
:10150600F101F10A200052088B3182232000520893
:10151600983EF900FA010E30FA3D7908D0007A08B3
:10152600D10050088600510887007808810008001D
:101536003D00181CBA2A20006E08860087018030FC
:101546000106031DB82A6B08860087018430010650
:10155600031DB82A0C30F1006E0886008701710859
:1015660081006E088600870181173D001810DF3064
:10157600F1007108900508002100E8012200DF0152
:101586003C302000D30053082100EB002200E70185
:10159600E70A2100EA011E302000D3005308F800B4
:1015A60001308A3178228A31F101A030F200003010
:1015B600F30040302000D3005308F40001308C3192
:1015C6005B242000D40054082200DF00080002300B
:1015D60021006906031DF22A8631A726080021008C
:1015E600E90122005A08031D172B0830F7007C0A70
:1015F60086008701770881004030F7000030F80048
:101606007C08023E860087017708C03F7808C13F04
:101616000C30F7007C0886008701770881007C087B
:101626008600870181170800DA010800FA00210008
:101636006D08203E8600023087000108F800780811
:10164600F2007A08F9007908F3006D0884317324F2
:101656008B317A08F80021006D08203E86000230A2
:101666008700780881000130F8007808ED072730F8
:101676006D020318412B77080319422BED016D0803
:10168600031D472B0130080000300800592B8B3111
:10169600C1238B318931172108008B31C123080002
:1016A6008B31C12308008A31BF220800200056086A
:1016B600003A0319622B7F3A03197C2B812B5508BC
:1016C600013A0319562B033A0319812B013A0319E0
:1016D600812B063A0319812B773A0319812B013A9C
:1016E60003194A2B073A0319532B013A0319502BB6
:1016F600812B5508FF3A0319812B812B0800F60030
:101706002030F2007208F7007108F2000130F2355D
:10171600890B8A2B7608F3000130F335FF3E031D53
:10172600902B73357207F4000130F435FF3E031D2C
:10173600982B7435F5007508F7077708860087013A
:1017460081137108031DAF2B7708F2007608583E07
:10175600860001308700B52B7708F20076086B3ECD
:1017660086008701720881007708860087010113C9
:101776007708043E86008701011708003D008E1C8D
:10178600022C01308931BF2108002100650366045F
:10179600031DD22B01308931D8218B31082C4B30D7
:1017A600210065066604031DDD2B01308931BF214A
:1017B6008B31082C0030210066029730FB2B21006C
:1017C60065036604031DEC2B01308931D8218B316A
:1017D600082C3230210065066604031DF72B013004
:1017E6008931BF218B31082C033021006602B730C6
:1017F60003196502031C082CE501E601082C2000EC
:101806006D08203A0319C82BE22B01302100E507A9
:101816000030E63D08002000C801C901422C210025
:10182600E21722005B03031D4E2C2000C8144E2C29
:101836002100E2174E2C2100E2172000C41B2A2C9F
:1018460044080F39583E8600013087002F2C440883
:101856000F396B3E860087010108F1007108F2001E
:10186600720886008701811F4E2C72088600870148
:10187600011D4E2C0130F1007108C8004E2C4008A5
:101886001F39003A0319122C013A03191B2C033A8B
:1018960003191E2C4E2C2100E21F08004830E000E0
:1018A6000030E10062140230F1007108E300080024
:1018B600F70071080319642C77086B3E86008701D0
:1018C600692C7708583E8600013087000108F5002C
:1018D6007508F8007808031D722C00300800FF30E8
:1018E6007205F5007F307305F6007808023E860023
:1018F60087017508C03F7608C13F7408F500780A6D
:1019060086008701750881004030F500780886005A
:101916008701750881057808860087018115780892
:1019260086008701811771080319A02C0430F50081
:1019360077086B3E86008701A72C0430F5007708F0
:10194600583E860001308700750881067808080031
:101956002200DD01DE01023021006906031DD22CC2
:101966000830F4007C0A860087017408810048303C
:10197600F4000030F5007C08023E860087017408FA
:10198600C03F7508C13F4830F4007C0886008701D7
:10199600740881007C0886008701811708006408A6
:1019A60020004702031DDB2C2100630820004602AD
:1019B6000318E42C47082100E40020004608210013
:1019C600E3008E3123264830F4000030F500200075
:1019D6006B08023E860087017408C03F7508C13F48
:1019E6004830F4006B0886008701740881006B0894
:1019F60086008701811708002000400E890C0339F4
:101A0600003A031D0800482D2100E2170830200087
:101A1600E0006008ED0008008F31022708008F31D2
:101A260081270800EE302100E0000030E10062145A
:101A3600E301E30AE21708008C310E240800813125
:101A46008221080020004408EF3E2100E00000301B
:101A5600E1006214E301E30AE21708002100E2173D
:101A660020004208E0004408EF3E86008701600837
:101A7600810008000030D6000230D500D7010030C2
:101A8600D800D9008B314923080020004108840082
:101A96000D3004020318080088310435003E820028
:101AA600080020006B08860087010030011B01300A
:101AB600F6000430F4007408EB0608306D06031DCA
:101AC600722D42087F393D009600160803196D2DC8
:101AD60010306E2D0430F40074082000ED00210053
:101AE6006903031DB52D4830F4000030F5002000D1
:101AF6006B08023E860087017408C03F7508C13F27
:101B06008E3123268D31023021006C06031D982D5F
:101B16000430F40020006B088600870174088100F9
:101B26006B0886008701811708007608031DA82D1B
:101B36004830F40020006B08860087017408810095
:101B46006B0886008701811708000830F400200022
:101B56006B0886008701740881006B088600870180
:101B6600811708002200C91BC9132100E9010800DA
:101B760022006008031D08000130F1007108E00032
:101B86006108031D08000130F1007108E100023010
:101B960021006906031DE02D20006B0A86008701DF
:101BA60081014830F1006B088600870171088100C9
:101BB6006B08860087018117080021006903031D51
:101BC60008002200DA010830F10020006E0A8600C3
:101BD6008701710881004030F1000030F2006E0884
:101BE600023E860087017108C03F7208C13F04307B
:101BF600F1006E0886008701710881006E08860074
:101C0600870181172200DA01DA0A0830F1007C0A1E
:101C160086008701710881004030F1000030F20033
:101C26007C08023E860087017108C03F7208C13FEA
:101C36008030F1007C088600870171088100080069
:101C46000830F1007108F30000302100640208300A
:101C5600031963020318402E6308F1007108F300AC
:101C66006C08031D392EEC01EC0A402E6C03031D93
:101C7600402E0230F1007108EC007308F100F20109
:101C86007108E3027208E43B7308F10020006B0A56
:101C960086008701710881004830F1007108220032
:101CA600E6002100621C712E8E2E21006008840041
:101CB600610885000008F100220066088600870199
:101CC6007108810001302100E0070030E13D01305C
:101CD600F10071082200E6070130F30273080319C8
:101CE6000800582E2100600884006108850000085D
:101CF600F100220066088600870171088100013024
:101D06002100E0070030E13D0130F10071082200BA
:101D1600E6070130F302730803190800752E2D300B
:101D26002000E20062082200E20020006F08FD3970
:101D3600031DF72E6F363F39E2000130E235FF3ED4
:101D4600031DA12E6235203EE3006308EE006E08F7
:101D5600E2006208FC000430E2006208FC066E083D
:101D660086008701010C890C0F390D3A031DF42EEC
:101D7600E501083065020318E52E6E08023E86006E
:101D86008701403FE200413FE300620886006308A6
:101D960087000108E4006508403E86008701640864
:101DA60081006E08023E86008701013081074131BD
:101DB6000318810A0130E2006208E507083065026F
:101DC600031CC02E4030E2000030E3006E08023EE5
:101DD600860087016208C03F6308C13F8731BF277D
:101DE60008008A31EA220800FD3020006F05E20073
:101DF60004306206031D08008D315425080080302A
:101E060020004006031D0800C030F10071082100C3
:101E1600E200742F6E302100E0008330E1001230C2
:101E2600E3000030E400080020004208031D4A2FAA
:101E36004208F100F201F135F20DB5307107840068
:101E46008230723D8500003F2100E000013FE10045
:101E56006108F2006008F100023071078400720820
:101E66000318720A85000008F3007308E30061088E
:101E7600F2006008F100033071078400720803184D
:101E8600720A85000008F3007308E40008002100C8
:101E9600E201080003302000420203186E2F4208B8
:101EA600F100F201F135F20DAF3071078400823096
:101EB600723D8500003F2100E000013FE10060081F
:101EC6008400610885000008F100F2017108E30052
:101ED6007208E40008002100E20108002100E20186
:101EE600080020004308013A03190D2F033A03198D
:101EF600172F013A03194D2F712F08002100E21701
:101F06000E302000DB009930DA00DC015C08031D8E
:101F16009C2F5A0886005B08870081010130DA078A
:101F26000030DB3D0130FB007B08DC075C08031951
:101F36008C2F0030F100F2002030F3000030F40066
:101F460020308A310A228F313D000E172000DD0134
:101F560002305D020318C32F5D08523E8600013031
:101F6600870081015D08543E8600013087008101AB
:101F76000130FB007B08DD0702305D02031CAF2F3A
:101F86000030F100F2000130F3000030F400EF30D1
:101F96008A310A228F313D000E132830FB007B0860
:101FA6002000EB002030FB007B08EE006E08FB00F3
:101FB6007B08FC004208FB007B082100EE006E084F
:101FC600031DEB2F1030FB007B082000ED000800FE
:101FD60000302000D6000130D500EE30FB007B0833
:101FE600D7000130D8000030D9008B31492320308A
:0A1FF600FB007B082000ED0008004E
:020000040001F9
:04000E00E4CFCFDF8D
:00000001FF
