:0400000080310D2816
:100008007E14803120007F08F0007008FF007E1009
:10001800090080310F28FC01693084000030850018
:10002800073089317A218031E03084000030850042
:10003800103089317A2180312030840001308500E8
:10004800493089317A218031A4308400013085001B
:10005800273089317A2180312030840002308500B0
:100068004E3089317A217E1020008931DC29200028
:100078004203031D512840081F39003A031D512827
:100088002100E217033020004106031D4F282200FB
:10009800DB01DB0A51282200DB0120004208031D96
:1000A800080040081F39023A031D080044080F39A8
:1000B800003A0319080044080F39DA0002305A02DE
:1000C8000318080020306C06031D08002100E21701
:1000D8002000C41B7D2844080F39583E8600013093
:1000E80087000108DA005A08DF0044080F39543E37
:1000F800892844080F39693E860087010108DA001B
:100108005A08DF0044080F39523E86000130870044
:100118000108DA005A08DE005E189728FB30DA007A
:100128005A08DF0598285F15C41BA3285F08DA0062
:1001380044080F39583E860001308700AA285F0816
:10014800DA0044080F39693E860087015A088100A1
:1001580003304106031DCB285F0886008701811FF5
:10016800C228C41BBB2844080F39543EBE28440883
:100178000F39523E86000130870081145F088600DF
:10018800870101155F088600870181170800043080
:10019800DA005A08DF065F0886008701811FEF280A
:1001A8007F30DA005F08860087015A0881055F08FA
:1001B8008600870101170030D6000530D5005F089A
:1001C800DA005A08D7000130D8000030D9008B3146
:1001D80086238031F42820005F08860087010117F4
:1001E80004302000DA005A08DF06DE1800295F080C
:1001F80086008701811F2429C41B062944080F395A
:10020800543E092944080F39523E860001308700C0
:1002180081103B30DA005F08860087015A088105A3
:100228000030D6000530D5005F08DA005A08D7003C
:100238000130D8000030D9008B31862380312C2939
:100248003B302000DA005F08860087015A088105E4
:10025800200044080F39983EDA00DB010E30DB3D00
:100268005A08DC005B08DD00FE30DA005C08860016
:100278005D0887005A08810508003F34183418348F
:1002880018341834473418341834183418341834D7
:10029800183418344434453446343134323418343C
:1002A8001834303441344234433418341834363432
:1002B800383434343B343D344034333435343734D3
:1002C80039343A343C343E3439348234D934813484
:1002D8000D348234743481340A34053407340034DC
:1002E8000934023465340034023401340034C03433
:1002F8003234093404340034003400340134013415
:10030800003400340934243401340034013409340D
:100318000034013401340934043401340034023423
:1003280001340334003400340734243401340034F5
:1003380001344134003406342434023401340134A5
:1003480000340634243402340234023400340934CC
:1003580024340334013403340134023401340034C6
:1003680009342434033402340434013401340134AC
:100378000034093405340134023440340034003484
:10038800003400340534253401340134013409348F
:1003980005348134023440340034003400340034ED
:1003A80005342534013401340334343403344D34F2
:1003B80000346934003463340034723400346F34E8
:1003C80000346334003468340034693400347034E1
:1003D8000034203400345434003465340034633439
:1003E8000034683400346E3400346F3400346C34B4
:1003F80000346F34003467340034793400342034E6
:100408000034493400346E340034633400342E34FC
:1004180000341A3403344D3400344934003444343D
:1004280000344934003420340034453400347834FE
:100438000034613400346D340034703400346C346A
:10044800003465340034123401340034023400348A
:10045800003400340834D8340434593400340234B5
:1004680000340134023400340134043403340934D0
:10047800043420006C08031D512A3D008E019201AE
:10048800163091009F3097007B3092008E194E2ACB
:100498008E154A2A2000EC01EC0A6C03031D602A21
:1004A8003D008E1A602A9001920112141216023031
:1004B8002000E6006608EC003D001019121D6D2AA8
:1004C800FB302000E60066083D0090058A31862250
:1004D80082313D008E1C732A20001211080010186A
:1004E800121C832A85319D25823104302000E600C4
:1004F8006608EC00FE30E60066083D009005101A1C
:10050800121E892A8931F22182313D00101FB02A3A
:10051800121F9B2A73302000D5000030D600D70167
:100528000130D8000030D9008B3186238231BF30AA
:100538002000E60066083D0090058A3109228231D4
:10054800220061080319AA2A0130E1026108031D8B
:10055800B02A8E313A2682313D00901A921EB72A6F
:100568008731DC2782313D009018921CCA2AFF305F
:100578002000D5007F30D600D7010130D8000030E8
:10058800D9008B31862382313D009301043020004D
:100598006C020318D12A121108003D00921D292B64
:1005A8002000E801043068020318292B3D00901D43
:1005B800292B0F082000E6006608EF006F0CE60004
:1005C800E60C660C0F39E70067082100EA00F730EF
:1005D8002000E60066083D00900520006F19F82A03
:1005E80021006A08543EFB2A21006A08523E860010
:1005F80001308700010801392000E6000130E606D5
:1006080001086606FE396606810021006A08031D96
:10061800112B8F3111278231202B72302000D50009
:100628000030D6006F30E6006608D7000030D800EA
:10063800D9008B318623823101302000E60066081C
:10064800E80704306802031CDA2A200012110800A7
:10065800203020006C02031C08003D008E180800A2
:10066800210067080319462B670886008701010DDA
:10067800010D01392000E100E2016108E300620890
:10068800E400492B2000E301E40163086404031D2E
:100698005F2BF101A030F2000030F3004030E100A0
:1006A8006108F40001308C31DA2483312000E20043
:1006B80062082100E7003C302000E1006108E70003
:1006C800E8016830E1006108DB0067308431F0241C
:1006D8008331003A0319A52B00302300A300003012
:1006E800A2000030A1000030A0000F30A0052008B3
:1006F800F0390938A00090302000E100610823009B
:10070800A10020006708E10061082300A200200082
:100718006808E10061082300A300F101F10AA03094
:10072800F2000130F30004302000E1006108F40019
:1007380001308C31DA2483312000E2006208210084
:10074800E80021006B08031D080022006508031D4E
:100758000800210068080319BF2B68088600870174
:10076800010D010D01392000E100E2016108E500F9
:100778006208E600C22B2000E501E6016508660470
:10078800031D08006430E10061082100EB0000301F
:100798002300A3000030A2000030A1000030A00018
:1007A8000F30A0052008F0390938A000903020004B
:1007B800E10061082300A10021006C082000E1008D
:1007C80061082300A20001302000E1006108210037
:1007D800EC072300A301493021006C06031DFA2B06
:1007E8003C302000E10061082100EC00F101F10A31
:1007F800A030F2000130F30004302000E10061086D
:10080800F40001308C31DA242000E2006208210073
:10081800E8002200E501E50A08002000DA0070304F
:100828008400813085000008F400720874020318FF
:100838001F2C0130202C0030F500F6017508D0007F
:100848007608D10070308400813085000008F400FB
:10085800730874020318322C0130332C0030F50071
:10086800F6017508D2007608D3002200D601D70118
:1008780020005208530403194E2C5A08A43E86003F
:100888000130870081010130F4005A08473E860094
:1008980002305A2C5A08473E8600023087008101F0
:1008A8000130F4005A08A43E86000130870074081D
:1008B80081075A08473E860002308700723084005C
:1008C8008130850000080102031C6C2C01306D2C5E
:1008D8000030F4007408D8005A08A43E860001309D
:1008E8008700713084008130850000080102031CF4
:1008F8007F2C0130802C0030F4007408D600D7011A
:10090800D70A5808031D962C5808031D952C56081D
:10091800031D952C5A08203E8600013087000108E7
:100928000319D7015708F4007408D9005908031DA2
:100938009F2C0130A02C0030F4005A08203E86007D
:10094800013087000108031DAB2C0130AC2C0030AE
:1009580074060319E52C7330840081308500000883
:10096800F4005A08413E840081300318013E850096
:1009780000087407F50075082200D6002000590801
:10098800031DC92CD401D501D42C7308F400F5013A
:10099800F435F50D7408053ED4000030753DD500DA
:1009A8005408F40074082200D700200059080319DD
:1009B800E22C01308A313A228431E52C01308A3127
:1009C800212220005908F4005A08203E86000130F0
:1009D80087007408810008002000E0002200D70189
:1009E800D60120005B088600870181016008860027
:1009F8008701810122006308031D052D8A31BD226C
:100A080084318931AA218431003A0319782D0030C4
:100A18000800F101F10A00308931B5218431220042
:100A2800E801E80A89319F218431832DF101F10A17
:100A380000308931B52184310230FB007B08220067
:100A4800E80089319F218431832D893175218431D2
:100A5800FB007B08F10001308931B5218431033076
:100A6800FB007B082200E80089319F218431832D17
:100A7800F10100308931B5218431893187218431F0
:100A88000430FB007B082200E80089319F21843173
:100A9800832D893180218431003A031D552D04307E
:100AA800562D05302000DC000030DD005C08732D79
:100AB8008931C7218431FB007B08F7008931722115
:100AC80084318B3156238431003A031D6D2D023059
:100AD8006E2D01302000DE000030DF005E08FB00D4
:100AE8007B082200E800832D220068088400063075
:100AF80004020318832D883104351A3E820022002F
:100B08005608FB0020006008860087017B088100EA
:100B180022005708FB0020005B08860087017B083D
:100B280081002200560803199B2D0130080000306F
:100B38000800210012113D009301900198010E3028
:100B4800F3009930F200F4017408031DBB2D7208FC
:100B580086007308870081010130F2070030F33DF9
:100B68000130F1007108F40774080319AB2D163031
:100B78003D0091009F3097007B309200F5010830CE
:100B880075020318E02D7508F1000130F135FF3EBC
:100B9800031DCA2D7135203E860087010030C03FF5
:100BA8000030C13FC23FC33F0130F1007108F50773
:100BB80008307502031CC72D3D000E1796010E1252
:100BC8000E13F730F100710890052100E2012200B0
:100BD800C901CA01CB013D009019E52D0130F10092
:100BE80071082200DF000130F1007108E000DD012A
:100BF800DE01DC01F501023075020318222E7508AA
:100C0800693E8600870181017508583E86000130DB
:100C1800870081017508523E8600013087008101F6
:100C28007508543E86000130870081010130F100CB
:100C38007108F50702307502031C032E2830F100F5
:100C480071082000E90016303D00980000302000AF
:100C5800A3004030A2000830A1000430F100710860
:100C6800A000A0172100EE0100302200D1000030C2
:100C7800D0000030CF000030CE00E2012000EC01AF
:100C8800080020006D0886008701413FF6007608BD
:100C9800F300F401740822004B02031D552E73085B
:100CA8004A0203185B2E4A08F3007308F600760818
:100CB800F300F4017308CA027408CB3BF501760807
:100CC800750203187B2E7508483E860087010108C7
:100CD800F300470886008701730881000130F3009C
:100CE8007308C7070130F3007308F507632E4A0835
:100CF8004B040319B02E0830F3007C0A86008701E4
:100D0800730881004830F3000030F4007C08023E8C
:100D1800860087017308C03F7408C13F20006D0832
:100D280086008701011BA42E4830F3007C0886004A
:100D38008701730881007C088600870181170800F5
:100D48000830F3007C0886008701730881007C085E
:100D580086008701811708000830F3007C0A8600A6
:100D68008701730881004030F3000030F4007C08EC
:100D7800023E860087017308C03F7408C13F0430F3
:100D8800F3007C0886008701730881007C088600D0
:100D9800870181172200C91320006B08031D080072
:100DA8008E313A2608003D000E122100E21B192F51
:100DB8002200C91FEE2E0230F60076082100E90055
:100DC80022005E08031DEA2E8D312A252200E0014B
:100DD800DF0108000830F6007C0A860087017608E3
:100DE80081004030F6000030F7007C08023E8600A3
:100DF80087017608C03F7708C13F0C30F6007C08B1
:100E080086008701760881007C08860087018117A3
:100E18000430F60020006908860087017608810002
:100E2800690886008701811708002000C01F302F3D
:100E38002100E901E90A22005D08031D262F8D31F2
:100E48002A2586312200E001DF0120006B08031DFE
:100E580008008E313A2608000230F6007608210094
:100E6800E9000830F6007C0A8600870176088100D0
:100E78004030F6000030F7007C08023E860087010B
:100E88007608C03F7708C13F0430F6007C0886002A
:100E98008701760881007C08860087018117220077
:100EA800E001DF0120006B08031D08008E313A269F
:100EB80008002100E2170E302000DB009930DA002C
:100EC800DC015C08031D782F5A0886005B08870040
:100ED80081010130DA070030DB3D0130FB007B087F
:100EE800DC075C080319682F0030F100F20020309D
:100EF800F3000030F40020308A316C2287313D0045
:100F08000E172000DD0102305D0203189F2F5D08D7
:100F1800523E86000130870081015D08543E8600FC
:100F28000130870081010130FB007B08DD070230BA
:100F38005D02031C8B2F0030F100F2000130F3003A
:100F48000030F400EF308A316C2287313D000E13F7
:100F58002830FB007B082000E9002030FB007B08DC
:100F6800ED006D08FB007B08FC004208FB007B08D5
:100F78002100EE006E08031DC72F1030FB007B0810
:100F88002000EC00080000302000D6000130D50019
:100F9800EE30FB007B08D7000130D8000030D900C4
:100FA8008B3186232030FB007B082000EC000800F2
:100FB8003D00181CFB2F20006D088600870180303B
:100FC8000106031DF92F6908860087018430010690
:100FD800031DF92F0C30F1006D0886008701710898
:100FE80081006D088600870181173D001810DF30E9
:100FF800F1007108900508008D319E2D8D31A12DCD
:101008008D31D22D8D31A12D8D31D22D8D31862D61
:101018008D318E2D8D31BC2D8D31942D8D31912DAD
:101028008D31A42D8D31B02D8D31D22D85310D2DE1
:1010380085311A2D8531292D85313C2D85314D2D50
:1010480085315C2D8A316B2A8A31552A8A31582A92
:101058008A315B2A8A315E2A8A31522A8A313C2AAD
:101068008A313F2A8A31422A8A31452A8A31392AE5
:101078008A31232A8A31262A8A31292A8A312C2A36
:1012E40021001C08080022000E0E890C0139080098
:1012F400640080010131890B7B2900340310210033
:101304009D1C03140030093D080021001D08833989
:101314001C389D009D14080021006B080319080067
:101324000130EB020800F1007108003A03199E290C
:10133400013A03199E299E2908002200E601E60AC3
:101344002100951295158B120B11200095010800B0
:10135400F10122006608031D0B19B229F101F10AFB
:101364007108E6000800F20072080319BC29220083
:101374000E16BE2922000E1271080319C429220078
:101384008E16080022008E1208000130F100710848
:101394002200E70727306702031CD2290130D32932
:1013A4000030F2007208F300273067020318E701E7
:1013B4007308080000308A31A122893185319D25C6
:1013C400893182313D228931203020006C02031C96
:1013D400E3293D008E18E32983312C238931E32945
:1013E4003D001215EF30FB007B0890058E1422009F
:1013F400DC01DC0AE20175302000D5000030D600A3
:10140400D7010030D800D9008B3186230800013081
:101414002200CE070030CF3D0030D03D0030D13D1A
:101424005C08031D08000130F1007108E20762083E
:10143400031D0800FF30F1007108E2000800F1000C
:101444002F2A22000E11080022008E10080022000C
:101454000E11080022008E11080071088400053066
:10146400040203180800883104353A3E820008005B
:10147400F100482A22000E15080022008E140800EC
:1014840022000E15080022008E1508007108840041
:10149400053004020318080088310435303E820008
:1014A4000800F100612A21000E11080021008E10AD
:1014B400080021000E11080021008E110800710897
:1014C4008400053004020318080088310435263EE0
:1014D40082000800F7007708F5007508F60001306F
:1014E400F3020030F43B730A0319740A0319080069
:1014F4007108F500760886008701750881000130BF
:10150400F5007508F607712A2200DC01743020000A
:10151400D5000030D600D7010030D800D9008B3177
:1015240086238A313D008E101211101D9E2AFB3035
:10153400FB007B089005972A2200E2010800F200D4
:10154400B12AFC3021009900903027009B00013023
:101554008A3153228A310130893195210800720879
:10156400003A0319A32A013A0319BC2A033A0319BE
:10157400BC2ABC2A08002200E301E30A21008E15DC
:101584000E128E1223008C018E1522000E128E1262
:1015940023000C1221000C1611131D149E131E0897
:1015A4008F3960389E00FC309E058F309F050800FF
:1015B4002000D200781DE32AF10152088B31BF23A9
:1015C4008A31F81CEB2AF101F10A200052088B3110
:1015D400BF2320005208983EF900FA010E30FA3D6C
:1015E4007908D0007A08D100500886005108870095
:1015F4007808810008002100E801E7013C30200060
:10160400D30053082100EC002200E501E50A210083
:10161400EB011E302000D3005308F80001308A315A
:10162400DA228A31F101A030F2000030F3004030B8
:101634002000D3005308F40001308C31DA24200058
:10164400D40054082100E700080002302100690694
:10165400031D2F2B8631452608002100E9012200B5
:101664005A08031D542B0830F7007C0A86008701B2
:10167400770881004030F7000030F8007C08023E13
:10168400860087017708C03F7808C13F0C30F70017
:101694007C0886008701770881007C088600870122
:1016A40081170800DA010800FA0020006E08203EC5
:1016B4008600023087000108F8007808F2007A08F2
:1016C400F9007908F3006E08843111248B317A080B
:1016D400F80020006E08203E86000230870078085B
:1016E40081000130F8007808EE0727306E020318F5
:1016F4007E2B770803197F2BEE016E08031D842BC4
:101704000130080000300800962B8C3140248B31C6
:1017140089318E2108008C31402408008C3140240A
:1017240008008A31FD22080020005608003A0319F7
:101734009F2B7F3A0319B92BBE2B5508013A031985
:10174400932B033A0319BE2B013A0319BE2B063A15
:101754000319BE2B773A0319BE2B013A0319872BC1
:10176400073A0319902B013A03198D2BBE2B550808
:10177400FF3A0319BE2BBE2B0800F6002030F200FE
:101784007208F7007108F2000130F235890BC72B9B
:101794007608F3000130F335FF3E031DCD2B73357E
:1017A4007207F4000130F435FF3E031DD52B743568
:1017B400F5007508F707770886008701811371081B
:1017C400031DEC2B7708F2007608583E86000130A2
:1017D4008700F22B7708F2007608693E86008701BD
:1017E4007208810077088600870101137708043E98
:1017F40086008701011708002100ED012000EB019C
:101804002200DD01DE01DA012100E9017F30200040
:10181400E100690886008701610881050430E10060
:101824006108E9067F30E1006908860087016108E4
:1018340081050430E1006108E9067F30E1007C089D
:1018440086008701610881052100E201E301E401CA
:101854002200C901CA01CB018D317E258B310030B4
:101864002000D6000330D500D7010030D800D900BD
:101874008B3186238B318631D72608003D008E1CA0
:10188400812C01308A31212208002100650366047D
:10189400031D512C01308A313A228C31872C4B3074
:1018A400210065066604031D5C2C01308A31212267
:1018B4008C31872C00302100660297307A2C21006D
:1018C40065036604031D6B2C01308A313A228C3186
:1018D400872C3230210065066604031D762C013006
:1018E4008A3121228C31872C033021006602B730E3
:1018F40003196502031C872CE501E601872C2000EF
:101904006C08203A0319472C612C01302100E507AB
:101914000030E63D08002000C801C901C12C2100A7
:10192400E21722005B03031DCD2C2000C814CD2C2C
:101934002100E217CD2C2100E2172000C41BA92CA2
:1019440044080F39583E860001308700AE2C440805
:101954000F39693E860087010108F1007108F20021
:10196400720886008701811FCD2C720886008701CA
:10197400011DCD2C0130F1007108C800CD2C4008A8
:101984001F39003A0319912C013A03199A2C033A8E
:1019940003199D2CCD2C2100E21F08004830E000E3
:1019A4000030E10062140230F1007108E300080025
:1019B400F70071080319E32C7708693E8600870154
:1019C400E82C7708583E8600013087000108F500AE
:1019D4007508F8007808031DF12C00300800FF306A
:1019E4007205F5007F307305F6007808023E860024
:1019F40087017508C03F7608C13F7408F500780A6E
:101A040086008701750881004030F500780886005B
:101A14008701750881057808860087018115780893
:101A2400860087018117710803191F2D0430F50002
:101A34007708693E86008701262D0430F500770873
:101A4400583E860001308700750881067808080032
:101A54002200DD01DE01023021006906031D512D43
:101A64000830F4007C0A860087017408810048303D
:101A7400F4000030F5007C08023E860087017408FB
:101A8400C03F7508C13F4830F4007C0886008701D8
:101A9400740881007C0886008701811708006408A7
:101AA40020004702031D5A2D21006308200046022E
:101AB4000318632D47082100E40020004608210094
:101AC400E3008E31A2264830F4000030F5002000F7
:101AD4006908023E860087017408C03F7508C13F4B
:101AE4004830F40069088600870174088100690899
:101AF40086008701811708002000400E890C0339F5
:101B0400003A031D0800C72D2100E2170830200009
:101B1400E0006008EC0008008F318127080087315D
:101B24005D270800EE302100E0000030E10062147F
:101B3400E301E30AE21708008C318D2408008031A8
:101B44003B20080020004408EF3E2100E000003064
:101B5400E1006214E301E30AE21708002100E2173E
:101B640020004208E0004408EF3E86008701600838
:101B7400810008000030D6000230D500D7010030C3
:101B8400D800D9008B318623080020004108840046
:101B94000D3004020318080088310435003E820029
:101BA400080020006908860087010030011B01300D
:101BB400F6000430F4007408E90608306C06031DCE
:101BC400F12D42087F393D00960016080319EC2DCB
:101BD4001030ED2D0430F40074082000EC002100D6
:101BE4006903031D342E4830F4000030F500200052
:101BF4006908023E860087017408C03F7508C13F2A
:101C04008E31A2268D31023021006D06031D172E60
:101C14000430F400200069088600870174088100FC
:101C2400690886008701811708007608031D272E9E
:101C34004830F40020006908860087017408810098
:101C4400690886008701811708000830F400200025
:101C54006908860087017408810069088600870185
:101C6400811708002200C91BC9132100E9010800DB
:101C740022005F08031D08000130F1007108DF0035
:101C84006008031D08000130F1007108E000023013
:101C940021006906031D5F2E2000690A8600870162
:101CA40081014830F10069088600870171088100CC
:101CB4006908860087018117080021006903031D54
:101CC40008002200DA010830F10020006D0A8600C5
:101CD4008701710881004030F1000030F2006D0886
:101CE400023E860087017108C03F7208C13F04307C
:101CF400F1006D0886008701710881006D08860077
:101D0400870181172200DA01DA0A0830F1007C0A1F
:101D140086008701710881004030F1000030F20034
:101D24007C08023E860087017108C03F7208C13FEB
:101D34008030F1007C08860087017108810008006A
:101D44000830F1007108F30000302100640208300B
:101D5400031963020318BF2E6308F1007108F3002E
:101D64006D08031DB82EED01ED0ABF2E6D03031D92
:101D7400BF2E0230F1007108ED007308F100F2018A
:101D84007108E3027208E43B7308F1002000690A59
:101D940086008701710881004830F1007108220033
:101DA400E4002100621CF02E0D2F21006008840045
:101DB400610885000008F10022006408860087019C
:101DC4007108810001302100E0070030E13D01305D
:101DD400F10071082200E4070130F30273080319CB
:101DE4000800D72E210060088400610885000008DF
:101DF400F100220064088600870171088100013027
:101E04002100E0070030E13D0130F10071082200BB
:101E1400E4070130F302730803190800F42E2D308F
:101E24002000E20062082200E10020006F08FD3972
:101E3400031D762F6F363F39E2000130E235FF3E55
:101E4400031D202F6235203EE3006308ED006D087A
:101E5400E2006208FC000430E2006208FC066D083F
:101E640086008701010C890C0F390D3A031D732F6D
:101E7400E501083065020318642F6D08023E8600F0
:101E84008701403FE200413FE300620886006308A7
:101E940087000108E4006508403E86008701640865
:101EA40081006D08023E86008701013081074131BF
:101EB4000318810A0130E2006208E5070830650270
:101EC400031C3F2F4030E2000030E3006D08023E67
:101ED400860087016208C03F6308C13F8B31FE233F
:101EE40008008B3127230800FD3020006F05E20035
:101EF40004306206031D08008D31D32508008030AC
:101F040020004006031D0800C030F10071082100C4
:101F1400E200F32F27302100E0008230E10012308C
:101F2400E3000030E400080020004208031DC92F2C
:101F34004208F100F201F135F20D6E3071078400B0
:101F44008130723D8500003F2100E000013FE10047
:101F54006108F2006008F100023071078400720821
:101F64000318720A85000008F3007308E30061088F
:101F7400F2006008F100033071078400720803184E
:101F8400720A85000008F3007308E40008002100C9
:101F9400E20108000330200042020318ED2F42083A
:101FA400F100F201F135F20D6830710784008130DF
:101FB400723D8500003F2100E000013FE100600820
:101FC4008400610885000008F100F2017108E30053
:101FD4007208E40008002100E20108002100E20187
:101FE400080020004308013A03198C2F033A03190F
:0C1FF400962F013A0319CC2FF02F0800A3
:020000040001F9
:04000E00E4CFCFDF8D
:00000001FF
