:10000000803106281C080800803109008C31352C0D
:1000100020004203031D0D280E28222840081F3906
:100020000038031D142815282228DB174108033A3D
:10003000031D1B281C2820282200D601D60A2228AE
:100040002200D60120004208031D2728282817294E
:1000500040081F39023A031D2E282F28172944086B
:100060000F39003A031935283628172944080F3963
:10007000FA0002307A0203183E283F281729530855
:10008000203A031D442845281729DB17C41B49289B
:100090004A285B2844080F39533E86000130870008
:1000A0000108E80044080F394F3E86000130870000
:1000B0000108E7006A2844080F39503E860087018E
:1000C0000108E80044080F394D3E860001308700E2
:1000D0000108E70067186D286E28702868117128DC
:1000E0006815C41B742875287E2844080F39533EB0
:1000F00086000130870068088100852844080F3990
:10010000503E86008701680881004108033A031DBC
:100110008A288B28AE28680886008701811F9128CD
:100120009228A528C41B952896289E2844080F3994
:100130004F3E8600013087008114A52844080F39FE
:100140004D3E8600013087008114680886008701D3
:100150000115680886008701811717290430E80611
:10016000680886008701811FB628B728CB28680851
:100170008600870181136808860087010117053012
:10018000E000E1016808E200E301E30AE4018731ED
:10019000B9278031CF28680886008701011704300D
:1001A0002000E806E718D528D628DD28680886004C
:1001B0008701811FDC28DD280129C41BE028E128F4
:1001C000E92844080F394F3E86000130870081102E
:1001D000F02844080F394D3E860001308700811019
:1001E0006808860087013B3081050530E000E101A9
:1001F0006808E200E301E30AE4018731B9278031AE
:1002000006296808860087013B30810520004408E4
:100210000F39983EFA00FB010E30FB3D7A08E500ED
:100220007B08E60065088600660887000110080064
:100230005008860087010030011B0130F3000430B4
:10024000D0065308083A031D2629272936294208D3
:100250007F393D0096001608031D2F2933291030E1
:100260002000D300362904302000D3005503031D9D
:100270003A293B2977294830F1000030F200500834
:10028000023E860087017108C03F7208C13F8E316F
:100290008026813121006D08023A031D5029512921
:1002A0005C29200050088600870104308100500836
:1002B0008600870181178629F308031D60296129BB
:1002C0006C292000500886008701483081005008C2
:1002D0008600870181178629200050088600870143
:1002E0000830810050088600870181178629220086
:1002F000C91F7B297C2984294C08031D8029832957
:100300004C0881318229C9132000D5010800200042
:100310004008803A031D8D298E29F229C030DB0068
:10032000E729E330D9008230DA001230DC00DD0149
:10033000F2294208031D9D299E29C8294208F00080
:10034000F101F035F10D2E30700784008230713DDF
:100350008500003FD900013FDA005A08F100590832
:10036000F00002307007840071080318710A8500DC
:100370000008DC005A08F1005908F000033070074B
:10038000840071080318710A85000008DD00F22955
:10039000DB01F229033042020318CF29D029C829F2
:1003A0004208F000F101F035F10D283070078400AB
:1003B0008230713D8500003FD900013FDA005908C5
:1003C00084005A0885000008DC00DD01F22943089A
:1003D000013A03199129033A03199929013A03199A
:1003E000CA29C829080085319C2D8531A82D853161
:0E03F000B42D8531C22D8531D12D8531E62DFC
:1004000000343F341834183418341834473418344E
:100410001834183418341834183418344434453423
:1004200046343134323418341834303441344234A0
:100430004334183418343634383434343B343D348F
:10044000403433343534373439343A343C343E3440
:10045000F534823495348234C93482343034823471
:100460000934023465340034023401340034C034B9
:10047000323409340434003400340034013401349B
:100480000034003409342434013400340134093494
:1004900000340134013409340434013400340234AA
:1004A000013403340034003407342434013400347C
:1004B000013441340034063424340234013401342C
:1004C0000034063424340234023402340034093453
:1004D000243403340134033401340234013400344D
:1004E0000934243403340234043401340134013433
:1004F000003409340534013402344034003400340B
:100500000034003405342534013401340134093415
:100510000534813402344034003400340034003473
:1005200005342534013401340334343403344D3478
:1005300000346934003463340034723400346F346E
:100540000034633400346834003469340034703467
:1005500000342034003454340034653400346334BF
:100560000034683400346E3400346F3400346C343A
:1005700000346F340034673400347934003420346C
:100580000034493400346E340034633400342E3483
:1005900000341A3403344D340034493400344434C4
:1005A0000034493400342034003445340034783485
:1005B0000034613400346D340034703400346C34F1
:1005C0000034653400341234013400340234003411
:1005D000003400340834D83404345934003402343C
:1005E0000034013402340034013404340334093457
:1005F000043400342000D308031DFF2A002B122BE3
:100600003D008E019201163091009F3097007B30A3
:1006100092000B2B8E158E1D0E2B0F2B0A2B2000FC
:10062000D301D30A5303031D162B172B232B3D0095
:100630008E1A1B2B1C2B232B9001920112141216C5
:1006400002302000D3003D00101D272B282B302B1B
:10065000121D2B2B2C2B302B10118B312023823190
:100660003D008E1C342B352B382B20001211EE2B25
:10067000101C3B2B3C2B472B121C3F2B402B472B9A
:100680008631AF2682310430D3003D001010101E99
:100690004A2B4B2B522B121E4E2B4F2B522B8A3197
:1006A000B62282313D00101F562B572B792B121F7B
:1006B0005A2B5B2B662B73302000E000E101E20136
:1006C000E301E30AE4018731B92782313D001013C9
:1006D0008731F127823121006608031D702B712BB1
:1006E000E603E608031D752B762B792B8F313C270B
:1006F00082313D00901E7D2B7E2B852B921E812BFF
:10070000822B852B8B31C1238231901C882B892B26
:100710009B2B921C8C2B8D2B9B2BFF302000E00001
:100720007F30E100E201E301E30AE4018731B92708
:1007300082313D0093010430200053020318A12BA5
:10074000A22BA32B352B3D00921DA72BA82B352BBD
:100750002000ED013D00901DAE2BAF2B352B0F0877
:100760002000DF005F0CEC00EC0C6C0C0F3921005A
:10077000E8003D00901120005F19BF2BC02BC92B52
:10078000210068084F3E8600013087000130810655
:10079000D12B210068084D3E8600013087000130D2
:1007A0008106E808031DD52BD62BDA2B8F319E2727
:1007B0008231E52B72302000E000E1015F30E20081
:1007C000E301E4018731B92782312000ED0A0430CA
:1007D0006D02031CEC2BED2BAA2B352B08003C30B3
:1007E0002000EE00EF016F30E1006E3085317C2596
:1007F00083312000ED006D08031DFF2B502C2300DA
:10080000A001A101A201A3010F30A0052008F03929
:100810000938A0009030A10020006E082300A2003B
:1008200020006F082300A30020005308203A03197A
:100830001A2C1B2C202C3D008E1C1F2C202C502CE5
:1008400020005408031D252C2E2C540886008701F7
:10085000010D010D0139E700E801302CE701E80145
:1008600068086704031D352C362C422CF001A0309B
:10087000F1000030F2004030F30001308D31862568
:100880008331D400F001F00AA030F1000130F20011
:100890000430F30001308D31862583312100E700DB
:1008A0002100E908031D552C562CD12CEC08031D02
:1008B0005A2C5B2CD12C6708031D5F2C692C670810
:1008C00086008701010D010D01392000E900EA01D0
:1008D0006C2C2000E901EA016A086904031D712CEF
:1008E000722CD12C64302100E9002300A001A10169
:1008F000A201A3010F30A0052008F0390938A0009B
:100900009030A10021006B082300A2002100EB0A17
:100910002300A30121006B08493A031D902C912C60
:10092000932C3C30EB00EC01EC0A20005308203AF9
:1009300003199B2C9C2CA12C3D008E1CA02CA12CBF
:10094000D12C20005408031DA62CAF2C540886007F
:100950008701010D010D0139EB00EC01B12CEB0118
:10096000EC016C086B04031DB62CB72CC32CF001F2
:10097000A030F1000030F2004030F30001308D3142
:1009800086258331D400F001F00AA030F100013057
:10099000F2000430F30001308D31862583312100CF
:1009A000E7000800FC000B30720200300318013031
:1009B000F400F5012200D101D20175087404031975
:1009C000E22CE32CF02C7C08A43E8600013087004A
:1009D00081017C08473E860002308700810AFC2C9A
:1009E0007C08473E86000230870081017C08A43ED7
:1009F000860001308700810A7C08473E860002306D
:100A0000870007300102003003180130FA007C082B
:100A1000A43E860001308700053001020030031833
:100A20000130F600F701F70AFA08031D182D192DF9
:100A30002E2DFA08031D1D2D1E2D2D2DF608031D2C
:100A4000222D232D2D2D7C08203E8600013087008D
:100A50008108031D2C2D2D2D2E2DF7017708FB006D
:100A60007B08003A0319352D372D0130382D003021
:100A7000F3007C08203E8600013087000108003A20
:100A80000319432D452D0130462D003073060319FF
:100A90004A2D4B2D742D7C08013E840082300318B2
:100AA000013E85000008D100FB08031D582D592D7B
:100AB0005C2DF801F901652D7208F800F901F8358F
:100AC000F90D0530F8070318F90A7808D2007B08F9
:100AD000031D6B2D702D01308A31F4228431742D69
:100AE00001308A31DE2284317C08203E86000130CC
:100AF00087007B0881000800E6002200D201D101B6
:100B00002000610886008701810166088600870150
:100B100081012200D908031D8E2D8F2D922D8B313E
:100B20006B2385318A3196228531003A0319992D3C
:100B30009A2D002E00301C2EF001F00A00308B316F
:100B400051238531DB01DB0A8A318C2285310A2E63
:100B5000F001F00A00308B31512385310230DB0087
:100B60008A318C2285310A2E8A315A228531F00051
:100B700001308B31512385310330DB008A318C22E7
:100B800085310A2EF00100308B31512385318A31B5
:100B90007E22853104302200DB008A318C228531AF
:100BA0000A2E8A315F2285310038031DD82DD92DB8
:100BB000DE2D04302000E200E301E22D05302000AC
:100BC000E200E30162082200DB000A2E8A31A5223E
:100BD0008531FD008031022085318C310C24853136
:100BE0000038031DF42DF52DF92D0230E400E50148
:100BF000FC2DE401E40AE50164082200DB000A2E72
:100C00005B0884000630040203180A2E8131043583
:100C1000F33E82002000660886008701220051080A
:100C200081002000610886008701220052088100AF
:100C30000030D108031D01300800560886008701E6
:100C4000413FF5007508F200F301730822004B02E2
:100C5000031D2C2E72084A0203182F2E302E322E1E
:100C60004A08F5007508CA02031CCB03F401432EA1
:100C70004708860087017408483E84008501000803
:100C80008100C70AF40A75087402031C482E492E15
:100C9000382E0330473E86000130870016000104DD
:100CA0000319532E542E812E2000570A86008701E7
:100CB000083081004830F2000030F3005708023E4F
:100CC000860087017208C03F7308C13F560886003E
:100CD0008701011B6C2E6D2E772E57088600870129
:100CE000483081005708860087018117AE2E5708CB
:100CF0008600870108308100570886008701811728
:100D0000AE2E2000570A860087010830810040304F
:100D1000F2000030F3005708023E86008701720897
:100D2000C03F7308C13F5708860087010430810027
:100D3000570886008701811722004C08031DA12E49
:100D4000A42E4C088631A32EC9132000D208031DFF
:100D5000AA2EAB2EAE2E8F313C2786310800210003
:100D600012113D009301900198010E30F30099306B
:100D7000F200F40172088600730887008101F20A0C
:100D80000319F30AF40A7408031DC72EBA2E16308D
:100D90003D0091009F3097007B309200F50175086F
:100DA00009070907203E860087010030C03F003058
:100DB000C13FC23FC33FF50A08307502031CE12E54
:100DC000E22ECF2E3D000E1796010E120E1390113B
:100DD0002000DB012200C901CA01CB013D009019AE
:100DE000F22EF32EE72E01302100E4000130E50061
:100DF000E201E3012200D701F5017508503E8600AB
:100E0000870181017508533E86000130870081010A
:100E100075084D3E860001308700810175084F3E00
:100E20008600013087008101F50A02307502031C3B
:100E30001A2F1B2FFD2E28302000D00016303D0029
:100E400098004030F0000030F10070082000A2004F
:100E50007108A3000830A1000430A000A017DE0133
:100E60002200D8012000D30108003D000E1220000E
:100E7000DB1B3B2F3C2F762F2200C91F402F412F19
:100E8000512F02302000D5002100E308031D492F17
:100E90004A2F4D2F8D313A2587312100E501E4019C
:100EA000B82F2000570A86008701083081004030A3
:100EB000F3000030F4005708023E860087017308F3
:100EC000C03F7408C13F5708860087010C3081007D
:100ED0005708860087018117500886008701043073
:100EE00081005008860087018117B82FC01F792F15
:100EF0007A2F922FD501D50A2100E208031D812FF8
:100F0000822F852F8D313A2587312100E501E401BB
:100F10002000D208031D8D2F8E2FB82F8F313C2734
:100F20008731B82F0230D500570A86008701083074
:100F300081004030F3000030F4005708023E860084
:100F400087017308C03F7408C13F570886008701B6
:100F50000430810057088600870181172100E501D0
:100F6000E4012000D208031DB62FB72FB82F8E2F13
:100F70000800C92F8E31242687318A318522873196
:100F8000F02F8E3124268731F02F8B31A323873128
:100F9000F02F6108003A0319D12F7F3A0319EB2F84
:100FA000F02F6008013A0319C52F033A0319F02FF7
:100FB000013A0319F02F063A0319F02F773A031973
:100FC000F02F013A0319BA2F073A0319C12F013A3A
:100FD0000319C12FF02F6008FF3A0319F02FF02FEB
:100FE00008002200D708031DF62FF72FFF2FD80A7D
:100FF000D808031DFC2FFD2FFF2FFF30D80008005D
:101000008D310F2D8D31132D8D31392D8D31132DC6
:101010008D31392D8C31FA2C8C31FE2C8D31252DD2
:101020008D31062D8D31022D8D31172D8D311D2DD8
:101030008D31392D8B31092B8A31F62A8A31F92AE3
:101040008A31F62A8A31FC2A8A31F32A8A31E02A47
:101050008A31E32A8A31E02A8A31E62A8A31DD2A76
:101060008A31CA2A8A31CD2A8A31CA2A8A31D02ABB
:1014B40022000E0E890C01390800003021009D1C09
:1014C400013008002400940135309500970108008C
:1014D400640080010131890B6B2A003421000D1650
:1014E4008D160D178D138E1308008A3170228A31E0
:1014F4008A3164228A31080021001D0883391C388E
:101504009D009D14080021006908031D8A2A8B2A66
:10151400E9030800DA01DA0A2100951295158B1205
:101524000B11200095010800F00122005A08031D48
:101534009C2AA22A0B199F2AA02AA22AF001F00AA7
:101544007008DA00080027302100EE0A6E0200302D
:1015540003180130F00027306E02031CB22AB32AAC
:10156400B42AEE0170080800121510128E1422001D
:10157400D701D70AD80175302000E000E101E2016B
:10158400E301E4018731B9278A310800F000D32A46
:1015940021000E11DD2A21008E10DD2A21008E117A
:1015A400DD2A70088400053004020318DD2A88311E
:1015B40004352E3E82000800F000E92A22000E11B4
:1015C400F32A22008E10F32A22008E11F32A7008C7
:1015D4008400053004020318F32A88310435243EBC
:1015E40082000800F000FF2A22000E15092B2200B9
:1015F4008E14092B22008E15092B700884000530E7
:1016040004020318092B883104351A3E82000800AD
:10161400F4007408F500142B75088600870170081F
:101624008100F50A0130F2020030F33B720A03191B
:10163400730A031D1E2B1F2B0E2B08002200D7013B
:1016440074302000E000E101E201E301E4018731AC
:10165400B9278B313D008E101211312B1011101946
:10166400342B352B302B2200D8010800F100452BF8
:10167400FC3021009900903027009B0001308A3112
:10168400C8228B31502B7108003A03193A2B013AC6
:101694000319502B033A0319502B502B0800F20066
:1016A4000030F208031D0130F100F10E22000E0893
:1016B4007106EF3971068E000030F008031D013009
:1016C400F100F10EF10D0E087106DF3971068E007E
:1016D4000800D901D90A21008E150E128E1223009A
:1016E4008C018E1522000E128E1223000C12210082
:1016F4000C1611131D149E131E088F3960389E009A
:10170400FC309E058F309F05080000308B31382354
:101714008B318631AF268B318A3177228B318331FD
:10172400EF238B318231FA228B312030530203189C
:101734009C2B9D2B9E2B912B3D000E08912B8031D1
:1017440006282100E7012000D4013C302100EB00F1
:10175400EC01EC0AE9011E30F40001308B31E52381
:101764008B31F001A030F1000030F2004030F30082
:1017740001308D3186258B312000D4000800181CDF
:10178400C42BC52BE32B20005608860087010108D3
:10179400803A031DCE2BCF2BE12B50088600870106
:1017A4000108843A031DD72BD82BE12B5608860059
:1017B40087010C30810056088600870181173D009F
:1017C400181090120800F900741DE92BEA2BEF2B76
:1017D400F00179088C3160248B31F41CF22BF32B4B
:1017E400F92BF001F00A79088C3160248B317908E7
:1017F400983EF500F6010E30F63D7508F7007608C0
:10180400F8007408F50077088600780887007508E2
:10181400810008002000E0005808203E86000230C5
:1018240087000108F1006008F20058088431D224CE
:101834008C3120005808203E860002308700600862
:101844008100D80A273058020318292C2A2C2E2C60
:101854007D08031D2E2C2F2CD8015808003A003087
:101864000319013008005030840000308500103026
:101874008A316A228C31E0308400003085001030D7
:101884008A316A228C3120308400013085003C305A
:101894008A316A228C31A4308400013085002730DB
:1018A4008A316A228C3120308400023085004E3027
:1018B4008A316A228C3120008B31872BF200203050
:1018C400F3007008F100F135720809070907710780
:1018D40009070907F3077308860087018113F008D5
:1018E400031D752C762C7E2C7208533E8600013025
:1018F400870073088100842C7208503E860087019B
:101904007308810073088600870101137308043E7D
:1019140086008701011708005508023A031D932C1D
:10192400942C982C86311D268C31BC2CD501220098
:10193400D508031D9E2C9F2CBB2C2000570A860023
:101944008701083081004030F6000030F700570866
:10195400023E860087017608C03F7708C13F5708DA
:10196400860087010C3081005708860087018117A3
:10197400BC2CD50108002100ED012000D20121007A
:10198400E201E3012200D5012000D50150088600C0
:10199400870181130430D006500886008701811323
:1019A4000430D0065708860087018113DB01DC016F
:1019B400DD012200C901CA01CB018C31F0248C3134
:1019C40003302000E000E101E201E301E40187319A
:1019D400B9278C31873135278C3108002000400E1F
:1019E400890C0339003A0319F82CF92C2F2D392DC1
:1019F400DB170830D300392D813187218C31392D03
:101A04008E31DE268C31392D5E30D9000030DA007B
:101A14005B14DC01DC0ADB17392D8D31D4258C31C4
:101A2400392D803108208C31392D4408EF3ED900FE
:101A34000030DA000A2DDB174408EF3E86008701E8
:101A440042088100392D0230E000E101E201E301A6
:101A5400E4018731B9278C31392D410884000D30D8
:101A640004020318392D88310435003E8200080031
:101A7400E201E30120005508023A031D422D432DE3
:101A84005E2D570A86008701083081004830F10036
:101A94000030F2005708023E860087017108C03FFB
:101AA4007208C13F570886008701483081005708F3
:101AB400860087018117852D5D084702031D642D6B
:101AC4005C0846020318672D682D6C2D4708DD005D
:101AD4004608DC008E3180268D314830F10000301C
:101AE400F20020005008023E860087017108C03FC2
:101AF4007208C13F500886008701483081005008B1
:101B04008600870181170800F6007008031D8B2DDD
:101B1400922D7608503E860087010108F700992D22
:101B24007608533E8600013087000108F700F70865
:101B3400031D9D2D9E2DA02D0030D32DFF3071054A
:101B4400F4007F307205F5007708023E86008701B5
:101B54007408C03F7508C13F770A8600870173087F
:101B64008100770886008701403081057708860068
:101B74008701811577088600870181177008031D86
:101B8400C42DCB2D7608503E860087010430810693
:101B9400D22D7608533E860001308700043081063A
:101BA400770808002000C8010030C9000B2EDB179D
:101BB40022005603031DDF2DE02D172E2000C8142C
:101BC400172EDB17172EDB17C41BE92DEA2DF32D77
:101BD40044080F39533E8600013087000108F000A5
:101BE400FA2D44080F39503E860087010108F000A1
:101BF400700886008701811F002E012E172E7008A1
:101C040086008701011D072E082E172E0130C800FB
:101C1400172E40081F39003A0319D92D013A031928
:101C2400E32D033A0319E52D172E2000DB1F1B2E8D
:101C34001C2E232E4830D9000030DA005B14023009
:101C4400DC0008003D008E1C282E292E752E013044
:101C54008A31DE228E317F2E210060036104031D50
:101C6400342E352E3A2E01308A31F4228E317B2ED9
:101C740060084B3A6104031D402E412E462E01306C
:101C84008A31DE228E317B2E0030610297300319B7
:101C94006002031C4E2E4F2E522EE001E1017B2EDA
:101CA4007B2E210060036104031D592E5A2E5F2EE2
:101CB40001308A31F4228E317B2E6008323A61047D
:101CC400031D652E662E6B2E01308A31DE228E3185
:101CD4007B2E03306102B73003196002031C732E9C
:101CE400742E7B2E4F2E20005308203A03192E2EDB
:101CF400532E2100E00A0319E10A08000830F0001D
:101D040000305D02083003195C0203188A2E8B2E02
:101D14009D2E5C08F0002100ED08031D922E932EE9
:101D2400962EED01ED0A9D2E6D03031D9A2E9B2E1A
:101D34009D2E0230ED0070082000DC02031CDD0340
:101D4400500A860087017008810048302100EA00AB
:101D540020005B18AE2EAF2ED82EC12E21006A08AB
:101D6400860087012000590884005A08850000086D
:101D74008100D90A0319DA0A2100EA0AF003F008FB
:101D8400031DC52EC62EB02EDD2E21006A08860046
:101D940087012000590884005A0885000008810042
:101DA400D90A0319DA0A2100EA0AF003F008031D2C
:101DB400DC2EDD2EC72E08002000DB170E30FB00C2
:101DC4009930FA00FC017A0886007B0887008101BB
:101DD400FA0A0319FB0AFC0A7C08031DF22EE52EFD
:101DE400F001F1012030F200F30120308B310A239D
:101DF4008E313D000E17FD017D084D3E86000130F9
:101E0400870081017D084F3E8600013087008101F3
:101E1400FD0A02307D02031C102F112FFE2EF0014B
:101E2400F101F201F20AF301EF308B310A238E3112
:101E34003D000E1328302000D0002030D600560874
:101E4400D7004208DE00DE08031D292F2A2F2D2F7C
:101E54001030D3003B2FE001E00AE1015E30E200E4
:101E6400E301E30AE4018731B9278E3120302000F1
:101E7400D30008002100E408031D412F422F9D2FA9
:101E84000130E400E508031D482F492F9D2F013040
:101E9400E50020005508023A031D512F522F602FF0
:101EA400500A860087018101500886008701483066
:101EB400810050088600870181179D2F5503031D5B
:101EC400642F652F9D2F2200D5012000560A86001D
:101ED4008701083081004030F0000030F1005608DE
:101EE400023E860087017008C03F7108C13F560852
:101EF4008600870104308100560886008701811717
:101F04002200D501D50A2000570A8600870108302F
:101F140081004030F0000030F1005708023E860096
:101F240087017008C03F7108C13F570886008701C8
:101F3400803081009D2F08002D30E60020005F08CE
:101F4400FD39031DA62FA72FF32F5F363F3909074D
:101F54000907203ED6005608D7000430D706560895
:101F640086008701010C890C0F390D3A031DBB2F24
:101F7400BC2FEF2FEB016B08403E8600870156080B
:101F8400023E84008501003FE900013FEA00690840
:101F940084006A088500000881005608023E860015
:101FA40087010130810741310318810AEB0A0830A7
:101FB4006B02031CDE2FDF2FBD2F4030E900003001
:101FC400EA005608023E860087016908C03F6A0895
:101FD400C13F8C31BD248F31FF2F8C318E248F3142
:101FE400FF2FFD305F05E9006908043A031DFB2F4C
:0C1FF400FC2FFF2F813118218F310800D5
:020000040001F9
:04000E00E4CFCFDF8D
:00000001FF
