:0400000080310B2818
:10000800803120007F08F0007008FF0009008A3165
:10001800922A203020006D02031C08003D008E1833
:100028000800220057080319272857088600870167
:10003800010D010D01392000E100E2016108E30032
:100048006208E4002A282000E301E401640863044C
:10005800031D4028F101A030F2000030F3004030C9
:10006800E1006108F40001308731AF2780312000BA
:10007800E20062082200D7003C302000E10061085D
:10008800E900EA016A30E1006108DB006930863185
:1000980067268031003A0319862800302300A30020
:1000A8000030A2000030A1000030A0000F30A005F1
:1000B8002008F0390938A00090302000E1006108DC
:1000C8002300A10020006908E10061082300A200C4
:1000D80020006A08E10061082300A300F101F10A89
:1000E800A030F2000130F30004302000E100610884
:1000F800F40001308731AF2780312000E200620828
:100108002100E3000130893135218031003A03199B
:10011800EB282100E508031D080022005F080319E9
:100128000800210063080319A728630886008701CF
:10013800010D010D01392000E100E2016108E5002F
:100148006208E600AA282000E501E60166086504C1
:10015800031D08006430E10061082100E50000305B
:100168002300A3000030A2000030A1000030A0004E
:100178000F30A0052008F0390938A0009030200081
:10018800E10061082300A100210066082000E100C9
:1001980061082300A2007F302000E10061082300ED
:1001A800A300F101F10AA030F2000130F30004309D
:1001B8002000E1006108F40001308731AF272000FA
:1001C800E20062082100E3002200DF0108002100AC
:1001D800E508031D08002200DF08031D08002100B0
:1001E800630803190529630886008701010D010DBD
:1001F80001392000E100E2016108E7006208E80037
:1002080008292000E701E80168086704031D0800C1
:100218006430E10061082100E50000302300A300FC
:100228000030A2000030A1000030A0000F30A0056F
:100238002008F0390938A00090302000E10061085A
:100248002300A100210066082000E10061082300C6
:10025800A20001302000E10061082100E607230028
:10026800A30121006608493A031D40293C302000BB
:10027800E10061082100E600F101F10AA030F20076
:100288000130F30004302000E1006108F40001307F
:100298008731AF272000E20062082100E300220036
:1002A800DF01DF0A080020004208013A031D6E2919
:1002B80040081F390038031D6E292100EB17200064
:1002C8004108033A031D6C292200D301D30A6E2981
:1002D8002200D30120004208031D080040081F39EE
:1002E800023A031D080044080F39003A03190800B0
:1002F80044080F39DA0002305A02031808006D0862
:10030800203A031D08002100EB172000C41B9A297E
:1003180044080F39503E8600013087000108DA0092
:100328005A08DF0044080F394C3EA62944080F3903
:100338006B3E860087010108DA005A08DF0044088E
:100348000F394A3E8600013087000108DA005A0852
:10035800DE005E18B429FB30DA005A08DF05B5293B
:100368005F15C41BC0295F08DA0044080F39503EE6
:10037800860001308700C7295F08DA0044080F3972
:100388006B3E860087015A0881004108033A031D25
:10039800E8295F0886008701811FDF29C41BD82947
:1003A80044080F394C3EDB2944080F394A3E860081
:1003B8000130870081145F088600870101155F08F6
:1003C80086008701811708000430DA005A08DF0622
:1003D8005F0886008701811F0C2A7F30DA005F08DA
:1003E800860087015A0881055F0886008701011782
:1003F8000530D5000030D6005F08DA005A08D7006B
:100408000130D8000030D9008B3143238131112AC3
:1004180020005F0886008701011704302000DA00F9
:100428005A08DF06DE181D2A5F0886008701811F2B
:10043800412AC41B232A44080F394C3E262A440863
:100448000F394A3E86000130870081103B30DA00C0
:100458005F08860087015A0881050530D5000030FD
:10046800D6005F08DA005A08D7000130D8000030FB
:10047800D9008B3143238131492A3B302000DA00EF
:100488005F08860087015A088105200044080F3953
:10049800983EDA00DB010E30DB3D5A08DC005B08D1
:1004A800DD00FE30DA005C0886005D0887005A0827
:1004B800810508003D000E122100EB1BA02A220036
:1004C800C21F752A0230F60076082100E4002200D7
:1004D800D608031D712A8C31F1242200D901D801D4
:1004E80008000830F6007C0A86008701760881003B
:1004F8004030F6000030F7007C08023E8600870195
:100508007608C03F7708C13F0C30F6007C088600AB
:100518008701760881007C088600870181170430EE
:10052800F60020006B0886008701760881006B08BA
:1005380086008701811708002000C01FB72A210004
:10054800E401E40A2200D508031DAD2A8C31F12408
:1005580082312200D901D8012100E208031D0800D8
:100568008D31482508000230F60076082100E400A5
:100578000830F6007C0A8600870176088100403042
:10058800F6000030F7007C08023E860087017608F6
:10059800C03F7708C13F0430F6007C088600870119
:1005A800760881007C088600870181172200D9011E
:1005B800D8012100E208031D08008D3148250800F4
:1005C8002200D40174302000D5000030D600D701B5
:1005D8000030D8000030D9008B31432382313D00F0
:1005E8008E101211101DFD2AFB30FB007B089005B0
:1005F800F62A2200DB0108000034153416341734BB
:10060800183411341234133414340D340E340F34B6
:10061800103409340A340B340C34053406340734E6
:100628000834013402340334043400340034003410
:1006380000340034003400340034F234833492340B
:100648008334C63483342D3483340A340534073470
:100658002F34093402346534003402340134003450
:10066800C0343234093404340034003400340134E2
:1006780001340034003409342434013400340134A2
:1006880009340034013401340934043401340034A9
:100698000234013403340034003407342434013480
:1006A8000034013441340034063424340234013433
:1006B8000134003406342434023402340234003461
:1006C800093424340334013403340134023401344A
:1006D800003409342434033402340434013401343A
:1006E8000134003409340534013402344034003410
:1006F8000034003400340534253401340134013425
:100708000934053481340234403400340034003470
:1007180000340534253401340134033434340334CB
:100728004D34003469340034633400347234003496
:100738006F3400346334003468340034693400346E
:1007480070340034203400345434003465340034B8
:1007580063340034683400346E3400346F34003449
:100768006C3400346F340034673400347934003426
:1007780020340034493400346E3400346334003497
:100788002E3400341A3403344D34003449340034E0
:1007980044340034493400342034003445340034BF
:1007A80078340034613400346D34003470340034EB
:1007B8006C340034653400341234013400340234AB
:1007C8000034003400340834D83404345934003444
:1007D8000234003401340234003401340434033464
:1007E800093404342000ED08031D0A2C3D008E0155
:1007F8009201163091009F3097007B3092008E193D
:10080800072C8E15032C2000ED01ED0A6D08013A26
:10081800031D1A2C3D008E1A1A2C900192011214F5
:10082800121602302000E6006608ED003D0010199F
:10083800121D272CFB302000E60066083D009005BD
:100848008231E42283313D008E1C2D2C20001211B0
:1008580008001018121C3D2C8531BB25833104304B
:100868002000E6006608ED00FE30E60066083D0060
:100878009005101A121E432C89315E2183313D00E8
:10088800101F6A2C121F552C73302000D500003021
:10089800D600D7010130D8000030D9008B3143236E
:1008A8008331BF302000E60066083D00900589319D
:1008B8007621833122005A080319642C0130DA02A8
:1008C800DA08031D6A2C8D31482583313D00901AC2
:1008D800921E712C8A31492283313D009018921C56
:1008E800842CFF302000D5007F30D600D70101309E
:1008F800D8000030D9008B31432383313D00930168
:10090800043020006D0203188B2C121108003D00E2
:10091800921DE12C2000E801DA2C0F082000E600E7
:100928006608EF006F0CE600E60C660C0F39E7006E
:1009380067082200DC00F7302000E60066083D006A
:10094800900520006F19AC2C22005C084C3EAF2C9F
:1009580022005C084A3E8600013087000108013900
:100968002000E6000130E60601086606FE39660644
:1009780081002200DC08031DC52C8E3190268331AE
:10098800D52C72302000D5000030D6006F30E6003C
:100998006608D7000030D8000030D9008B314323D7
:1009A800833101302000E6006608E8070430680259
:1009B8000318E12C3D009019912C20001211080019
:1009C8002000DA0029308400833085000008F40014
:1009D800720874020030031C0130F500F601750836
:1009E800D0007608D10029308400833085000008C3
:1009F800F400730874020030031C0130F500F6019E
:100A08007508D2007608D3002200CE01CF0120005D
:100A18005308520403191B2D5A08A43E86000130BE
:100A2800870081010130F4005A08C43E252D5A0878
:100A3800C43E86000130870081010130F4005A0865
:100A4800A43E860001308700740881075A08C43E16
:100A58008600013087002B30840083308500000831
:100A68000102003003180130F4007408D8005A0855
:100A7800A43E8600013087002A3084008330850038
:100A880000080102003003180130F4007408D60091
:100A9800D701D70AD808031D5F2DD808031D5E2D7E
:100AA800D608031D5E2D5A08203E860001308700B7
:100AB80081080319D7015708F4007408D9005908A8
:100AC800003A031D692D01306A2D0030F4005A08E0
:100AD800203E8600013087000108003A031D762D6C
:100AE8000130772D003074060319B02D2C308400A6
:100AF800833085000008F4005A08013E84008330E2
:100B08000318013E850000087407F50075082200E7
:100B1800CE002000D908031D942DD401D5019F2DA6
:100B28007308F400F501F435F50D7408053ED4009A
:100B38000030753DD5005408F40074082200CF0039
:100B4800200059080319AD2D01308931C0218431A5
:100B5800B02D01308931A72120005908F4005A0826
:100B6800203E8600013087007408810008002100BB
:100B780012113D009301900198010E30F400993054
:100B8800F300F5017508031DD92D73088600740854
:100B9800870081010130F3070030F43D0130F10096
:100BA8007108F50775080319C92D16303D00910025
:100BB8009F3097007B309200F601083076020318C8
:100BC800FE2D7608F1000130F135FF3E031DE82DBA
:100BD8007135203E860087010030C03F0030C13F9C
:100BE800C23FC33F0130F1007108F60708307602B2
:100BF800031CE52D3D000E1796010E120E13F7305B
:100C0800F100710890052100EB012200C201C30127
:100C1800C4013D009019032E0130F1007108220033
:100C2800D8000130F1007108D900D501D601D401EE
:100C3800F601023076020318402E76086B3E8600D5
:100C4800870181017608503E8600013087008101C6
:100C580076084A3E860001308700810176084C3EBE
:100C680086000130870081010130F1007108F60724
:100C780002307602031C212E2830F1007108200072
:100C8800EB0016303D0098004030F1000030F200D3
:100C980071082000A2007208A3000830A1000430E7
:100CA800F1007108A000A0172100EE010030220019
:100CB800C9000030C8000030C7000030C600DB01A2
:100CC8002000ED0108002000E0002200CF01CE0145
:100CD80020005B0886008701810160088600870183
:100CE80081012200DD08031D7C2E8A312C228631E9
:100CF800893117218631003A0319EF2E0030080098
:100D0800F101F10A00308931D92186312200E2014E
:100D1800E20A89310C218631FA2EF101F10A0030FC
:100D28008931D92186310230FB007B082200E2009C
:100D380089310C218631FA2E8831E4208631FB0076
:100D48007B08F10001308931D92186310330FB005D
:100D58007B082200E20089310C218631FA2EF1014C
:100D680000308931D92186318831FB208631043021
:100D7800FB007B082200E20089310C218631FA2E23
:100D88008831E92086310038031DCC2E0430CD2E61
:100D980005302000DC000030DD005C08EA2E8931D7
:100DA80022218631FB007B08F7008831E12086315B
:100DB8008B31142386310038031DE42E0230E52ED2
:100DC80001302000DE000030DF005E08FB007B08F9
:100DD8002200E200FA2E2200620884000630040293
:100DE8000318FA2E883104351A3E820022004E0874
:100DF800FB0020006008860087017B088100220034
:100E08004F08FB0020005B08860087017B088100F3
:100E180000302200CE08031D0130080020006E08B3
:100E280086008701413FF6007608F300F401740854
:100E380022004402031D222F730843020318282F9F
:100E48004308F3007308F6007608F300F40173080A
:100E5800C3027408C43BF501760875020318482FCD
:100E68007508483E860087010108F300400886009F
:100E78008701730881000130F3007308C00701304F
:100E8800F3007308F507302F0330403E8600013029
:100E98008700160001040319822F0830F3007C0A2A
:100EA80086008701730881004830F3000030F400A1
:100EB8007C08023E860087017308C03F7408C13F62
:100EC80020006E0886008701011B762F4830F3004A
:100ED8007C0886008701730881007C0886008701EA
:100EE800811708000830F3007C0886008701730822
:100EF80081007C0886008701811708000830F3000C
:100F08007C0A86008701730881004030F3000030B6
:100F1800F4007C08023E860087017308C03F74080D
:100F2800C13F0430F3007C08860087017308810004
:100F38007C08860087018117220045080319A72F1E
:100F480045088731A62FC2132100E208031D0800B7
:100F58008D3148250800F70071080319B82F770864
:100F68006B3E86008701BD2F7708503E8600013012
:100F780087000108F5007508F800F808031DC62F5A
:100F880000300800FF307205F5007F307305F60069
:100F98007808023E860087017508C03F7608C13F81
:100FA8007408F500780A86008701750881004030CA
:100FB800F50078088600870175088105780886009D
:100FC8008701811578088600870181177108031940
:100FD800F42F0430F50077086B3E86008701FB2F5D
:100FE8000430F5007708503E860001308700750808
:060FF800810678080800E4
:101000008C31BB2C8C31BE2C8C31F02C8C31BE2C15
:101010008C31F02C8C31A32C8C31AB2C8C31D92C15
:101020008C31B12C8C31AE2C8C31C12C8C31CD2C2F
:101030008C31F02C8631842E8631912E8631A02E73
:101040008631B32E8631C42E8631D32E8931D829EC
:101050008931C2298931C5298931C8298931CB29EA
:101060008931BF298931A9298931AC298931AF2931
:101070008931B2298931A629893190298931932969
:08108000893196298931992973
:1011C20021001C08080022000E0E890C01390800BB
:1011D200003021009D1C01300800640080010131B3
:1011E200890BEF280034210065080319080001303B
:1011F200E502080021001D0883391C389D009D145A
:101202000800F1007108003A03190B29013A031989
:101212000B290B2908002200E001E00A21009512A7
:1012220095158B120B11200095010800F101220087
:101232006008031D0B191F29F101F10A7108E00072
:1012420008000130F10071082200E107203061023C
:10125200003003180130F2007208F30020306102FE
:101262000318E10173080800F1003E290030200054
:101272008C1D01300800003008007108003A031983
:101282003C29013A03193729462900300800003069
:101292008931F32189318531BB2589318331F623A7
:1012A2008931203020006D02031C4F293D008E1829
:1012B2004F2980310D2089314F293D001215EF3021
:1012C200FB007B0890058E142200D401D40ADB01B6
:1012D20075302000D5000030D600D7010030D8008C
:1012E2000030D9008B314323080001302200C607A9
:1012F2000030C73D0030C83D0030C93DD408031D51
:1013020008000130F1007108DB07DB08031D08004B
:10131200FF30F1007108DB000800F1009C29210078
:101322000E11080021008E10080021000E11080085
:1013320021008E1108007108840005300402031890
:101342000800883104353A3E82000800F100B529D0
:1013520022000E11080022008E10080022000E1139
:10136200080022008E110800710884000530040272
:101372000318080088310435303E82000800F1006D
:10138200CE2922000E15080022008E140800220029
:101392000E15080022008E15080071088400053021
:1013A20004020318080088310435263E8200080032
:1013B200F3000030F308031D0130F200F20E2200A8
:1013C2000E087206EF3972068E000030F108031D16
:1013D2000130F200F20EF20D0E087206DF397206CB
:1013E2008E000800F200032AFC30210099009030A0
:1013F20027009B00013089318E21893101308931EA
:10140200022108007208003A0319F529013A03196A
:101412000E2A033A03190E2A0E2A0800F60076084D
:10142200F5007508F7000130F3020030F43BFF309D
:101432007406031D1E2AFF30730603190800710883
:10144200F500770886008701750881000130F500F4
:101452007508F707142A2200DD01DD0A21008E1526
:101462000E128E1223008C018E1522000E128E1285
:1014720023000C1221000C1611131D149E131E08BA
:101482008F3960389E00FC309E058F309F05080022
:101492003D00181C682A20006E088600870101089A
:1014A200803A031D662A6B08860087010108843A88
:1014B200031D662A0C30F1006E0886008701710850
:1014C20081006E088600870181173D001810DF3009
:1014D200F1007108900508002000D200781D762ADC
:1014E200F10152088B317C238A31F81C7E2AF101EA
:1014F200F10A200052088B317C2320005208983ECA
:10150200F900FA010E30FA3D7908D0007A08D100CC
:101512007808F90050088600510887007908810090
:101522000800FC01EB01EC01ED01EE01EF01E030FE
:1015320084000030850010308831EE208A3120305E
:1015420084000130850043308831EE208A31A43096
:1015520084000130850040308831EE208A3120300D
:1015620084000230850020308831EE20200089314D
:1015720048292100E3012200D7013C302000D3009A
:1015820053082100E6002200DF01DF0A2100E50105
:101592001E302000D3005308F80001308A316D223A
:1015A2008A31F101A030F2000030F3004030200017
:1015B200D3005308F40001308731AF272000D40054
:1015C20054082200D700080021006408023A031DD3
:1015D200ED2A8731122708002100E4012200D208F7
:1015E200031D122B0830F7007C0A8600870177085A
:1015F20081004030F7000030F8007C08023E86008F
:1016020087017708C03F7808C13F0C30F7007C089B
:1016120086008701770881007C0886008701811790
:101622000800D2010800FA0021006808203E860066
:10163200023087000108F8007808F2007A08F90001
:101642007908F30068088431E4248B317A08F800C1
:1016520021006808203E8600023087007808810059
:101662000130F8007808E8072030680203183C2BA4
:10167200770803193D2BE8016808003A0030031986
:1016820001300800532B8B31FD238B318831F4203C
:1016920008008B31FD2308008B31FD2308008A31BD
:1016A200BA22080020005608003A03195C2B7F3A40
:1016B2000319762B7B2B5508013A0319502B033A59
:1016C20003197B2B013A03197B2B063A03197B2B57
:1016D200773A03197B2B013A0319442B073A031972
:1016E2004D2B013A03194A2B7B2B5508FF3A03195C
:1016F2007B2B7B2B0800F6002030F2007208F700EB
:101702007108F2000130F235890B842B7608F30060
:101712000130F335FF3E031D8A2B73357207F40047
:101722000130F435FF3E031D922B7435F500750828
:10173200F7077708860087018113F108031DA92B9B
:101742007708F2007608503E860001308700AF2B02
:101752007708F20076086B3E8600870172088100E6
:1017620077088600870101137708043E8600870107
:10177200011708002100E701E2012200D501D6018C
:10178200D2012100E4017F302000E1006B088600D5
:101792008701610881050430E1006108EB067F30B2
:1017A200E1006B0886008701610881050430E100D1
:1017B2006108EB067F30E1007C0886008701610842
:1017C20081052100EB01EC01ED012200C201C30100
:1017D200C4018C319B248B3103302000D5000030B2
:1017E200D600D7010030D8000030D9008B31432316
:1017F2008B3182315E2208003D008E1C402C01306C
:101802008931A72108000130210060066104031D0F
:101812000F2C01308931C0218B31462C4B302100F5
:1018220060066104031D1A2C01308931A7218B3116
:10183200462C0030210061029730392C0130210002
:1018420060066104031D2A2C01308931C0218B31CD
:10185200462C3230210060066104031D352C013014
:101862008931A7218B31462C033021006102B73028
:1018720003196002031C462CE001E101462C200002
:101882006D08203A0319042C1F2C01302100E007B7
:101892000030E13D08002000C8010030C900822C60
:1018A2002100EB1722005308013A031D8E2C200061
:1018B200C8148E2C2100EB178E2C2100EB17200070
:1018C200C41B6A2C44080F39503E86000130870041
:1018D2006F2C44080F396B3E860087010108F10026
:1018E2007108F200720886008701811F8E2C72082F
:1018F20086008701011D8E2C0130F1007108C8009D
:101902008E2C40081F39003A0319512C013A031951
:101912005B2C033A03195E2C8E2C2100EB1F08006E
:101922004830E9000030EA006B140230F10071081F
:10193200EC0008002000400E890C0339003A031D18
:101942000800E52C2100EB1708302000E0006008B9
:10195200ED0008008F31002708008F317F27080033
:10196200EE302100E9000030EA006B14EC01EC0AD1
:10197200EB1708008C314C240800813157210800F4
:1019820020004408EF3E2100E9000030EA006B1419
:10199200EC01EC0AEB1708002100EB1720004208CB
:1019A200E0004408EF3E86008701600881000800DD
:1019B2000230D5000030D600D7010030D800003008
:1019C200D9008B31432308002000410884000D30E8
:1019D20004020318080088310435003E8200080022
:1019E2002200D501D60121006408023A031D182DF8
:1019F2000830F4007C0A86008701740881004830B0
:101A0200F4000030F5007C08023E8600870174086D
:101A1200C03F7508C13F4830F4007C08860087014A
:101A2200740881007C0886008701811708006D0810
:101A320020004702031D212D21006C0820004602D0
:101A420003182C2D47082100ED01ED072000460860
:101A52002100EC01EC078E3120268C314830F40055
:101A62000030F50020006B08023E860087017408F2
:101A7200C03F7508C13F4830F4006B0886008701FB
:101A8200740881006B088600870181170800220014
:101A9200D808031D08000130F1007108D800D908E8
:101AA200031D08000130F1007108D900210064080B
:101AB200023A031D6D2D20006B0A86008701810109
:101AC2004830F1006B0886008701710881006B08BD
:101AD200860087018117080021006408013A031D6E
:101AE20008002200D2010830F10020006E0A8600B0
:101AF2008701710881004030F1000030F2006E0869
:101B0200023E860087017108C03F7208C13F04305F
:101B1200F1006E0886008701710881006E08860058
:101B2200870181172200D201D20A0830F1007C0A13
:101B320086008701710881004030F1000030F20018
:101B42007C08023E860087017108C03F7208C13FCF
:101B52008030F1007C08860087017108810008004E
:101B620020006B08860087010030011B0130F6005F
:101B72000430F4007408EB066D08083A031DCF2DFB
:101B820042087F393D00960016080319CA2D10300D
:101B9200CB2D0430F40074082000ED00210064080D
:101BA200013A031D132E4830F4000030F5002000E6
:101BB2006B08023E860087017408C03F7508C13F6A
:101BC2008E3120268D3121006708023A031DF62D41
:101BD2000430F40020006B0886008701740881003D
:101BE2006B088600870181170800F608031D062E80
:101BF2004830F40020006B088600870174088100D9
:101C02006B0886008701811708000830F400200065
:101C12006B0886008701740881006B0886008701C3
:101C2200811708002200C21F1D2E450803191C2E11
:101C320045088E311B2EC2132100E4010800083032
:101C4200F1007108F300003021006D020830031921
:101C52006C0203183E2E6C08F1007108F300E708CD
:101C6200031D362EE701E70A3E2E6708013A031DDF
:101C72003E2E0230F1007108E7007308F100F20114
:101C82007108EC027208ED3B7308F10020006B0A48
:101C920086008701710881004830F1007108220036
:101CA200DE0021006B1C6F2E8C2E2100690884003F
:101CB2006A0885000008F10022005E08860087019C
:101CC2007108810001302100E9070030EA3D01304E
:101CD200F10071082200DE070130F302F308031954
:101CE2000800562E2100690884006A088500000851
:101CF200F10022005E088600870171088100013030
:101D02002100E9070030EA3D0130F10071082200AC
:101D1200DE070130F302F30803190800732E2D3099
:101D22002000E20062082200DA0020006F08FD397C
:101D3200031DF52E6F363F39E2000130E235FF3EDA
:101D4200031D9F2E6235203EE3006308EE006E08FD
:101D5200E2006208FC000430E2006208FC066E0841
:101D620086008701010C890C0F390D3A031DF22EF2
:101D7200E501083065020318E32E6E08023E860074
:101D82008701403FE200413FE300620886006308AA
:101D920087000108E4006508403E86008701640868
:101DA20081006E08023E86008701013081074131C1
:101DB2000318810A0130E2006208E5070830650273
:101DC200031CBE2E4030E2000030E3006E08023EEB
:101DD200860087016208C03F6308C13F8B31BB2385
:101DE20008008A31E5220800FD3020006F05E2007C
:101DF2006208043A031D08008D31B1250800200055
:101E02004008803A031D0800C030F100710821002B
:101E1200EB00722FE0302100E9008330EA0012303B
:101E2200EC000030ED00080020004208031D482F9E
:101E32004208F100F201F135F20D273071078400FA
:101E42008330723D8500003F2100E900013FEA0036
:101E52006A08F2006908F100023071078400720812
:101E62000318720A85000008F3007308EC006A0880
:101E7200F2006908F1000330710784007208031848
:101E8200720A85000008F3007308ED0008002100C3
:101E9200EB01080003302000420203186C2F4208B5
:101EA200F100F201F135F20D213071078400833027
:101EB200723D8500003F2100E900013FEA00690808
:101EC20084006A0885000008F100F2017108EC0044
:101ED2007208ED0008002100EB0108002100EB016F
:101EE200080020004308013A03190B2F033A031993
:101EF200152F013A03194B2F6F2F08002100EB1702
:101F02000E302000DB009930DA00DC015C08031D92
:101F12009A2F5A0886005B08870081010130DA0790
:101F22000030DB3D0130FB007B08DC075C08031955
:101F32008A2F0030F1000030F2002030F300003030
:101F4200F40020308A310F228F313D000E1720001D
:101F5200DD0102305D020318C22F5D084A3E860091
:101F62000130870081015D084C3E86000130870008
:101F720081010130FB007B08DD0702305D02031C9A
:101F8200AE2F0030F1000030F2000130F3000030DB
:101F9200F400EF308A310F228F313D000E132830CA
:101FA200FB007B082000EB002030FB007B08EE00EA
:101FB2006E08FB007B08FC004208FB007B08210046
:101FC200EE00EE08031DEB2F1030FB007B08200013
:101FD200ED00080001302000D5000030D600EE30C0
:101FE200FB007B08D7000130D8000030D9008B31CC
:0E1FF20043232030FB007B082000ED00080098
:020000040001F9
:04000E00E4CFCFDF8D
:00000001FF
