:0400000080310B2818
:10000800803120007F08F0007008FF0009008A3165
:10001800842A203020006D02031C08003D008E1841
:10002800080022005E08031927285E088600870159
:10003800010D010D01392000E100E2016108E30032
:100048006208E4002A282000E301E401640863044C
:10005800031D4028F101A030F2000030F3004030C9
:10006800E1006108F40001308C314B24803120001C
:10007800E20062082200DE003C302000E100610856
:10008800E900EA016A30E1006108DB006930863185
:1000980070268031003A0319862800302300A30017
:1000A8000030A2000030A1000030A0000F30A005F1
:1000B8002008F0390938A00090302000E1006108DC
:1000C8002300A10020006908E10061082300A200C4
:1000D80020006A08E10061082300A300F101F10A89
:1000E800A030F2000130F30004302000E100610884
:1000F800F40001308C314B2480312000E20062088A
:100108002100E3000130893127218031003A0319A9
:10011800EB282100E508031D0800220066080319E2
:100128000800210063080319A728630886008701CF
:10013800010D010D01392000E100E2016108E5002F
:100148006208E600AA282000E501E60166086504C1
:10015800031D08006430E10061082100E50000305B
:100168002300A3000030A2000030A1000030A0004E
:100178000F30A0052008F0390938A0009030200081
:10018800E10061082300A100210066082000E100C9
:1001980061082300A2007F302000E10061082300ED
:1001A800A300F101F10AA030F2000130F30004309D
:1001B8002000E1006108F40001308C314B2420005C
:1001C800E20062082100E3002200E60108002100A5
:1001D800E508031D08002200E608031D08002100A9
:1001E800630803190529630886008701010D010DBD
:1001F80001392000E100E2016108E7006208E80037
:1002080008292000E701E80168086704031D0800C1
:100218006430E10061082100E50000302300A300FC
:100228000030A2000030A1000030A0000F30A0056F
:100238002008F0390938A00090302000E10061085A
:100248002300A100210066082000E10061082300C6
:10025800A20001302000E10061082100E607230028
:10026800A30121006608493A031D40293C302000BB
:10027800E10061082100E600F101F10AA030F20076
:100288000130F30004302000E1006108F40001307F
:100298008C314B242000E20062082100E300220098
:1002A800E601E60A080020004208013A031D6E290B
:1002B80040081F390038031D6E292100EB17200064
:1002C8004108033A031D6C292200DA01DA0A6E2973
:1002D8002200DA0120004208031D080040081F39E7
:1002E800023A031D080044080F39003A03190800B0
:1002F80044080F39DA0002305A02031808006D0862
:10030800203A031D08002100EB172000C41B9A297E
:1003180044080F39573E8600013087000108DA008B
:100328005A08DF0044080F39533EA62944080F39FC
:100338006B3E860087010108DA005A08DF0044088E
:100348000F39513E8600013087000108DA005A084B
:10035800DE005E18B429FB30DA005A08DF05B5293B
:100368005F15C41BC0295F08DA0044080F39573EDF
:10037800860001308700C7295F08DA0044080F3972
:100388006B3E860087015A0881004108033A031D25
:10039800E8295F0886008701811FDF29C41BD82947
:1003A80044080F39533EDB2944080F39513E860073
:1003B8000130870081145F088600870101155F08F6
:1003C80086008701811708000430DA005A08DF0622
:1003D8005F0886008701811F0C2A7F30DA005F08DA
:1003E800860087015A0881055F0886008701011782
:1003F8000530D5000030D6005F08DA005A08D7006B
:100408000130D8000030D9008B3135238131112AD1
:1004180020005F0886008701011704302000DA00F9
:100428005A08DF06DE181D2A5F0886008701811F2B
:10043800412AC41B232A44080F39533E262A44085C
:100448000F39513E86000130870081103B30DA00B9
:100458005F08860087015A0881050530D5000030FD
:10046800D6005F08DA005A08D7000130D8000030FB
:10047800D9008B3135238131492A3B302000DA00FD
:100488005F08860087015A088105200044080F3953
:10049800983EDA00DB010E30DB3D5A08DC005B08D1
:1004A800DD00FE30DA005C0886005D0887005A0827
:1004B800810508003D000E122100EB1BA02A220036
:1004C800C91F752A0230F60076082100E4002200D0
:1004D800DD08031D712A8C31F1242200E001DF01BF
:1004E80008000830F6007C0A86008701760881003B
:1004F8004030F6000030F7007C08023E8600870195
:100508007608C03F7708C13F0C30F6007C088600AB
:100518008701760881007C088600870181170430EE
:10052800F60020006B0886008701760881006B08BA
:1005380086008701811708002000C01FB72A210004
:10054800E401E40A2200DC08031DAD2A8C31F12401
:1005580082312200E001DF012100E208031D0800CA
:100568008D31482508000230F60076082100E400A5
:100578000830F6007C0A8600870176088100403042
:10058800F6000030F7007C08023E860087017608F6
:10059800C03F7708C13F0430F6007C088600870119
:1005A800760881007C088600870181172200E00117
:1005B800DF012100E208031D08008D3148250800ED
:1005C8002200DB0174302000D5000030D600D701AE
:1005D8000030D8000030D9008B31352382313D00FE
:1005E8008E101211101DFD2AFB30FB007B089005B0
:1005F800F62A2200E20108000034003401340234F3
:1006080003340434053406340734083409340A340E
:100618000B340C340D340E340F34103411341234BE
:1006280013341434153416341734183419341A346E
:100638001B341C341D341E341F342034213422341E
:100648002334243425342634F934833499348334D8
:10065800CD348334343483340A34053407343034A5
:100668000934023465340034023401340034C034AF
:100678003234093404340034003400340134013491
:10068800003400340934243401340034013409348A
:1006980000340134013409340434013400340234A0
:1006A8000134033400340034073424340134003472
:1006B8000134413400340634243402340134013422
:1006C8000034063424340234023402340034093449
:1006D8002434033401340334013402340134003443
:1006E8000934243403340234043401340134013429
:1006F8000034093405340134023440340034003401
:10070800003400340534253401340134013409340B
:100718000534813402344034003400340034003469
:1007280005342534013401340334343403344D346E
:1007380000346934003463340034723400346F3464
:10074800003463340034683400346934003470345D
:1007580000342034003454340034653400346334B5
:100768000034683400346E3400346F3400346C3430
:1007780000346F3400346734003479340034203462
:100788000034493400346E340034633400342E3479
:1007980000341A3403344D340034493400344434BA
:1007A800003449340034203400344534003478347B
:1007B8000034613400346D340034703400346C34E7
:1007C8000034653400341234013400340234003407
:1007D800003400340834D834043459340034023432
:1007E800003401340234003401340434033409344D
:1007F80004342000ED08031D112C3D008E019201E8
:10080800163091009F3097007B3092008E190E2C85
:100818008E150A2C2000ED01ED0A6D08013A031D22
:10082800212C3D008E1A212C9001920112141216CF
:1008380002302000E6006608ED003D001019121D88
:100848002E2CFB302000E60066083D009005823122
:10085800E42283313D008E1C342C20001211080044
:100868001018121C442C8531C42583310430200013
:10087800E6006608ED00FE30E60066083D009005DB
:10088800101A121E4A2C8931502183313D00101F45
:10089800712C121F5C2C73302000D5000030D6005C
:1008A800D7010130D8000030D9008B31352383318E
:1008B800BF302000E60066083D00900589316821B8
:1008C80083312200610803196B2C0130E102E10831
:1008D800031D712C8D31482583313D00901A921EDD
:1008E800782C8A313B2283313D009018921C8B2C46
:1008F800FF302000D5007F30D600D7010130D80066
:100908000030D9008B31352383313D009301043009
:1009180020006D020318922C121108003D00921D50
:10092800E82C2000E801E12C0F082000E60066080A
:10093800EF006F0CE600E60C660C0F39E70067085D
:100948002200E300F7302000E60066083D0090052D
:1009580020006F19B32C22006308533EB62C2200E6
:100968006308513E860001308700010801392000E4
:10097800E6000130E60601086606FE3966068100D3
:100988002200E308031DCC2C8E3190268331DC2C09
:1009980072302000D5000030D6006F30E6006608BF
:1009A800D7000030D8000030D9008B31352383318F
:1009B80001302000E6006608E807043068020318E2
:1009C800E82C3D009019982C2000121108002000F6
:1009D800DA0030308400833085000008F4007208A3
:1009E80074020030031C0130F500F6017508D000D0
:1009F8007608D10030308400833085000008F40088
:100A0800730874020030031C0130F500F601750804
:100A1800D2007608D3002200D501D6012000530861
:100A280052040319242D5A08A43E86000130870079
:100A380081010130F4005A08473E86000230302D0B
:100A48005A08473E86000230870081010130F400D1
:100A58005A08A43E860001308700740881075A08A6
:100A6800473E86000230870032308400833085009C
:100A780000080102003003180130F4007408D8009F
:100A88005A08A43E86000130870031308400833044
:100A9800850000080102003003180130F4007408D2
:100AA800D600D701D70AD808031D682DD808031D1A
:100AB800672DD608031D672D5A08203E8600013091
:100AC800870081080319D7015708F4007408D90072
:100AD8005908003A031D722D0130732D0030F400BF
:100AE8005A08203E8600013087000108003A031D9D
:100AF8007F2D0130802D003074060319B92D333055
:100B08008400833085000008F4005A08013E840000
:100B180083300318013E850000087407F500750846
:100B28002200D5002000D908031D9D2DD401D50130
:100B3800A82D7308F400F501F435F50D7408053E89
:100B4800D4000030753DD5005408F4007408220024
:100B5800D600200059080319B62D01308931B22179
:100B68008431B92D01308931992120005908F400C8
:100B78005A08203E8600013087007408810008006A
:100B8800210012113D009301900198010E30F400EC
:100B98009930F300F5017508031DE22D73088600EE
:100BA8007408870081010130F3070030F43D0130FB
:100BB800F1007108F50775080319D22D16303D00AC
:100BC80091009F3097007B309200F6010830760242
:100BD8000318072E7608F1000130F135FF3E031D9A
:100BE800F12D7135203E860087010030C03F00306E
:100BF800C13FC23FC33F0130F1007108F60708301A
:100C08007602031CEE2D3D000E1796010E120E13F0
:100C1800F730F100710890052100EB012200C901AD
:100C2800CA01CB013D0090190C2E0130F10071086A
:100C38002200DF000130F1007108E000DC01DD0175
:100C4800DB01F601023076020318492E76086B3E66
:100C58008600870181017608573E860001308700AB
:100C680081017608513E86000130870081017608AF
:100C7800533E86000130870081010130F100710880
:100C8800F60702307602031C2A2E2830F10071087C
:100C98002000EB0016303D0098004030F100003095
:100CA800F20071082000A2007208A3000830A10019
:100CB8000430F1007108A000A0172100EE010030F7
:100CC8002200D0000030CF000030CE000030CD0030
:100CD800E2012000ED0108002000E0002200D6011A
:100CE800D50120005B088600870181016008860025
:100CF800870181012200E408031D852E8A311E2206
:100D08008631893109218631003A0319F82E0030DD
:100D18000800F101F10A00308931CB218631220027
:100D2800E901E90A8831FE208631032FF101F10A31
:100D380000308931CB2186310230FB007B0822004C
:100D4800E9008831FE208631032F8831DC20863186
:100D5800FB007B08F10001308931CB21863103305B
:100D6800FB007B082200E9008831FE208631032F32
:100D7800F10100308931CB2186318831ED2086316F
:100D88000430FB007B082200E9008831FE20863110
:100D9800032F8831E12086310038031DD52E043019
:100DA800D62E05302000DC000030DD005C08F32E74
:100DB800893114218631FB007B08F7008831D9205E
:100DC80086318B31062386310038031DED2E023023
:100DD800EE2E01302000DE000030DF005E08FB0050
:100DE8007B082200E900032F2200690884000630EE
:100DF80004020318032F883104351A3E82002200AA
:100E08005508FB0020006008860087017B088100E8
:100E180022005608FB0020005B08860087017B083B
:100E2800810000302200D508031D01300800200091
:100E38006E0886008701413FF6007608F300F4014A
:100E4800740822004B02031D2B2F73084A02031853
:100E5800312F4A08F3007308F6007608F300F4010E
:100E68007308CA027408CB3BF501760875020318AB
:100E7800512F7508483E860087010108F30047088E
:100E880086008701730881000130F3007308C707E3
:100E98000130F3007308F507392F0330473E860009
:100EA800013087001600010403198B2F0830F30066
:100EB8007C0A86008701730881004830F3000030FF
:100EC800F4007C08023E860087017308C03F74085E
:100ED800C13F20006E0886008701011B7F2F483024
:100EE800F3007C0886008701730881007C0886006F
:100EF8008701811708000830F3007C088600870105
:100F0800730881007C088600870181170800083073
:100F1800F3007C0A86008701730881004030F300E3
:100F28000030F4007C08023E860087017308C03F49
:100F38007408C13F0430F3007C08860087017308F9
:100F480081007C0886008701811722004C0803195C
:100F5800B02F4C088731AF2FC9132100E208031DB9
:100F680008008D31482508002100E701E201220030
:100F7800DC01DD01D9012100E4017F302000E1001E
:100F88006B0886008701610881050430E10061086B
:100F9800EB067F30E1006B08860087016108810558
:100FA8000430E1006108EB067F30E1007C08860030
:100FB8008701610881052100EB01EC01ED012200A8
:100FC800C901CA01CB018C319B2487310330200031
:100FD800D5000030D600D7010030D8000030D90045
:100FE8008B313523873182315E220800640080010D
:100FF8000131890BFB2F00348C31BB2C8C31BE2C7A
:101008008C31F02C8C31BE2C8C31F02C8C31A32CF3
:101018008C31AB2C8C31D92C8C31B12C8C31AE2C41
:101028008C31C12C8C31CD2C8C31F02C86318D2E0D
:1010380086319A2E8631A92E8631BC2E8631CD2E48
:101048008631DC2E8931CA298931B4298931B729F9
:101058008931BA298931BD298931B12989319B2939
:1010680089319E298931A1298931A4298931982971
:1010780089318229893185298931882989318B29C2
:1011B20021001C08080022000E0E890C01390800CB
:1011C200003021009D1C0130080021006508031930
:1011D20008000130E502080021001D0883391C388F
:1011E2009D009D140800F1007108003A0319FD28C2
:1011F200013A0319FD28FD2808002200E701E70A49
:101202002100951295158B120B11200095010800F3
:10121200F10122006708031D0B191129F101F10ADE
:101222007108E70008000130F10071082200E807A8
:1012320027306802003003180130F2007208F30010
:10124200273068020318E80173080800F10030290A
:10125200003020008C1D01300800003008007108A9
:10126200003A03192E29013A031929293829003095
:10127200080000308931E52189318531C425893161
:101282008331FD238931203020006D02031C412966
:101292003D008E18412980310D20893141293D00C0
:1012A2001215EF30FB007B0890058E142200DB0143
:1012B200DB0AE20175302000D5000030D600D701EC
:1012C2000030D8000030D9008B31352308000130BE
:1012D2002200CD070030CE3D0030CF3D0030D03D62
:1012E200DB08031D08000130F1007108E207E20883
:1012F200031D0800FF30F1007108E2000800F10050
:101302008E2921000E11080021008E1008002100F4
:101312000E11080021008E110800710884000530AA
:10132200040203180800883104353A3E820008009E
:10133200F100A72922000E11080022008E100800D9
:1013420022000E11080022008E110800710884008C
:10135200053004020318080088310435303E82004B
:101362000800F100C02922000E15080022008E1488
:10137200080022000E15080022008E1508007108D0
:101382008400053004020318080088310435263E23
:1013920082000800F3000030F308031D0130F20060
:1013A200F20E22000E087206EF3972068E0000302D
:1013B200F108031D0130F200F20EF20D0E08720662
:1013C200DF3972068E000800F200F529FC30210098
:1013D2009900903027009B000130893180218931AA
:1013E20001308831F42008007208003A0319E72915
:1013F200013A0319002A033A0319002A002A0800B5
:10140200F6007608F5007508F7000130F3020030A7
:10141200F43BFF307406031D102AFF3073060319D4
:1014220008007108F50077088600870175088100B9
:101432000130F5007508F707062A2200E401E40AE4
:1014420021008E150E128E1223008C018E152200A1
:101452000E128E1223000C1221000C1611131D14F1
:101462009E131E088F3960389E00FC309E058F3017
:101472009F0508003D00181C5A2A20006E088600AD
:1014820087010108803A031D582A6B0886008701EC
:101492000108843A031D582A0C30F1006E088600B8
:1014A2008701710881006E088600870181173D005F
:1014B2001810DF30F1007108900508002000D200FA
:1014C200781D682AF10152088B316E238A31F81C8B
:1014D200702AF101F10A200052088B316E2320009C
:1014E2005208983EF900FA010E30FA3D7908D00010
:1014F2007A08D1007808F900500886005108870060
:10150200790881000800FC01EB01EC01ED01EE011C
:10151200EF01E03084000030850010308731FA2777
:101522008A3120308400013085004A308731FA2721
:101532008A31A43084000130850027308731FA27B0
:101542008A3120308400023085004E308731FA27FC
:10155200200089313A292100E3012200DE013C30DA
:101562002000D30053082100E6002200E601E60A2B
:101572002100E5011E302000D3005308F80001309D
:101582008A315F228A31F101A030F2000030F3008B
:1015920040302000D3005308F40001308C314B243A
:1015A2002000D40054082200DE0008002100640854
:1015B200023A031DDF2A87311B2708002100E401BC
:1015C2002200D908031D042B0830F7007C0A86008C
:1015D2008701770881004030F7000030F8007C086E
:1015E200023E860087017708C03F7808C13F0C3071
:1015F200F7007C0886008701770881007C08860056
:10160200870181170800D9010800FA002100680843
:10161200203E8600023087000108F8007808F200B8
:101622007A08F9007908F30068088431EB248B31D9
:101632007A08F80021006808203E86000230870000
:10164200780881000130F8007808E807273068023E
:1016520003182E2B770803192F2BE8016808003A8C
:101662000030031901300800452B8B31AD238B313B
:101672008831E62008008B31AD2308008B31AD2381
:1016820008008A31AC22080020005608003A0319EB
:101692004E2B7F3A0319682B6D2B5508013A03191B
:1016A200422B033A03196D2B013A03196D2B063AAB
:1016B20003196D2B773A03196D2B013A0319362B57
:1016C200073A03193F2B013A03193C2B6D2B55089E
:1016D200FF3A03196D2B6D2B0800F6002030F20043
:1016E2007208F7007108F2000130F235890B762B8F
:1016F2007608F3000130F335FF3E031D7C2B733572
:101702007207F4000130F435FF3E031D842B74355B
:10171200F5007508F7077708860087018113F1083D
:10172200031D9B2B7708F2007608573E8600013096
:101732008700A12B7708F20076086B3E86008701AE
:101742007208810077088600870101137708043E3A
:1017520086008701011708003D008E1CF02B013026
:101762008931992108000130210060066104031DBE
:10177200BF2B01308931B2218B31F62B4B30210046
:1017820060066104031DCA2B0130893199218B3116
:10179200F62B0030210061029730E92B0130210045
:1017A20060066104031DDA2B01308931B2218B31CD
:1017B200F62B3230210060066104031DE52B013057
:1017C200893199218B31F62B033021006102B73028
:1017D20003196002031CF62BE001E101F62B200045
:1017E2006D08203A0319B42BCF2B01302100E007FA
:1017F2000030E13D08002000C8010030C900322C51
:101802002100EB1722005A08013A031D3E2C20004A
:10181200C8143E2C2100EB173E2C2100EB172000B0
:10182200C41B1A2C44080F39573E8600013087002A
:101832001F2C44080F396B3E860087010108F10016
:101842007108F200720886008701811F3E2C72081F
:1018520086008701011D3E2C0130F1007108C8008D
:101862003E2C40081F39003A0319012C013A031992
:101872000B2C033A03190E2C3E2C2100EB1F0800FF
:101882004830E9000030EA006B140230F1007108C0
:10189200EC000800F70071080319542C77086B3E1E
:1018A20086008701592C7708573E86000130870051
:1018B2000108F5007508F800F808031D622C0030D5
:1018C2000800FF307205F5007F307305F6007808D6
:1018D200023E860087017508C03F7608C13F740842
:1018E200F500780A86008701750881004030F5000E
:1018F20078088600870175088105780886008701C7
:101902008115780886008701811771080319902CC8
:101912000430F50077086B3E86008701972C04306F
:10192200F5007708573E860001308700750881066A
:10193200780808002000400E890C0339003A031D84
:101942000800E52C2100EB1708302000E0006008B9
:10195200ED0008008F31002708008F317F27080033
:10196200EE302100E9000030EA006B14EC01EC0AD1
:10197200EB1708008B31FC23080081315721080046
:1019820020004408EF3E2100E9000030EA006B1419
:10199200EC01EC0AEB1708002100EB1720004208CB
:1019A200E0004408EF3E86008701600881000800DD
:1019B2000230D5000030D600D7010030D800003008
:1019C200D9008B31352308002000410884000D30F6
:1019D20004020318080088310435003E8200080022
:1019E2002200DC01DD0121006408023A031D182DEA
:1019F2000830F4007C0A86008701740881004830B0
:101A0200F4000030F5007C08023E8600870174086D
:101A1200C03F7508C13F4830F4007C08860087014A
:101A2200740881007C0886008701811708006D0810
:101A320020004702031D212D21006C0820004602D0
:101A420003182C2D47082100ED01ED072000460860
:101A52002100EC01EC078E3120268C314830F40055
:101A62000030F50020006B08023E860087017408F2
:101A7200C03F7508C13F4830F4006B0886008701FB
:101A8200740881006B088600870181170800220014
:101A9200DF08031D08000130F1007108DF00E008D3
:101AA200031D08000130F1007108E0002100640804
:101AB200023A031D6D2D20006B0A86008701810109
:101AC2004830F1006B0886008701710881006B08BD
:101AD200860087018117080021006408013A031D6E
:101AE20008002200D9010830F10020006E0A8600A9
:101AF2008701710881004030F1000030F2006E0869
:101B0200023E860087017108C03F7208C13F04305F
:101B1200F1006E0886008701710881006E08860058
:101B2200870181172200D901D90A0830F1007C0A05
:101B320086008701710881004030F1000030F20018
:101B42007C08023E860087017108C03F7208C13FCF
:101B52008030F1007C08860087017108810008004E
:101B620020006B08860087010030011B0130F6005F
:101B72000430F4007408EB066D08083A031DCF2DFB
:101B820042087F393D00960016080319CA2D10300D
:101B9200CB2D0430F40074082000ED00210064080D
:101BA200013A031D132E4830F4000030F5002000E6
:101BB2006B08023E860087017408C03F7508C13F6A
:101BC2008E3120268D3121006708023A031DF62D41
:101BD2000430F40020006B0886008701740881003D
:101BE2006B088600870181170800F608031D062E80
:101BF2004830F40020006B088600870174088100D9
:101C02006B0886008701811708000830F400200065
:101C12006B0886008701740881006B0886008701C3
:101C2200811708002200C91F1D2E4C0803191C2E03
:101C32004C088E311B2EC9132100E4010800083024
:101C4200F1007108F300003021006D020830031921
:101C52006C0203183E2E6C08F1007108F300E708CD
:101C6200031D362EE701E70A3E2E6708013A031DDF
:101C72003E2E0230F1007108E7007308F100F20114
:101C82007108EC027208ED3B7308F10020006B0A48
:101C920086008701710881004830F1007108220036
:101CA200E50021006B1C6F2E8C2E21006908840038
:101CB2006A0885000008F100220065088600870195
:101CC2007108810001302100E9070030EA3D01304E
:101CD200F10071082200E5070130F302F30803194D
:101CE2000800562E2100690884006A088500000851
:101CF200F100220065088600870171088100013029
:101D02002100E9070030EA3D0130F10071082200AC
:101D1200E5070130F302F30803190800732E2D3092
:101D22002000E20062082200E10020006F08FD3975
:101D3200031DF52E6F363F39E2000130E235FF3EDA
:101D4200031D9F2E6235203EE3006308EE006E08FD
:101D5200E2006208FC000430E2006208FC066E0841
:101D620086008701010C890C0F390D3A031DF22EF2
:101D7200E501083065020318E32E6E08023E860074
:101D82008701403FE200413FE300620886006308AA
:101D920087000108E4006508403E86008701640868
:101DA20081006E08023E86008701013081074131C1
:101DB2000318810A0130E2006208E5070830650273
:101DC200031CBE2E4030E2000030E3006E08023EEB
:101DD200860087016208C03F6308C13F8731B82788
:101DE20008008A31D7220800FD3020006F05E2008A
:101DF2006208043A031D08008D31B1250800200055
:101E02004008803A031D0800C030F100710821002B
:101E1200EB00722FE7302100E9008330EA00123034
:101E2200EC000030ED00080020004208031D482F9E
:101E32004208F100F201F135F20D2E3071078400F3
:101E42008330723D8500003F2100E900013FEA0036
:101E52006A08F2006908F100023071078400720812
:101E62000318720A85000008F3007308EC006A0880
:101E7200F2006908F1000330710784007208031848
:101E8200720A85000008F3007308ED0008002100C3
:101E9200EB01080003302000420203186C2F4208B5
:101EA200F100F201F135F20D283071078400833020
:101EB200723D8500003F2100E900013FEA00690808
:101EC20084006A0885000008F100F2017108EC0044
:101ED2007208ED0008002100EB0108002100EB016F
:101EE200080020004308013A03190B2F033A031993
:101EF200152F013A03194B2F6F2F08002100EB1702
:101F02000E302000DB009930DA00DC015C08031D92
:101F12009A2F5A0886005B08870081010130DA0790
:101F22000030DB3D0130FB007B08DC075C08031955
:101F32008A2F0030F1000030F2002030F300003030
:101F4200F40020308A3101228F313D000E1720002B
:101F5200DD0102305D020318C22F5D08513E86008A
:101F62000130870081015D08533E86000130870001
:101F720081010130FB007B08DD0702305D02031C9A
:101F8200AE2F0030F1000030F2000130F3000030DB
:101F9200F400EF308A3101228F313D000E132830D8
:101FA200FB007B082000EB002030FB007B08EE00EA
:101FB2006E08FB007B08FC004208FB007B08210046
:101FC200EE00EE08031DEB2F1030FB007B08200013
:101FD200ED00080001302000D5000030D600EE30C0
:101FE200FB007B08D7000130D8000030D9008B31CC
:0E1FF20035232030FB007B082000ED000800A6
:020000040001F9
:04000E00E4CFCFDF8D
:00000001FF
