:100000008031062895130800803109008B31B22B0E
:100010003C302000EE00EF016F30E1006E308431A3
:10002000EF2480312000ED006D08031D1828822880
:100030002300A001A101A201A3010F30A005200807
:10004000F0390938A0009030A10020006E0823008C
:10005000A20020006F082300A30020006E082100EA
:10006000E60020006F082100E80020009A171A0817
:100070002100E7006708F1009030F2006608F30005
:100080006808F40080308C31A424803120005308AB
:10009000203A03194C284D2852283D008E1C512827
:1000A0005228822820005408031D5728602854082D
:1000B00086008701010D010D0139E700E801622882
:1000C000E701E80168086704031D672868287428A9
:1000D000F001A030F1000030F2004030F3000130B8
:1000E0008D3179258031D400F001F00AA030F10083
:1000F0000130F2000430F30001308D317925803178
:100100002100E5002100EA08031D872888281A2914
:100110002200DC08031D8D288E281A29210065087D
:10012000031D93289D28650886008701010D010D98
:1001300001392000E900EA01A0282000E901EA01D4
:100140006A086904031DA528A6281A29643021001D
:10015000EA002300A001A101A201A3010F30A00524
:100160002008F0390838A0009030A100200058087D
:100170002300A2002000D80A2300A3012000580871
:100180002100E600E80120005808493A031DC9286B
:10019000CA28CC283C30D8009A171A082100E7005A
:1001A0006708F1009030F2006608F300F401803037
:1001B0008C31A42480312200DC01DC0A20005308A9
:1001C000203A0319E428E528EA283D008E1CE92896
:1001D000EA281A2920005408031DEF28F82854089B
:1001E00086008701010D010D0139EB00EC01FA28B1
:1001F000EB01EC016C086B04031DFF2800290C299E
:10020000F001A030F1000030F2004030F300013086
:100210008D3179258031D400F001F00AA030F10051
:100220000130F2000430F30001308D317925803146
:100230002100E500080020004203031D2029212998
:10024000352940081F390038031D27292829352959
:10025000DC174108033A031D2E292F2933292200D8
:10026000D601D60A35292200D60120004208031DF6
:100270003A293B292A2A40081F39023A031D4129FD
:1002800042292A2A44080F39003A031948294929E2
:100290002A2A44080F39FA0002307A020318512939
:1002A00052292A2A5308203A031D572958292A2A55
:1002B000DC17C41B5C295D296E2944080F39533EA5
:1002C0008600013087000108E80044080F394F3EDE
:1002D0008600013087000108E7007D2944080F39B6
:1002E000503E860087010108E80044080F394D3E62
:1002F0008600013087000108E700671880298129FE
:100300008329681184296815C41B872988299129A4
:1003100044080F39533E8600013087006808810089
:10032000982944080F39503E8600870168088100EB
:100330004108033A031D9D299E29C12968088600AA
:100340008701811FA429A529B829C41BA829A92987
:10035000B12944080F394F3E8600013087008114CF
:10036000B82944080F394D3E8600013087008114BA
:1003700068088600870101156808860087018117D3
:100380002A2A0430E806680886008701811FC929E7
:10039000CA29DE296808860087018113680886005B
:1003A000870101170530E000E1016808E200E30180
:1003B000E30AE4018C316C248131E229680886006B
:1003C0008701011704302000E806E718E829E92929
:1003D000F029680886008701811FEF29F029142A77
:1003E000C41BF329F429FC2944080F394F3E860029
:1003F000013087008110032A44080F394D3E8600E2
:100400000130870081106808860087013B30810534
:100410000530E000E1016808E200E301E30AE401DD
:100420008C316C248131192A6808860087013B30A1
:100430008105200044080F39983EFA00FB010E3078
:10044000FB3D7A08E5007B08E60065088600660843
:100450008700011008005008860087010030011B4A
:100460000130F3000430D0065308083A031D392A3E
:100470003A2A492A42087F393D0096001608031D92
:10048000422A462A10302000D300492A0430200096
:10049000D3005503031D4D2A4E2A8A2A4830F10005
:1004A0000030F2005008023E860087017108C03F0C
:1004B0007208C13F8E317326823121006C08023AE6
:1004C000031D632A642A6F2A2000500886008701D2
:1004D000043081005008860087018117992AF308AB
:1004E000031D732A742A7F2A200050088600870182
:1004F000483081005008860087018117992A200022
:100500005008860087010830810050088600870166
:100510008117992A2200C91F8E2A8F2A972A4C08F0
:10052000031D932A962A4C088231952AC91320006C
:10053000D50108002D30E40020005F08FD39031DBF
:10054000A22AA32AEF2A5F363F3909070907203E6E
:10055000D6005608D7000430D70656088600870113
:10056000010C890C0F390D3A031DB72AB82AEB2A62
:10057000EB016B08403E860087015608023E84006E
:100580008501003FE900013FEA00690884006A082C
:100590008500000881005608023E86008701013070
:1005A000810741310318810AEB0A08306B02031CF2
:1005B000DA2ADB2AB92A4030E9000030EA0056087E
:1005C000023E860087016908C03F6A08C13F8C313E
:1005D0003A248231FB2A8C310B248231FB2AFD30F4
:1005E0005F05E9006908043A031DF72AF82AFB2A87
:1005F00082312B2282310800150D150D01390800BA
:1006000000343F341834183418341834473418344C
:100610001834183418341834183418344434453421
:10062000463431343234183418343034413442349E
:100630004334183418343634383434343B343D348D
:10064000403433343534373439343A343C343E343E
:10065000F534833495348334C9348334303483346B
:100660000934023465340034023401340034C034B7
:100670003234093404340034003400340134013499
:100680000034003409342434013400340134093492
:1006900000340134013409340434013400340234A8
:1006A000013403340034003407342434013400347A
:1006B000013441340034063424340234013401342A
:1006C0000034063424340234023402340034093451
:1006D000243403340134033401340234013400344B
:1006E0000934243403340234043401340134013431
:1006F0000034093405340134023440340034003409
:100700000034003405342534013401340134093413
:100710000534813402344034003400340034003471
:1007200005342534013401340334343403344D3476
:1007300000346934003463340034723400346F346C
:100740000034633400346834003469340034703465
:1007500000342034003454340034653400346334BD
:100760000034683400346E3400346F3400346C3438
:1007700000346F340034673400347934003420346A
:100780000034493400346E340034633400342E3481
:1007900000341A3403344D340034493400344434C2
:1007A0000034493400342034003445340034783483
:1007B0000034613400346D340034703400346C34EF
:1007C000003465340034123401340034023400340F
:1007D000003400340834D83404345934003402343A
:1007E0000034013402340034013404340334093455
:1007F000043400342000D308031DFF2B002C122CDE
:100800003D008E019201163091009F3097007B30A1
:1008100092000B2C8E158E1D0E2C0F2C0A2C2000F6
:10082000D301D30A5303031D162C172C232C3D0090
:100830008E1A1B2C1C2C232C9001920112141216C0
:1008400002302000D3003D00101D272C282C302C16
:10085000121D2B2C2C2C302C10118A31B0228331FC
:100860003D008E1C342C352C382C20001211EE2C1F
:10087000101C3B2C3C2C472C121C3F2C402C472C92
:100880008631D52683310430D3003D001010101E70
:100890004A2C4B2C522C121E4E2C4F2C522C8A318F
:1008A000462283313D00101F562C572C792C121FE5
:1008B0005A2C5B2C662C73302000E000E101E20131
:1008C000E301E30AE4018C316C2483313D00101311
:1008D0008A312622833121006408031D702C712C7B
:1008E000E403E408031D752C762C792C8F31322714
:1008F00083313D00901E7D2C7E2C852C921E812CF8
:10090000822C852C8B3118238331901C882C892CC8
:100910009B2C921C8C2C8D2C9B2CFF302000E000FB
:100920007F30E100E201E301E30AE4018C316C2451
:1009300083313D0093010430200053020318A12CA1
:10094000A22CA32C352C3D00921DA72CA82C352CB5
:100950002000ED013D00901DAE2CAF2C352C0F0872
:100960002000DF005F0CEC00EC0C6C0C0F39210058
:10097000E9003D00901120005F19BF2CC02CC92C4C
:10098000210069084F3E8600013087000130810652
:10099000D12C210069084D3E8600013087000130CE
:1009A0008106E908031DD52CD62CDA2C82319A2237
:1009B0008331E52C72302000E000E1015F30E2007D
:1009C000E301E4018C316C2483312000ED0A043012
:1009D0006D02031CEC2CED2CAA2C352C0800E60033
:1009E0002200D201D1012000610886008701810127
:1009F00066088600870181012200DB08031D012DA6
:100A0000022D052D8B313C2384318A31172284310C
:100A1000003A03190C2D0D2D732D0030982DF00187
:100A2000F00A00308A31E1228431DE01DE0A8A31A7
:100A3000012284317D2DF001F00A00308A31E1225B
:100A400084310230DE008A31012284317D2D8931EA
:100A5000C9218431F00001308A31E1228431033030
:100A6000DE008A31012284317D2DF00100308A318F
:100A7000E12284318931F321843104302200DE0007
:100A80008A31012284317D2D8931CE218431003893
:100A9000031D4B2D4C2D512D04302000E200E301AD
:100AA000552D05302000E200E30162082200DE003F
:100AB0007D2D8A3135228431FD008931C521843173
:100AC0008B31892384310038031D672D682D6C2DEF
:100AD0000230E400E5016F2DE401E40AE501640859
:100AE0002200DE007D2D5E0884000630040203181B
:100AF0007D2D883104351A3E82008030220052025A
:100B0000031C832D842D862D7F30D20020006608A3
:100B100086008701220051088100200061088600BC
:100B200087012200520881000030D108031D0130E6
:100B30000800FC000B307202003003180130F40092
:100B4000F5012200D101D201750874040319A92D01
:100B5000AA2DB72D7C08A43E8600013087008101B4
:100B60007C08473E860002308700810AC32D7C083E
:100B7000473E86000230870081017C08A43E860043
:100B800001308700810A7C08473E860002308700DA
:100B900007300102003003180130FA007C08A43E3F
:100BA0008600013087000530010200300318013053
:100BB000F600F701F70AFA08031DDF2DE02DF52DE9
:100BC000FA08031DE42DE52DF42DF608031DE92D8B
:100BD000EA2DF42D7C08203E860001308700810834
:100BE000031DF32DF42DF52DF7017708FB007B088D
:100BF000003A0319FC2DFE2D0130FF2D0030F300CB
:100C00007C08203E8600013087000108003A031965
:100C10000A2E0C2E01300D2E003073060319112EF2
:100C2000122E3B2E7C08013E840083300318013EC7
:100C300085000008D100FB08031D1F2E202E232E47
:100C4000F801F9012C2E7208F800F901F835F90DB8
:100C50000530F8070318F90A7808D2007B08031D4D
:100C6000322E372E01308A31842285313B2E0130DD
:100C70008A316E2285317C08203E86000130870053
:100C80007B0881000800560886008701413FF50077
:100C90007508F200F301730822004B02031D522E67
:100CA00072084A020318552E562E582E4A08F5008F
:100CB0007508CA02031CCB03F401692E470886009D
:100CC00087017408483E8400850100088100C70A36
:100CD000F40A75087402031C6E2E6F2E5E2E03300C
:100CE000473E860001308700160001040319792E63
:100CF0007A2EA72E2000570A86008701083081002F
:100D00004830F2000030F3005708023E86008701A9
:100D10007208C03F7308C13F560886008701011B57
:100D2000922E932E9D2E5708860087014830810011
:100D30005708860087018117D42E5708860087013F
:100D4000083081005708860087018117D42E2000C3
:100D5000570A86008701083081004030F2000030D9
:100D6000F3005708023E860087017208C03F7308EF
:100D7000C13F57088600870104308100570886006C
:100D80008701811722004C08031DC72ECA2E4C086C
:100D90008631C92EC9132000D208031DD02ED12EB2
:100DA000D42E8F31322786310800210012113D00E8
:100DB0009301900198010E30F3009930F200F40194
:100DC00072088600730887008101F20A0319F30A8A
:100DD000F40A7408031DED2EE02E16303D0091003C
:100DE0009F3097007B309200F501750809070907CD
:100DF000203E860087010030C03F0030C13FC23F27
:100E0000C33FF50A08307502031C072F082FF52E83
:100E10003D000E1796010E120E1390112000DC01FA
:100E20002200C901CA01CB013D009019182F192FCA
:100E30000D2F01302100E2000130E3002200D80133
:100E4000D901D701F5017508503E8600870181015F
:100E50007508533E860001308700810175084D3EBC
:100E6000860001308700810175084F3E8600013001
:100E700087008101F50A02307502031C402F412FC3
:100E8000232F28302000D00016303D00980040303D
:100E9000F0000030F10070082000A2007108A300EB
:100EA0000830A1000430A000A0172100EE012200AC
:100EB000DA012000D30108003D000E122000DC1BE7
:100EC000622F632F9D2F2200C91F672F682F782F55
:100ED00002302000D5002200D908031D702F712F89
:100EE000742F8D312D2587312100E301E201DF2FA1
:100EF0002000570A86008701083081004030F30047
:100F00000030F4005708023E860087017308C03F96
:100F10007408C13F5708860087010C3081005708CC
:100F20008600870181175008860087010430810000
:100F30005008860087018117DF2FC01FA02FA12F27
:100F4000B92FD501D50A2200D808031DA82FA92F33
:100F5000AC2F8D312D2587312100E301E2012000E6
:100F6000D208031DB42FB52FDF2F8F3132278731E1
:100F7000DF2F0230D500570A860087010830810034
:100F80004030F3000030F4005708023E860087012D
:100F90007308C03F7408C13F5708860087010430BA
:100FA000810057088600870181172100E301E201D3
:100FB0002000D208031DDD2FDE2FDF2FB52F080004
:100FC0002100E5012000D4013C30D8002200DC01E2
:100FD000DC0A2100EA011E30F40001308B3162236B
:100FE0008731F001A030F1000030F2004030F30012
:0E0FF00001308D31792587312000D4000800B2
:101000008D31022D8D31062D8D312C2D8D31062DFA
:101010008D312C2D8C31ED2C8C31F12C8D31182D06
:101020008C31F92C8C31F52C8D310A2D8D31102D10
:101030008D312C2D85310F2D85311B2D8531272D9F
:101040008531352D8531442D8531592D8A31992AA7
:101050008A31862A8A31892A8A31862A8A318C2ADB
:101060008A31832A8A31702A8A31732A8A31702A16
:101070008A31762A8A316D2A8A315A2A8A315D2A42
:081080008A315A2A8A31602AE4
:10138A001C0808001513080022000E0E890C0139EA
:10139A000800003021009D1C01300800240094013F
:1013AA0035309500970108002400150E890C890C28
:1013BA0001390800640080010131890BE0290034F9
:1013CA0021000D168D160D178D138E130800893105
:1013DA00E52189318931D3218931080021001D088D
:1013EA0083391C389D009D14080021006A08031DDA
:1013FA00FF29002AEA030800DD01DD0A210095120F
:10140A0095158B120B11200095010800F00024009D
:10141A001108951370089100141C142A152A112A10
:10142A0011080800F00122005D08031D1D2A232A65
:10143A000B19202A212A232AF001F00A7008DD005C
:10144A0008002200D708031D2B2A2C2A342ADA0A7C
:10145A00DA08031D312A322A342AFF30DA0008005A
:10146A0027302100ED0A6D02003003180130F00028
:10147A0027306D02031C422A432A442AED017008D0
:10148A000800121510128E142200D701D70ADA01A9
:10149A0075302000E000E101E201E301E4018C3152
:1014AA006C248A310800F000632A21000E116D2A8B
:1014BA0021008E106D2A21008E116D2A7008840079
:1014CA000530040203186D2A883104353A3E820039
:1014DA000800F000792A22000E11832A22008E10B9
:1014EA00832A22008E11832A7008840005300402A0
:1014FA000318832A88310435303E82000800F00040
:10150A008F2A22000E15992A22008E14992A220067
:10151A008E15992A70088400053004020318992A46
:10152A0088310435263E82000800F4007408F5006C
:10153A00A42A75088600870170088100F50A01301F
:10154A00F2020030F33B720A0319730A031DAE2A32
:10155A00AF2A9E2A08002200D70174302000E0003A
:10156A00E101E201E301E4018C316C248A313D009E
:10157A008E101211C12A10111019C42AC52AC02AA4
:10158A002200DA010800F100D52AFC302100990076
:10159A00903027009B0001308A3158228A31E02A94
:1015AA007108003A0319CA2A013A0319E02A033AD0
:1015BA000319E02AE02A0800F2000030F208031DAD
:1015CA000130F100F10E22000E087106EF397106A2
:1015DA008E000030F008031D0130F100F10EF10D0C
:1015EA000E087106DF3971068E00080000308A3154
:1015FA00C8228A318631D5268A318931EC218A314D
:10160A006400803108208A318331FA238A312030FC
:10161A0053020318112B122B132B052B3D000E0816
:10162A00052B80310628181C1B2B1C2B3A2B20005B
:10163A005608860087010108803A031D252B262BB0
:10164A00382B5008860087010108843A031D2E2B87
:10165A002F2B382B5608860087010C30810056083C
:10166A008600870181173D00181090120800DB01DF
:10167A00DB0A21008E150E128E1223008C018E15A4
:10168A0022000E128E1223000C1221000C161113C6
:10169A001D149E131E088F3960389E00FC309E056B
:1016AA008F309F05033020009C0478309C04210071
:1016BA009110200091101C150800F900741D662B6A
:1016CA00672B6C2BF00179088B31DD238B31F41CED
:1016DA006F2B702B762BF001F00A79088B31DD2302
:1016EA008B317908983EF500F6010E30F63D750803
:1016FA00F7007608F8007408F5007708860078087D
:10170A0087007508810008002000E0005908203E83
:10171A008600023087000108F1006008F2005908CB
:10172A00853199258B3120005908203E86000230E8
:10173A00870060088100D90A273059020318A62BAE
:10174A00A72BAB2B7D08031DAB2BAC2BD90159085A
:10175A00003A00300319013008005030840000308C
:10176A00850010308931DF218B31E0308400003070
:10177A00850010308931DF218B312030840001301F
:10178A0085003F308931DF218B31A430840001305C
:10179A00850027308931DF218B31203084000230E7
:1017AA0085004E308931DF218B3120008A31FB2AB6
:1017BA00F2002030F3007008F100F13572080907D1
:1017CA000907710709070907F307730886008701E4
:1017DA008113F008031DF22BF32BFB2B7208533EE7
:1017EA0086000130870073088100012C7208503E80
:1017FA008600870173088100730886008701011338
:10180A007308043E86008701011708005508023A4A
:10181A00031D102C112C152C863143268C31392CA2
:10182A00D5012200D508031D1B2C1C2C382C2000A6
:10183A00570A86008701083081004030F6000030E0
:10184A00F7005708023E860087017608C03F7708EE
:10185A00C13F5708860087010C308100570886006F
:10186A0087018117392CD50108002100EC012000DD
:10187A00D2012200D801D901D5012000D501500892
:10188A008600870181130430D0065008860087013C
:10189A0081130430D0065708860087018113DC01C2
:1018AA00DD01DE012200C901CA01CB018C31E3242A
:1018BA008C3103302000E000E101E201E301E401A0
:1018CA008C316C248C3187315C278C3108007C2C5C
:1018DA008E3117268C318931FA218C31A32C8E3125
:1018EA0017268C31A32C8731E0278C31A32C610871
:1018FA00003A0319842C7F3A03199E2CA32C600802
:10190A00013A0319782C033A0319A32C013A031953
:10191A00A32C063A0319A32C773A0319A32C013AEC
:10192A0003196D2C073A0319742C013A0319742C04
:10193A00A32C6008FF3A0319A32CA32C0800F50076
:10194A000A30F6008931D9218C31003A0319AE2CBC
:10195A00AF2CB22C8931C7218C318231FC228C31D7
:10196A00003A0319B92CBA2CBD2C803102208C31D3
:10197A0022008D178D1320008D1EC42CC52CCA2C55
:10198A00F608031DC92CCA2CC02C8D1ACD2CCE2CBE
:10199A00E22C75088A310B228C3171088A310B22AC
:1019AA008C3172088A310B228C3173088A310B22EE
:1019BA008C3174088A310B228C3108002000400EC9
:1019CA00890C0339003A0319EB2CEC2C222D2C2D0F
:1019DA00DC170830D3002C2D8F3194278C312C2D15
:1019EA008E31D1268C312C2DEE30DA000030DB001E
:1019FA005C14DD01DD0ADC172C2D8D31C7258C31F5
:101A0A002C2D81311B218C312C2D4408EF3EDA001C
:101A1A000030DB00FD2CDC174408EF3E860087010E
:101A2A00420881002C2D0230E000E101E201E301CD
:101A3A00E4018C316C248C312C2D410884000D304A
:101A4A00040203182C2D88310435003E8200080058
:101A5A00D801D90120005508023A031D352D362D2B
:101A6A00512D570A86008701083081004830F1005D
:101A7A000030F2005708023E860087017108C03F15
:101A8A007208C13F5708860087014830810057080D
:101A9A00860087018117782D5E084702031D572D9E
:101AAA005D08460203185A2D5B2D5F2D4708DE009C
:101ABA004608DD008E3173268D314830F100003042
:101ACA00F20020005008023E860087017108C03FDC
:101ADA007208C13F500886008701483081005008CB
:101AEA008600870181170800F6007008031D7E2D05
:101AFA00852D7608503E860087010108F7008C2D57
:101B0A007608533E8600013087000108F700F7087F
:101B1A00031D902D912D932D0030C62DFF30710598
:101B2A00F4007F307205F5007708023E86008701CF
:101B3A007408C03F7508C13F770A86008701730899
:101B4A008100770886008701403081057708860082
:101B5A008701811577088600870181177008031DA0
:101B6A00B72DBE2D7608503E8600870104308106C7
:101B7A00C52D7608533E8600013087000430810661
:101B8A00770808002000C8010030C900FE2DDC17C4
:101B9A0022005603031DD22DD32D0A2E2000C8146D
:101BAA000A2EDC170A2EDC17C41BDC2DDD2DE62DD0
:101BBA0044080F39533E8600013087000108F000BF
:101BCA00ED2D44080F39503E860087010108F000C8
:101BDA00700886008701811FF32DF42D0A2E7008E4
:101BEA0086008701011DFA2DFB2D0A2E0130C8003F
:101BFA000A2E40081F39003A0319CC2D013A03195D
:101C0A00D62D033A0319D82D0A2E2000DC1F0E2EDA
:101C1A000F2E162E4830DA000030DB005C1402303A
:101C2A00DD0008003D008E1C1B2E1C2E682E013084
:101C3A008A316E228E31722E210060036104031DE7
:101C4A00272E282E2D2E01308A3184228E316E2E97
:101C5A0060084B3A6104031D332E342E392E0130AD
:101C6A008A316E228E316E2E00306102973003194E
:101C7A006002031C412E422E452EE001E1016E2E28
:101C8A006E2E210060036104031D4C2E4D2E522E30
:101C9A0001308A3184228E316E2E6008323A610414
:101CAA00031D582E592E5E2E01308A316E228E3136
:101CBA006E2E03306102B73003196002031C662ED0
:101CCA00672E6E2E422E20005308203A0319212E29
:101CDA00462E2100E00A0319E10A08000830F00044
:101CEA0000305E02083003195D0203187D2E7E2E35
:101CFA00902E5D08F0002100EC08031D852E862E2B
:101D0A00892EEC01EC0A902E6C03031D8D2E8E2E6B
:101D1A00902E0230EC0070082000DD02031CDE0366
:101D2A00500A860087017008810048302100EB00C4
:101D3A0020005C18A12EA22ECB2EB42E21006B08F7
:101D4A008600870120005A0884005B088500000885
:101D5A008100DA0A0319DB0A2100EB0AF003F00812
:101D6A00031DB82EB92EA32ED02E21006B08860093
:101D7A00870120005A0884005B088500000881005A
:101D8A00DA0A0319DB0A2100EB0AF003F008031D43
:101D9A00CF2ED02EBA2E08002000DC170E30FB0002
:101DAA009930FA00FC017A0886007B0887008101D5
:101DBA00FA0A0319FB0AFC0A7C08031DE52ED82E31
:101DCA00F001F1012030F200F30120308A319A2229
:101DDA008E313D000E17FD017D084D3E8600013013
:101DEA00870081017D084F3E86000130870081010E
:101DFA00FD0A02307D02031C032F042FF12EF0018D
:101E0A00F101F201F20AF301EF308A319A228E319E
:101E1A003D000E1328302000D0002030D60056088E
:101E2A00D70042082100EE00EE08031D1D2F1E2FC9
:101E3A00222F10302000D300312F2000E001E00AC9
:101E4A00E101EE30E200E301E30AE4018C316C24A3
:101E5A008E3120302000D30008002100E208031D43
:101E6A00372F382F932F0130E200E308031D3E2F4E
:101E7A003F2F932F0130E30020005508023A031D3B
:101E8A00472F482F562F500A860087018101500894
:101E9A008600870148308100500886008701811733
:101EAA00932F5503031D5A2F5B2F932F2200D50121
:101EBA002000560A86008701083081004030F00071
:101ECA000030F1005608023E860087017008C03FC4
:101EDA007108C13F56088600870104308100560800
:101EEA008600870181172200D501D50A2000570AEA
:101EFA0086008701083081004030F0000030F10090
:101F0A005708023E860087017008C03F7108C13F2A
:101F1A0057088600870180308100932F080020002F
:101F2A004008803A031D9A2F9B2FFF2FC030DC00F8
:101F3A00F42FE330DA008330DB001230DD00DE01FB
:101F4A00FF2F4208031DAA2FAB2FD52F4208F000FE
:101F5A00F101F035F10D2E30700784008330713DA8
:101F6A008500003FDA00013FDB005B08F1005A08F8
:101F7A00F00002307007840071080318710A8500A6
:101F8A000008DD005B08F1005A08F0000330700712
:101F9A00840071080318710A85000008DE00FF2F0B
:101FAA00DC01FF2F033042020318DC2FDD2FD52F6F
:101FBA004208F000F101F035F10D28307007840075
:101FCA008330713D8500003FDA00013FDB005A088B
:101FDA0084005B0885000008DD00DE01FF2F43084E
:101FEA00013A03199E2F033A0319A62F013A03193E
:061FFA00D72FD52F0800CF
:020000040001F9
:04000E00FCCFCFDF75
:00000001FF
