:0400000080310B2818
:10000800803120007F08F0007008FF00090080316F
:100018000D28FC01EB01EC01ED01EE01EF01E030F0
:10002800840000308500103089311C218031203057
:100038008400013085003F3089311C218031A43093
:10004800840001308500403089311C218031203006
:10005800840002308500203089311C21200089313C
:100068009729203020006D02031C08003D008E18DF
:1000780008002200540803194F28540886008701F5
:10008800010D010D01392000E100E2016108E300E2
:100098006208E40052282000E301E40163086404D4
:1000A800031D6828F101A030F2000030F300403051
:1000B800E1006108F40001308C319A24803120007D
:1000C800E20062082200D4003C302000E100610810
:1000D800E900EA016A30E1006108DB006930853136
:1000E800C0258031003A0319AE2800302300A30050
:1000F8000030A2000030A1000030A0000F30A005A1
:100108002008F0390938A00090302000E10061088B
:100118002300A10020006908E10061082300A20073
:1001280020006A08E10061082300A300F101F10A38
:10013800A030F2000130F30004302000E100610833
:10014800F40001308C319A2480312000E2006208EA
:100158002100E3000130893157218031003A031929
:10016800132921006508031D080022005B080319F4
:100178000800210063080319CF2863088600870157
:10018800010D010D01392000E100E2016108E500DF
:100198006208E600D2282000E501E6016508660449
:1001A800031D08006430E10061082100E50000300B
:1001B8002300A3000030A2000030A1000030A000FE
:1001C8000F30A0052008F0390938A0009030200031
:1001D800E10061082300A100210066082000E10079
:1001E80061082300A2007F302000E100610823009D
:1001F800A300F101F10AA030F2000130F30004304D
:100208002000E1006108F40001308C319A242000BC
:10021800E20062082100E3002200DB01080021005F
:100228006508031D080022005B08031D0800210063
:10023800630803192D29630886008701010D010D44
:1002480001392000E100E2016108E7006208E800E6
:1002580030292000E701E80167086804031D080049
:100268006430E10061082100E50000302300A300AC
:100278000030A2000030A1000030A0000F30A0051F
:100288002008F0390938A00090302000E10061080A
:100298002300A100210066082000E1006108230076
:1002A800A20001302000E10061082100E6072300D8
:1002B800A301493021006606031D68293C3020004F
:1002C800E10061082100E600F101F10AA030F20026
:1002D8000130F30004302000E1006108F40001302F
:1002E8008C319A242000E20062082100E3002200F9
:1002F800DB01DB0A080020004203031D95294008A2
:100308001F39003A031D95292100EB1703302000FF
:100318004106031D93292200D001D00A9529220005
:10032800D00120004208031D080040081F39023A86
:10033800031D080044080F39003A0319080044084F
:100348000F39DA0002305A020318080020306D060F
:10035800031D08002100EB172000C41BC129440815
:100368000F394D3E8600013087000108DA005A082F
:10037800DF0044080F39493ECD2944080F396B3E48
:10038800860087010108DA005A08DF0044080F399F
:10039800473E8600013087000108DA005A08DE006F
:1003A8005E18DB29FB30DA005A08DF05DC295F1507
:1003B800C41BE7295F08DA0044080F394D3E860060
:1003C80001308700EE295F08DA0044080F396B3ED8
:1003D800860087015A08810003304106031D0F2A51
:1003E8005F0886008701811F062AC41BFF2944086D
:1003F8000F39493E022A44080F39473E860001302A
:10040800870081145F088600870101155F08860050
:100418008701811708000430DA005A08DF065F08F0
:1004280086008701811F332A7F30DA005F08860043
:1004380087015A0881055F08860087010117003087
:10044800D6000530D5005F08DA005A08D700013019
:10045800D8000030D9008B3147238131382A200059
:100468005F0886008701011704302000DA005A0867
:10047800DF06DE18442A5F0886008701811F682A84
:10048800C41B4A2A44080F39493E4D2A44080F39EB
:10049800473E86000130870081103B30DA005F0854
:1004A800860087015A0881050030D6000530D5003E
:1004B8005F08DA005A08D7000130D8000030D900A8
:1004C8008B3147238131702A3B302000DA005F08E6
:1004D800860087015A088105200044080F39983E94
:1004E800DA00DB010E30DB3D5A08DC005B08DD007A
:1004F800FE30DA005C0886005D0887005A0881052E
:1005080008002D302000E20062082200D7002000F9
:100518006F08FD39031DEA2A6F363F39E2000130C2
:10052800E235FF3E031D942A6235203EE30063084E
:10053800EE006E08E2006208FC000430E200620887
:10054800FC066E0886008701010C890C0F390D3AEC
:10055800031DE72AE501083065020318D82A6E084A
:10056800023E86008701403FE200413FE300620807
:100578008600630887000108E4006508403E86009D
:100588008701640881006E08023E860087010130F9
:10059800810741310318810A0130E2006208E5074A
:1005A80008306502031CB32A4030E2000030E30043
:1005B8006E08023E860087016208C03F6308C13F9B
:1005C8008B31BF2308008A31E8220800FD30200063
:1005D8006F05E20004306206031D08008D313E25D8
:1005E80008002200DC01DC0A2100951295158B1207
:1005F8000B112000950108001534163417341834EF
:1006080011341234133414340D340E340F341034BE
:1006180009340A340B340C340534063407340834EE
:100628000134023403340434003400340034003418
:100638000034003400340034F1348334913483348A
:10064800C53483342C3483340A34053407342F34C6
:100658000934023465340034023401340034C034BF
:1006680032340934043400340034003401340134A1
:10067800003400340934243401340034013409349A
:1006880000340134013409340434013400340234B0
:100698000134033400340034073424340134003482
:1006A8000134413400340634243402340134013432
:1006B8000034063424340234023402340034093459
:1006C8002434033401340334013402340134003453
:1006D8000934243403340234043401340134013439
:1006E8000034093405340134023440340034003411
:1006F800003400340534253401340134013409341C
:100708000534813402344034003400340034003479
:1007180005342534013401340334343403344D347E
:1007280000346934003463340034723400346F3474
:10073800003463340034683400346934003470346D
:1007480000342034003454340034653400346334C5
:100758000034683400346E3400346F3400346C3440
:1007680000346F3400346734003479340034203472
:100778000034493400346E340034633400342E3489
:1007880000341A3403344D340034493400344434CA
:10079800003449340034203400344534003478348B
:1007A8000034613400346D340034703400346C34F7
:1007B8000034653400341234013400340234003417
:1007C800003400340834D834043459340034023442
:1007D800003401340234003401340434033409345D
:1007E800043420006D08031D092C3D008E01920180
:1007F800163091009F3097007B3092008E19062C9E
:100808008E15022C2000ED01ED0A6D03031D182C36
:100818003D008E1A182C9001920112141216023003
:100828002000E6006608ED003D001019121D252C79
:10083800FB302000E60066083D0090058931AD21B7
:1008480083313D008E1C2B2C20001211080010183B
:10085800121C3B2C86316D26833104302000E600C3
:100868006608ED00FE30E60066083D009005101AA7
:10087800121E472C893181218331EF302000E60098
:1008880066083D009005101F6A2C121F582C733003
:100898002000D5000030D600D7010130D800003044
:1008A800D9008B3147238331BF302000E60066082A
:1008B8003D009005220057080319642C0130D70227
:1008C8005708031D6A2C8D31A52583313D00901AE8
:1008D800921E712C8A31732283313D009018921C2C
:1008E800842CFF302000D5007F30D600D70101309E
:1008F800D8000030D9008B31472383313D00930164
:10090800043020006D0203188B2C121108003D00E2
:10091800921DE02C2000E801D92C0F082000E600E9
:100928006608EF006F0CE600E60C660C0F39E7006E
:1009380067082200D800F7302000E60066083D006E
:10094800900520006F19AC2C22005808493EAF2CA6
:1009580022005808473E8600013087000108013907
:100968002000E6000130E60601086606FE39660644
:10097800810022005808031DC52C8231852283314D
:10098800D42C72302000D5000030D6006F30E6003D
:100998006608D7000030D800D9008B31472383314F
:1009A80001302000E6006608E807043068020318F2
:1009B800E02C3D009019912C200012110800200015
:1009C800DA0028308400833085000008F4007208BB
:1009D80074020318F12C0130F22C0030F500F601F6
:1009E8007508D0007608D10028308400833085004F
:1009F8000008F400730874020318042D0130052D53
:100A08000030F500F6017508D2007608D300220000
:100A1800CB01CC0120005208530403191E2D5A089B
:100A2800A43E86000130870081010130F4005A0895
:100A3800C43E282D5A08C43E860001308700810133
:100A48000130F4005A08A43E86000130870074087B
:100A580081075A08C43E8600013087002A30840086
:100A68008330850000080102031C3C2D01303D2D18
:100A78000030F4007408D8005A08A43E86000130FB
:100A88008700293084008330850000080102031C98
:100A98004F2D0130502D0030F4007408D600D701D6
:100AA800D70A5808031D662D5808031D652D5608DA
:100AB800031D652D5A08203E860001308700010875
:100AC8000319D7015708F4007408D9005908031D01
:100AD8006F2D0130702D0030F4005A08203E86003A
:100AE800013087000108031D7B2D01307C2D00306B
:100AF80074060319B52D2B30840083308500000857
:100B0800F4005A08003E840083300318013E850033
:100B180000087407F50075082200CB00200059086A
:100B2800031D992DD401D501A42D7308F400F501F6
:100B3800F435F50D7408053ED4000030753DD50038
:100B48005408F40074082200CC0020005908031946
:100B5800B22D01308931FB218431B52D0130893125
:100B6800DF2120005908F4005A08203E8600013091
:100B780087007408810008002000E0002200CC01F2
:100B8800CB0120005B088600870181016008860090
:100B98008701810122005908031DD52D8A3133228E
:100BA80085318731F5278531003A0319482E003001
:100BB8000800F101F10A0030893145218531220010
:100BC800DE01DE0A8231F5228531532EF101F10A68
:100BD80000308931452185310230FB007B08220035
:100BE800DE008231F5228531532E89311721853176
:100BF800FB007B08F1000130893145218531033044
:100C0800FB007B082200DE008231F5228531532E5D
:100C1800F10100308931452185318931292185311A
:100C28000430FB007B082200DE008231F52285318A
:100C3800532E893122218531003A031D252E043097
:100C4800262E05302000DC000030DD005C08432E35
:100C580089316C218531FB007B08F700893114212B
:100C680085318B3117238531003A031D3D2E023023
:100C78003E2E01302000DE000030DF005E08FB0061
:100C88007B082200DE00532E22005E088400063016
:100C980004020318532E88310435263E82002200B0
:100CA8004B08FB0020006008860087017B08810054
:100CB80022004C08FB0020005B08860087017B08A7
:100CC800810022004B0803196B2E01300800003008
:100CD8000800210012113D009301900198010E3087
:100CE800F3009930F200F4017408031D8B2E72088A
:100CF80086007308870081010130F2070030F33D58
:100D08000130F1007108F407740803197B2E1630BE
:100D18003D0091009F3097007B309200F50108302C
:100D280075020318B02E7508F1000130F135FF3E49
:100D3800031D9A2E7135203E860087010030C03F82
:100D48000030C13FC23FC33F0130F1007108F507D1
:100D580008307502031C972E3D000E1796010E12DF
:100D68000E133D00901DC32EF730F1007108900559
:100D78002100EB012200C201C301C401B52E0130DC
:100D8800F10071082200D5000130F1007108D60089
:100D9800D201D301D101F501023075020318F32EF7
:100DA80075086B3E86008701810175084D3E8600F7
:100DB8000130870081017508473E860001308700B1
:100DC80081017508493E86000130870081010130A4
:100DD800F1007108F50702307502031CD42E283083
:100DE800F10071082000EB0016303D00980000303B
:100DF8002000A3004030A2000830A1000430F10018
:100E08007108A000A0172100EE012000ED010800E4
:100E180020006E0886008701413FF6007608F3003F
:100E2800F401740822004402031D1C2F73084302B6
:100E38000318222F4308F3007308F6007608F3001E
:100E4800F4017308C3027408C43BF50176087502FF
:100E58000318422F7508483E860087010108F300F1
:100E6800400886008701730881000130F300730889
:100E7800C0070130F3007308F5072A2F430844041C
:100E88000319772F0830F3007C0A8600870173085E
:100E980081004830F3000030F4007C08023E8600F0
:100EA80087017308C03F7408C13F20006E088600A0
:100EB8008701011B6B2F4830F3007C0886008701EF
:100EC800730881007C0886008701811708000830B4
:100ED800F3007C0886008701730881007C0886007F
:100EE8008701811708000830F3007C0A8600870113
:100EF800730881004030F3000030F4007C08023EA3
:100F0800860087017308C03F7408C13F0430F300AE
:100F18007C0886008701730881007C0886008701A9
:100F280081172200C21321006208031D08008D31B9
:100F3800A52508002000400E890C0339003A031D3E
:100F48000800E92F2100EB1708302000E0006008B6
:100F5800ED0008008E317C2608008E31FB26080043
:100F6800EE302100E9000030EA006B14EC01EC0AD5
:100F7800EB1708008C314D24080081317F210800CF
:100F8800EF3020004407E00060082100E90000304D
:100F9800EA006B14EC01EC0AEB1708002100EB17D0
:100FA80020004208E0004408EF3E86008701600800
:100FB800810008000030D6000230D500D70100308B
:100FC800D800D9008B31472308002000410884004D
:100FD8000D3004020318080088310435003E8200F1
:100FE8000800F10122005C08031D0B19FD2FF10117
:100FF800F10A7108DC0008008731BE2F8731C12F44
:101008008731F42F8731C12F8731F42F8731A62FED
:101018008731AE2F8731DE2F8731B42F8731B12F3B
:101028008731C42F8731D22F8731F42F8A31322A62
:101038008A31192A8A311C2A8A311F2A8A31222A9E
:101048008A31252A8531DD2D8531EA2D8531F92D25
:1010580086310C2E86311D2E86312C2E8A31162A89
:101068008931FD298A31002A8A31032A8A31062AE0
:101078008A31092A8931FA298931E1298931E42912
:0C1088008931E7298931EA298931ED29F5
:1012280021001C08080022000E0E890C0139080054
:10123800640080010131890B1D290034031021004D
:101248009D1C03140030093D080021001D08833946
:101258001C389D009D14080021006508031908002A
:101268000130E5020800F1003C2924008C16080032
:101278007108003A03194429013A03193929442904
:101288000800F200720803194C2922000E164E2994
:1012980022000E1271080319542922008E16080024
:1012A80022008E120800F1006229031020008C1E13
:1012B80003140030093D0800003008007108003AA6
:1012C80003196029013A031959296A2900300800CD
:1012D8000130F10071082200DD0720305D02031C97
:1012E8007729013078290030F2007208F3002030A5
:1012F8005D020318DD01730808003D001215EF3088
:10130800FB007B0890058E142200D101D10A7530AC
:101318002000D5000030D600D7010030D800D90011
:101328008B314723080000308A3197228931863172
:101338006D2689318331F5238931203020006D02F3
:10134800031C9E293D008E189E2980313520893145
:101358009E292200D10174302000D5000030D6002B
:10136800D7010030D800D9008B31472389313D009F
:101378008E101211101D0800FB30FB007B08900531
:10138800BE29F7007708F5007508F6000130F3026A
:101398000030F43B730A0319740A03190800710832
:1013A800F500760886008701750881000130F50090
:1013B8007508F607CA29F100F02922000E11080065
:1013C80022000E10080022008E10080022000E11C4
:1013D800080022008E1108007108840006300402FB
:1013E80003180800883104353E3E82000800F100E9
:1013F8000C2A22000E15080022000E1408002200F4
:101408008E14080022000E15080022008E15080010
:101418007108840006300402031808008831043576
:10142800323E82000800F100282A21000E1108002F
:1014380021000E10080021008E10080021000E1156
:10144800080021008E11080071088400063004028B
:1014580003180800883104351A3E8200080022006B
:10146800D901D90A21008E150E128E1223008C0183
:101478008E1522000E128E1223000C1221000C165B
:1014880011131D149E131E088F3960389E00FC30FE
:101498009E058F309F0508002000D200781D592A2C
:1014A800F10152088B3180238A31F81C612AF1013D
:1014B800F10A200052088B31802320005208983E00
:1014C800F900FA010E30FA3D7908D0007A08D10007
:1014D80050088600510887007808810008003D0000
:1014E800181C922A20006E088600870180300106A9
:1014F800031D902A6B088600870184300106031DAE
:10150800902A0C30F1006E0886008701710881006E
:101518006E088600870181173D001810DF30F10042
:10152800710890050800F2002100951324008C1121
:101538000C128C12B12AFC3021009900903027003F
:101548009B0000308A3117228A3101308A311722F4
:101558008A3101308931372108007208003A0319AD
:101568009F2A013A0319BC2A033A0319BC2ABC2A48
:1015780008002100E3012200D4013C302000D30000
:1015880053082100E6002200DB01DB0A2100E50107
:101598001E302000D3005308F80001308A31502251
:1015A8008A31F101A030F2000030F3004030200011
:1015B800D3005308F40001308C319A242000D40061
:1015C80054082200D4000800023021006406031DDC
:1015D800F02A87310C2708002100E40122004F0877
:1015E800031D152B0830F7007C0A86008701770851
:1015F80081004030F7000030F8007C08023E860089
:1016080087017708C03F7808C13F0C30F7007C0895
:1016180086008701770881007C088600870181178A
:101628000800CF010800FA0021006808203E860063
:10163800023087000108F8007808F2007A08F900FB
:101648007908F30068088431E3248B317A08F800BC
:1016580021006808203E8600023087007808810053
:101668000130F8007808E8072030680203183F2B9B
:1016780077080319402BE8016808031D452B013042
:10168800080000300800572B8C3100248B31893139
:10169800302108008C31002408008C310024080017
:1016A8008A31BD22080020005608003A0319602B31
:1016B8007F3A03197A2B7F2B5508013A0319542BCB
:1016C800033A03197F2B013A03197F2B063A0319B2
:1016D8007F2B773A03197F2B013A0319482B073AD6
:1016E8000319512B013A03194E2B7F2B5508FF3A4A
:1016F80003197F2B7F2B0800F6002030F2007208B8
:10170800F7007108F2000130F235890B882B760852
:10171800F3000130F335FF3E031D8E2B733572073E
:10172800F4000130F435FF3E031D962B7435F500A7
:101738007508F70777088600870181137108031D6C
:10174800AD2B7708F20076084D3E86000130870001
:10175800B32B7708F20076086B3E86008701720883
:10176800810077088600870101137708043E860008
:101778008701011708002100E701E2012200D201D8
:10178800D301CF012100E4017F302000E1006B0884
:1017980086008701610881050430E1006108EB06D5
:1017A8007F30E1006B0886008701610881050430FD
:1017B800E1006108EB067F30E1007C0886008701C4
:1017C800610881052100EB01EC01ED012200C20155
:1017D800C301C40187319E278B3100302000D60019
:1017E8000330D500D7010030D800D9008B3147230A
:1017F8008B318F317A2708003D008E1C412C003038
:101808008931DF210800210060036104031D112CC8
:1018180000308931FB218C31472C4B302100600688
:101828006104031D1C2C00308931DF218C31472CC9
:1018380000302100610297303A2C210060036104D6
:10184800031D2B2C00308931FB218C31472C323081
:10185800210060066104031D362C00308931DF2128
:101868008C31472C033021006102B7300319600224
:10187800031C472CE001E101472C20006D08203AA9
:101888000319072C212C01302100E0070030E13D2D
:1018980008002000C801C901812C2100EB17220093
:1018A8005003031D8D2C2000C8148D2C2100EB172C
:1018B8008D2C2100EB172000C41B692C44080F391C
:1018C8004D3E8600013087006E2C44080F396B3E70
:1018D800860087010108F1007108F200720886008D
:1018E8008701811F8D2C720886008701011D8D2CB0
:1018F8000130F1007108C8008D2C40081F39003AEA
:101908000319512C013A03195A2C033A03195D2C77
:101918008D2C2100EB1F08004830E9000030EA0058
:101928006B140230F1007108EC000800F700710830
:101938000319A32C77086B3E86008701A82C77082B
:101948004D3E8600013087000108F5007508F80053
:101958007808031DB12C00300800FF307205F5002F
:101968007F307305F6007808023E86008701750807
:10197800C03F7608C13F7408F500780A86008701E1
:10198800750881004030F5007808860087017508E1
:101998008105780886008701811578088600870107
:1019A800811771080319DF2C0430F50077086B3EA6
:1019B80086008701E62C0430F50077084D3E860046
:1019C8000130870075088106780808002200D201D6
:1019D800D301023021006406031D112D0830F400E4
:1019E8007C0A86008701740881004830F4000030C2
:1019F800F5007C08023E860087017408C03F750820
:101A0800C13F4830F4007C088600870174088100D3
:101A18007C0886008701811708006D0820004702AE
:101A2800031D1A2D21006C08200046020318232DDF
:101A380047082100ED00200046082100EC008E3107
:101A48000D264830F4000030F50020006B08023EF7
:101A5800860087017408C03F7508C13F4830F4000C
:101A68006B0886008701740881006B08860087016F
:101A78008117080020006B08860087010030011BD1
:101A88000130F6000430F4007408EB0608306D06E7
:101A9800031D5C2D42087F393D0096001608031986
:101AA800572D1030582D0430F40074082000ED0034
:101AB80021006403031D9F2D4830F4000030F50019
:101AC80020006B08023E860087017408C03F750835
:101AD800C13F8E310D268D31023021006706031D6E
:101AE800822D0430F40020006B08860087017408FA
:101AF80081006B0886008701811708007608031D9E
:101B0800922D4830F40020006B0886008701740885
:101B180081006B0886008701811708000830F400EF
:101B280020006B0886008701740881006B08860016
:101B38008701811708002200C21BC2132100E4019B
:101B4800080022005508031D08000130F100710843
:101B5800D5005608031D08000130F1007108D600B1
:101B6800023021006406031DCA2D20006B0A86007E
:101B7800870181014830F1006B08860087017108F0
:101B880081006B0886008701811708002100640323
:101B9800031D08002200CF010830F10020006E0A62
:101BA80086008701710881004030F1000030F200A2
:101BB8006E08023E860087017108C03F7208C13F67
:101BC8000430F1006E0886008701710881006E08F4
:101BD8008600870181172200CF01CF0A0830F10063
:101BE8007C0A86008701710881004030F1000030CE
:101BF800F2007C08023E860087017108C03F720827
:101C0800C13F8030F1007C0886008701710881009F
:101C180008000830F1007108F300003021006D025F
:101C2800083003196C0203182A2E6C08F100710899
:101C3800F3006708031D232EE701E70A2A2E67032E
:101C4800031D2A2E0230F1007108E7007308F10025
:101C5800F2017108EC027208ED3B7308F1002000F4
:101C68006B0A86008701710881004830F10071080D
:101C78002200DA0021006B1C5B2E782E21006908F7
:101C880084006A0885000008F10022005A088600CE
:101C980087017108810001302100E9070030EA3D21
:101CA8000130F10071082200DA070130F3027308ED
:101CB80003190800422E2100690884006A0885007B
:101CC8000008F10022005A08860087017108810087
:101CD80001302100E9070030EA3D0130F1007108C8
:101CE8002200DA070130F3027308031908005F2E97
:101CF800803020004006031D0800C030F100710844
:101D08002100EB00EE2EDF302100E9008330EA00ED
:101D18001230EC000030ED00080020004208031DDE
:101D2800C42E4208F100F201F135F20D2630710798
:101D380084008330723D8500003F2100E900013FA7
:101D4800EA006A08F2006908F100023071078400AD
:101D580072080318720A85000008F3007308EC0083
:101D68006A08F2006908F1000330710784007208FC
:101D78000318720A85000008F3007308ED000800D4
:101D88002100EB0108000330200042020318E82E6E
:101D98004208F100F201F135F20D2030710784009C
:101DA8008330723D8500003F2100E900013FEA00D1
:101DB800690884006A0885000008F100F2017108CA
:101DC800EC007208ED0008002100EB01080021007A
:101DD800EB01080020004308013A0319872E033A53
:101DE8000319912E013A0319C72EEB2E0800210082
:101DF800EB170E302000DB009930DA00DC015C08BC
:101E0800031D162F5A0886005B08870081010130E0
:101E1800DA070030DB3D0130FB007B08DC075C089B
:101E28000319062F0030F100F2002030F3000030D3
:101E3800F40020308931C5218E313D000E17200075
:101E4800DD0102305D0203183D2F5D08473E860024
:101E58000130870081015D08493E86000130870016
:101E680081010130FB007B08DD0702305D02031CA5
:101E7800292F0030F100F2000130F3000030F400A7
:101E8800EF308931C5218E313D000E132830FB001B
:101E98007B082000EB002030FB007B08EE006E087A
:101EA800FB007B08FC004208FB007B082100EE00D9
:101EB8006E08031D652F1030FB007B082000ED0025
:101EC800080000302000D6000130D500EE30FB00BD
:101ED8007B08D7000130D8000030D9008B31472368
:101EE8002030FB007B082000ED0008003D000E12AA
:101EF8002100EB1BBC2F2200C21F912F0230F600DD
:101F080076082100E40022005308031D8D2F8C3130
:101F1800EA242200D601D50108000830F6007C0A20
:101F280086008701760881004030F6000030F7000F
:101F38007C08023E860087017608C03F7708C13FCB
:101F48000C30F6007C0886008701760881007C0842
:101F58008600870181170430F60020006B08860090
:101F68008701760881006B088600870181170800C1
:101F78002000C01FD32F2100E401E40A22005208E8
:101F8800031DC92F8C31EA248F312200D601D501D7
:101F980021006208031D08008D31A52508000230C4
:101FA800F60076082100E4000830F6007C0A860076
:101FB8008701760881004030F6000030F7007C0881
:101FC800023E860087017608C03F7708C13F04308B
:101FD800F6007C0886008701760881007C08860068
:101FE800870181172200D601D50121006208031D4F
:081FF80008008D31A525080049
:020000040001F9
:04000E00A4CFCFDFCD
:00000001FF
