:04000000803106281D
:100008008031090082313C2A2100ED012000D40111
:100018002100E301E4012200AB012000D7015208CE
:100028008600043087018113D20652088600043006
:100038008113D206590886008113DD01DE01DF0134
:100048002200A201A301A401342080310330200042
:10005800E100E201E301E401E50192248931D129BB
:100068002000400E890C0339031D08004108840054
:100078000D3004020318080087310435AE3E8200B3
:1000880008000830DD17D50008003A29D729EE30D6
:10009800DB000030DC005D14DE01DE0ADD1708003D
:1000A8009D296C28EF304407EA00DB000030DC01B2
:1000B8004F28DD174408EF3E86008701420881007B
:1000C80008000230E100E201E301E401E501922CBD
:1000D8002000420B7E2840081F39031D7E2803306C
:1000E800DD174106031D7C282100E201E20A7E2873
:1000F8002100E20120004208031D080040081F39C2
:10010800023A031D080044080F390319080044087F
:100118000F39FA0002307A02031808002030550619
:10012800031D0800DD17C41BA42844080F39E03E4E
:10013800860087010108E90044080F39293EAE28E6
:1001480044080F39523E860087010108E900440837
:100158000F39273E8600013087000108E80068183B
:10016800B7286911B8286915C41BBE2844080F3977
:10017800E03EC12844080F39523E860087016908CD
:10018800810003304106031DE22869088600811FAB
:10019800DA28C41BD32844080F39293ED628440836
:1001A8000F39273E860001308700811469088600D0
:1001B8008701011569088600811708000430E906DF
:1001C8006908860087016908811FF928860081135C
:1001D800860005300117E100E2016908E300E40147
:1001E800E40AE50192248031FC2886008701011782
:1001F80004302000E906E818062969088600870106
:10020800811F2329C41B0C2944080F39293E0F29B3
:1002180044080F39273E860001308700811069089D
:1002280086003B30870181050530E100E20169085D
:10023800E300E401E40AE5019224803128296908F1
:1002480086003B3087018105200044080F39983E1D
:10025800FA000E30FB01FB3D7A08E6007B08E70058
:1002680066088600670887000110080080302000B3
:100278004006031D0800C030DD009129BB30DB00BB
:100288008930DC001230DE00DF0108004208031D5F
:1002980074294208F0000630F101F035F10D7007BD
:1002A80084008930713D8500003FDB00013FDC00A0
:1002B800F1005B08F000023E840071080318710A1F
:1002C80085000008DE005C08F1005B08F000033ED2
:1002D800840071080318710A85000008DF0008000F
:1002E800DD01080003304202031874294208F000B7
:1002F8000030F101F035F10D700784008930713D4F
:100308008500003FDB00013FDC005B0884005C08DF
:1003180085000008DE00DF0108004308013A0319E0
:100328004229033A03194A29013A031976297429FB
:1003380008002000C801C901C229DD172100620B8D
:10034800CD292000C814CD29DD17CD29DD17C41B00
:10035800B12944080F39E03EB42944080F39523E08
:10036800860087010108F0008600811FCD297008EA
:100378008600011DCD290130C800CD2940081F394C
:100388000319A129013A0319A829033A0319AA292B
:10039800CD292000DD1F08004830DB000230DC01D9
:1003A8005D14DE00080020000E30DD17FB009930D8
:1003B800FA00FC017A0886007B0887008101FA0AA6
:1003C8000319FB0AFC0A0319DE292030F001F101A8
:1003D800F200F3012A2280313D000E17FD017D084D
:1003E800273E86000130870081017D08293E86006E
:1003F80002308101FD0A7D02031CF329EF30F00170
:10040800F101F201F20AF3012A2280313D000E13B4
:1004180028302000D2002030D800D900420821001E
:10042800EE006E08031D1C2A10302000D5000800BD
:100438002000EE30E101E10AE201E300E401E40A10
:10044800E501922420302000D5000800F500F400D2
:100458000130F2020030F33B720F352A730A031998
:10046800080074088600870170088100F40A2C2AA5
:10047800503084000030850011308731E627803104
:10048800E03084000030850010308731E627803165
:1004980020308400013085000C308731E627803118
:1004A8002000562A00306123803172238031E323F3
:1004B800803120305502031C5B2A3D008E185B2AD0
:1004C800672280315B2A203020005502031C080077
:1004D8003D008E1808002100650803197B2A65086D
:1004E80086008701010D010D0139F8007C2AF80109
:1004F800F90178087904031D8C2AA030F001F10075
:100508004030F201F3000130162380312100E5006C
:1005180001304E238031013A031DCE2A21006A089A
:1005280003196C0B0800200056080319A32A560863
:1005380086008701010D010D0139FA00A42AFA018C
:10054800FB017A087B04031D080064302100EA00DF
:1005580023000F30A001A101A201A301A0052008DA
:10056800F0390938A0009030A10020005A08230073
:10057800A2007F30A300A030F001F00AF1000130A2
:10058800F2000430F300013016232000D6002100C9
:10059800EC01080021006A08031D08006C08031D0F
:1005A8000800200056080319E12A5608860087012A
:1005B800010D010D0139FC00E22AFC01FD017C0856
:1005C8007D04031D080064302100EA0023000F3079
:1005D800A001A101A201A301A0052008F039093852
:1005E800A0009030A10020005A082300A20020009B
:1005F800DA0A23004930A30120005A06031D062BFE
:100608003C30DA00A030F001F00AF1000130F200CD
:100618000430F300013016232000D6002100EC013D
:10062800EC0A0800F600700803191D2B7608523EE4
:100638001F2B7608E03E860087010108F70077083F
:10064800031900347108F4007F307205F50077084B
:10065800023E86007408C03F7508C13F770A8600CD
:100668007308810077088600403081057708860086
:10067800811577088600811770080319462B7608BC
:10068800523E482B7608E03E8600043087018106FA
:1006980077080800F000582B031020008C1D031465
:1006A8000030093D080000347008003A0319572B40
:1006B800013A0319502B572B0800F100003A03198F
:1006C8006C2B013A0319712B033A0319712B712B07
:1006D8000130FE2580310130F52D0800210012116E
:1006E8003D009301900198010E30F1009930F0001F
:1006F800F20170088600710887008101F00A031969
:10070800F10AF20A03197D2B16303D0091009F3043
:1007180097007B309200F301730809070907203E10
:10072800860000308701C03FC13FC23FC33F083049
:10073800F30A7302031C902B3D000E1796010E124C
:100748000E133D00901DB02B90112000DD012200FA
:10075800A201A301A401A52B01302100E600E700B6
:10076800E301E401F3017308523E86008701810129
:100778007308E03E860081017308273E8600013039
:10078800870081017308293E860002308101F30A3F
:100798007302031CB72B28302000D20016303D000E
:1007A80098002000A3014030A2000830A1000430C6
:1007B800A000A0172100EE012000D50108002000AC
:1007C8005508031DF72B3D008E019201163091004C
:1007D8009F3097007B3092008E19F42B8E15F02BEA
:1007E8002000D501D50A5503031D042C3D008E1A9F
:1007F800042C900192011214121602302000D50028
:100808003D001019121D0B2C1011E52580318E1C8E
:10081800102C2000121108001018121C192C722319
:1008280080310430D5003D001010101A121E202C03
:10083800DA2580313D001012101F392C121F2E2C82
:1008480073302000E100E201E301E401E40AE5017C
:10085800922480313D00101321006808031DE8032D
:100868006808031D392CB22480313D00901A921E6D
:100878003F2CBF2580319018921C4F2CFF30200050
:10088800E1007F30E200E301E401E40AE50192249B
:1008980080313D0093010430200055020318562C86
:1008A800121108003D00921D8F2C2000EF018C2CA6
:1008B8000F082000E000600CEE00EE0C6E0C0F3903
:1008C8002100E9003D009011200060196F2C2100E3
:1008D8006908293E722C21006908273E86000130EC
:1008E800870081066908031D7C2C72258031862CBF
:1008F80072302000E1006030E201E300E401E5012C
:100908009224803120000430EF0A6F0203188F2CE4
:100918003D0090195C2C2000121108006208003A72
:1009280003199F2C7F3A0319AC2CB12C0025803178
:10093800312E002D172E6108FF3E031C080084008D
:10094800753004020318080088310435003E82001F
:100958006108FF3A0319B12CB12C08002100660880
:10096800031D08000130E6006708031D0800013078
:10097800E700023020005706031DCE2C520A8600DD
:10098800870181015208860048308100520886009C
:1009980081170800570B08002200AB012000580AF5
:1009A80086000830870181004030F000F1015808C6
:1009B800023E86007008C03F7108C13F5808860093
:1009C800043081005808860081172200AB01AB0A69
:1009D8002000590A8600083081004030F000F101FB
:1009E8005908023E86007008C03F7108C13F590887
:1009F80086008030810008003D008E1C352D0130B6
:100A0800402D50035104031D0D2D0130592580310F
:100A18003B2D4B3050065104031D162D0130402547
:100A280080313B2D00305102973003195002031CCE
:100A38003B2DD001D1013B2D50035104031D282D1E
:100A48000130592580313B2D323050065104031DA9
:100A5800312D0130402580313B2D03305102B73014
:100A6800192D20005508203A0319052D202D2000A6
:100A7800D00A0319D10A0800F0004E2D22000E10EA
:100A8800080022008E10080022000E110800220023
:100A98008E1108007008840005300402031808004D
:100AA80087310435D23E82000800F000672D22000D
:100AB8000E14080022008E14080022000E150800EB
:100AC80022008E15080070088400053004020318FF
:100AD800080087310435C83E820008002D30E80040
:100AE80020006008FD39031DB82D60363F3909071D
:100AF8000907203ED800D9000430D90658088600D6
:100B08008701010C890C0F390D3A031DB72DED0132
:100B18006D08403E860087015808023E8400850122
:100B2800003FEB00013FEC006B0884006C08850077
:100B3800000881005808023E8600013081074131D3
:100B48000318810A0830ED0A6D02031C8C2D403011
:100B5800EB00EC015808023E860087016B08C03F95
:100B68006C08C13F08281D2FFD306005EB00043AD2
:100B7800031D0800782E181CD82D20005808860060
:100B8800803087010106031DD62D52088600843067
:100B98000106031DD62D580886000C308100580820
:100BA800860081173D0018109012080012151012C7
:100BB8008E1475302000E100E201E301E401E50153
:100BC800922C74302000E100E201E301E401E50128
:100BD800922480313D008E101211101D0800101152
:100BE800F12DF000003A0319FD2D013A0319FD2DEE
:100BF800FD2D0800F0000C2E21000E100800210029
:100C08008E10080021000E11080021008E11080026
:100C18007008840005300402031808008731043581
:100C2800DC3E82000800D60121003C30E5012000AE
:100C3800DA0021001E30EC01EC0AEA01F400013070
:100C480036268031A030F001F1004030F201F30087
:100C5800013016232100E500080021006A08031D61
:100C6800EA030800F900741D3C2EF0015326803178
:100C7800F41C422EF001F00A790853267908983EB0
:100C8800F5000E30F601F63D7508F7007608F80015
:100C98007708860078088700740881000800F20049
:100CA8002030F3007008F100F135720809070907D0
:100CB800710709070907F30773088600870181137D
:100CC8007008031D6A2E7208E03E6C2E7208523EB0
:100CD8008600870173088100730886000113730872
:100CE800043E86000117080052088600003087017C
:100CF800011B0130F3000430D20608305506031DED
:100D0800912E42087F393D009600160803198E2E51
:100D180010308F2E04302000D500570BC62E4830D7
:100D2800F100F2015208023E860087017108C03FB7
:100D38007208C13FCC268031023021006D06031DA8
:100D4800AF2E200052088600043087018100520827
:100D58008600811708007308031DBC2E2000520866
:100D680086004830870181005208860081170800F4
:100D7800200052088600083087018100520886004A
:100D8800811708002200A21BA2132000D701080027
:100D98000830F00000305F02083003195E020318C3
:100DA800E22E5E08F00021006D08031DDE2EED0125
:100DB800ED0AE22E6D0BE22E0230ED0070082000E5
:100DC800DE02031CDF03520A8600870170088100D7
:100DD80048302100EB0020005D1C042F192F210052
:100DE8006B088600870120005B0884005C0885008A
:100DF80000088100DB0A0319DC0A2100EB0AF00372
:100E0800700803190800F32E21006B08860087017B
:100E180020005B0884005C08850000088100DB0A6C
:100E28000319DC0A2100EB0AF00370080319080013
:100E3800082F02305706031D222F412FD701220009
:100E48002B08031D3F2F2000590A86000830870110
:100E580081004030F600F7015908023E8600760806
:100E6800C03F7708C13F590886000C3081005908F7
:100E7800860081170800AB01080058088600870122
:100E8800413FF500F200F301730822002402031D1C
:100E98004F2F720823020318532F2308F5007508F3
:100EA800A302031CA403F401750874020318682F35
:100EB8002008860087017408483E840085010008E0
:100EC8008100A00AF40A582F230824040319902F3C
:100ED8002000590A86000830870181004830F20056
:100EE800F3015908023E86007208C03F7308C13FEB
:100EF800580886005908011B882F86004830810051
:100F0800590886008117080086000830870181008B
:100F180059088600811708002000590A8600083001
:100F2800870181004030F200F3015908023E860033
:100F38007208C03F7308C13F590886000430810019
:100F48005908860081172200A21320005408031DA7
:100F58000800B22C8031542880315528803144282B
:100F680080315528803144288031452880314928EE
:100F78008031652880314B2880314A2880315628B5
:100F880080315D28803144288531712D85315B2D74
:100F980085315E2D8531612D8531642D8531582D42
:100FA8008531422D8531452D8531482D85314B2D93
:100FB8008631162E8631002E8631032E8631062E76
:100FC8008631092E640080010131890BE72F003436
:1010000084319E2C8431B12C8431B12C8431B12CAB
:101010008431B12C8431B12C8431B12C8431B12C88
:101020008431B12C8431B12C8431B12C8431B12C78
:101030008431B12C8431B12C8431B12C8431B12C68
:101040008431B12C8431B12C8431B12C8431B12C58
:101050008431B12C8431B12C8431B12C8431B12C48
:101060008431B12C8431B12C8431B12C8431B12C38
:101070008431B12C8431B12C8431B12C8431B12C28
:101080008431B12C8431B12C8431B12C8431B12C18
:101090008431B12C8431B12C8431B12C8431B12C08
:1010A0008431B12C8431B12C8431B12C8431B12CF8
:1010B0008431B12C8431B12C8431B12C8431B12CE8
:1010C0008431B12C8431B12C8431B12C8431B12CD8
:1010D0008431B12C8431B12C8431B12C8431B12CC8
:1010E0008431B12C8431B12C8431B12C8431B12CB8
:1010F0008431B12C8431B12C8431B12C8431B12CA8
:101100008431B12C8431B12C8431B12C8431B12C97
:101110008431B12C8431B12C8431B12C8431B12C87
:101120008431B12C8431B12C8431B12C8431B12C77
:101130008431B12C8431B12C8431B12C8431B12C67
:101140008431B12C8431B12C8431B12C8431B12C57
:101150008431B12C8431B12C8431B12C8431B12C47
:101160008431B12C8431B12C8431B12C8431B12C37
:101170008431B12C8431B12C8431B12C8431B12C27
:101180008431B12C8431B12C8431B12C8431B12C17
:101190008431B12C8431B12C8431B12C8431B12C07
:1011A0008431B12C8431B12C8431B12C8431B12CF7
:1011B0008431B12C8431B12C8431B12C8431B12CE7
:1011C0008431B12C8431B12C84319A2C84319D2C02
:0411D00084319D2C9D
:10120000CD3489346D348934A13489340834893437
:101210000934023465340034023401340034C034FB
:1012200032340934043400340034003401340134DD
:1012300000340034093424340134003401340934D6
:1012400000340134013409340434013400340234EC
:1012500001340334003400340734243401340034BE
:10126000013441340034063424340234013401346E
:101270000034063424340234023402340034093495
:10128000243403340134033401340234013400348F
:101290000934243403340234043401340134013475
:1012A000003409340534013402344034003400344D
:1012B0000034003405342534013401340134093458
:1012C00005348134023440340034003400340034B6
:1012D00005342534013401340334343403344D34BB
:1012E00000346934003463340034723400346F34B1
:1012F00000346334003468340034693400347034AA
:101300000034203400345434003465340034633401
:101310000034683400346E3400346F3400346C347C
:1013200000346F34003467340034793400342034AE
:101330000034493400346E340034633400342E34C5
:1013400000341A3403344D34003449340034443406
:1013500000344934003420340034453400347834C7
:101360000034613400346D340034703400346C3433
:101370000034653400341234013400340234003453
:10138000003400340834D83404345934003402347E
:101390000034013402340034013404340334093499
:1013A00004343D000E122000DD1B042A2200A21F7F
:1013B000E52902302000D70021006408031DE1293F
:1013C00030222100E701E60108002000590A8600CA
:1013D0000830870181004030F300F4015908023ED3
:1013E00086007308C03F7408C13F590886000C305E
:1013F0008100590886008117520886000430810058
:101400005208860081170800C01F172AD701D70A83
:1014100021006308031D0E2A302289312100E701D3
:10142000E60120005408031D08008431B22C02306C
:10143000D700590A86000830870181004030F30048
:10144000F4015908023E86007308C03F7408C13F8A
:1014500059088600043081005908860081170E2A39
:10146000E301E401023020005706031D4E2A590A09
:1014700086000830870181004830F100F2015908E8
:10148000023E86007108C03F7208C13F59088600BD
:101490004830810059088600811708005F0847021C
:1014A000031D542A5E08460203185A2A4708DF0023
:1014B0004608DE008631CC264830F100F2012000DB
:1014C0005208023E860087017108C03F7208C13F82
:1014D00052088600483081005208860081170800B3
:020000040001F9
:04000E00A2CF4FDF4F
:00000001FF
